{
  "contractName": "meDossier",
  "abi": [
    {
      "inputs": [],
      "name": "dindex",
      "outputs": [
        {
          "internalType": "uint256",
          "name": "",
          "type": "uint256"
        }
      ],
      "stateMutability": "view",
      "type": "function"
    },
    {
      "inputs": [
        {
          "internalType": "uint256",
          "name": "",
          "type": "uint256"
        }
      ],
      "name": "doctorList",
      "outputs": [
        {
          "internalType": "address",
          "name": "",
          "type": "address"
        }
      ],
      "stateMutability": "view",
      "type": "function"
    },
    {
      "inputs": [],
      "name": "pindex",
      "outputs": [
        {
          "internalType": "uint256",
          "name": "",
          "type": "uint256"
        }
      ],
      "stateMutability": "view",
      "type": "function"
    },
    {
      "inputs": [
        {
          "internalType": "address",
          "name": "pat",
          "type": "address"
        },
        {
          "internalType": "address",
          "name": "client",
          "type": "address"
        }
      ],
      "name": "isAuthorized",
      "outputs": [
        {
          "internalType": "bool",
          "name": "success",
          "type": "bool"
        }
      ],
      "stateMutability": "view",
      "type": "function"
    },
    {
      "inputs": [
        {
          "internalType": "string",
          "name": "_dname",
          "type": "string"
        },
        {
          "internalType": "string",
          "name": "_reason",
          "type": "string"
        },
        {
          "internalType": "string",
          "name": "_visitedDate",
          "type": "string"
        },
        {
          "internalType": "string",
          "name": "_ipfs",
          "type": "string"
        },
        {
          "internalType": "address",
          "name": "addr",
          "type": "address"
        }
      ],
      "name": "addRecord",
      "outputs": [],
      "stateMutability": "nonpayable",
      "type": "function"
    },
    {
      "inputs": [
        {
          "internalType": "string",
          "name": "_name",
          "type": "string"
        },
        {
          "internalType": "string",
          "name": "_phone",
          "type": "string"
        },
        {
          "internalType": "string",
          "name": "_gender",
          "type": "string"
        },
        {
          "internalType": "string",
          "name": "_dob",
          "type": "string"
        },
        {
          "internalType": "string",
          "name": "_bloodgroup",
          "type": "string"
        }
      ],
      "name": "addPatient",
      "outputs": [],
      "stateMutability": "nonpayable",
      "type": "function"
    },
    {
      "inputs": [
        {
          "internalType": "address",
          "name": "_addr",
          "type": "address"
        }
      ],
      "name": "getPatientDetails",
      "outputs": [
        {
          "internalType": "string",
          "name": "_name",
          "type": "string"
        },
        {
          "internalType": "string",
          "name": "_phone",
          "type": "string"
        },
        {
          "internalType": "string",
          "name": "_gender",
          "type": "string"
        },
        {
          "internalType": "string",
          "name": "_dob",
          "type": "string"
        },
        {
          "internalType": "string",
          "name": "_bloodgroup",
          "type": "string"
        }
      ],
      "stateMutability": "view",
      "type": "function"
    },
    {
      "inputs": [
        {
          "internalType": "address",
          "name": "_addr",
          "type": "address"
        }
      ],
      "name": "getrecordlist",
      "outputs": [
        {
          "internalType": "uint256",
          "name": "",
          "type": "uint256"
        }
      ],
      "stateMutability": "view",
      "type": "function"
    },
    {
      "inputs": [
        {
          "internalType": "address",
          "name": "_addr",
          "type": "address"
        },
        {
          "internalType": "uint256",
          "name": "_id",
          "type": "uint256"
        }
      ],
      "name": "getPatientRecords",
      "outputs": [
        {
          "internalType": "string",
          "name": "dname",
          "type": "string"
        },
        {
          "internalType": "string",
          "name": "reason",
          "type": "string"
        },
        {
          "internalType": "string",
          "name": "visitedDate",
          "type": "string"
        },
        {
          "internalType": "string",
          "name": "ipfs",
          "type": "string"
        }
      ],
      "stateMutability": "view",
      "type": "function"
    },
    {
      "inputs": [
        {
          "internalType": "string",
          "name": "_name",
          "type": "string"
        },
        {
          "internalType": "string",
          "name": "_hname",
          "type": "string"
        },
        {
          "internalType": "string",
          "name": "_faculty",
          "type": "string"
        },
        {
          "internalType": "string",
          "name": "_contact",
          "type": "string"
        }
      ],
      "name": "addDoctor",
      "outputs": [],
      "stateMutability": "nonpayable",
      "type": "function"
    },
    {
      "inputs": [
        {
          "internalType": "uint256",
          "name": "_id",
          "type": "uint256"
        }
      ],
      "name": "getDoctorbyId",
      "outputs": [
        {
          "internalType": "uint256",
          "name": "id",
          "type": "uint256"
        },
        {
          "internalType": "string",
          "name": "name",
          "type": "string"
        },
        {
          "internalType": "string",
          "name": "contact",
          "type": "string"
        },
        {
          "internalType": "string",
          "name": "hname",
          "type": "string"
        },
        {
          "internalType": "string",
          "name": "faculty",
          "type": "string"
        },
        {
          "internalType": "address",
          "name": "addr",
          "type": "address"
        },
        {
          "internalType": "bool",
          "name": "isApproved",
          "type": "bool"
        }
      ],
      "stateMutability": "view",
      "type": "function"
    },
    {
      "inputs": [
        {
          "internalType": "string",
          "name": "_name",
          "type": "string"
        }
      ],
      "name": "getDoctorbyName",
      "outputs": [
        {
          "internalType": "uint256",
          "name": "id",
          "type": "uint256"
        },
        {
          "internalType": "string",
          "name": "name",
          "type": "string"
        },
        {
          "internalType": "string",
          "name": "contact",
          "type": "string"
        },
        {
          "internalType": "string",
          "name": "hname",
          "type": "string"
        },
        {
          "internalType": "string",
          "name": "faculty",
          "type": "string"
        },
        {
          "internalType": "address",
          "name": "addr",
          "type": "address"
        },
        {
          "internalType": "bool",
          "name": "isApproved",
          "type": "bool"
        }
      ],
      "stateMutability": "view",
      "type": "function"
    },
    {
      "inputs": [
        {
          "internalType": "address",
          "name": "_address",
          "type": "address"
        }
      ],
      "name": "getDoctorByAddress",
      "outputs": [
        {
          "internalType": "uint256",
          "name": "id",
          "type": "uint256"
        },
        {
          "internalType": "string",
          "name": "name",
          "type": "string"
        },
        {
          "internalType": "string",
          "name": "contact",
          "type": "string"
        },
        {
          "internalType": "string",
          "name": "hname",
          "type": "string"
        },
        {
          "internalType": "string",
          "name": "faculty",
          "type": "string"
        },
        {
          "internalType": "address",
          "name": "addr",
          "type": "address"
        },
        {
          "internalType": "bool",
          "name": "isApproved",
          "type": "bool"
        }
      ],
      "stateMutability": "view",
      "type": "function"
    },
    {
      "inputs": [
        {
          "internalType": "address",
          "name": "_addr",
          "type": "address"
        }
      ],
      "name": "grantAccess",
      "outputs": [
        {
          "internalType": "bool",
          "name": "success",
          "type": "bool"
        }
      ],
      "stateMutability": "nonpayable",
      "type": "function"
    },
    {
      "inputs": [
        {
          "internalType": "address",
          "name": "_addr",
          "type": "address"
        }
      ],
      "name": "revoke_access",
      "outputs": [
        {
          "internalType": "bool",
          "name": "success",
          "type": "bool"
        }
      ],
      "stateMutability": "nonpayable",
      "type": "function"
    }
  ],
  "bytecode": "0x608060405260008055600060015534801561001957600080fd5b50613e90806100296000396000f3fe608060405234801561001057600080fd5b50600436106100f55760003560e01c806356fa82171161009757806391d4eb861161006657806391d4eb86146102c5578063928ed9da146102fb578063b2861ea914610319578063efe2ccc11461034f576100f5565b806356fa82171461022757806358c5d4bf1461024357806365e4ad9e1461027957806370333b80146102a9576100f5565b806327b1dcee116100d357806327b1dcee1461018a5780632874a75f146101ba57806332aa4aa7146101ed5780635658e43b14610209576100f5565b80630ae5e739146100fa578063127ca4b41461012a578063248c6a311461015a575b600080fd5b610114600480360381019061010f9190612e12565b610383565b60405161012191906134ff565b60405180910390f35b610144600480360381019061013f91906131d1565b6105e8565b60405161015191906134e4565b60405180910390f35b610174600480360381019061016f9190612e12565b610627565b60405161018191906137b1565b60405180910390f35b6101a4600480360381019061019f9190612e12565b610676565b6040516101b191906134ff565b60405180910390f35b6101d460048036038101906101cf9190612e7f565b61084e565b6040516101e4949392919061351a565b60405180910390f35b61020760048036038101906102029190612f08565b610dba565b005b610211611097565b60405161021e91906137b1565b60405180910390f35b610241600480360381019061023c91906130ca565b61109d565b005b61025d60048036038101906102589190612e12565b61147e565b60405161027097969594939291906137cc565b60405180910390f35b610293600480360381019061028e9190612e3f565b611866565b6040516102a091906134ff565b60405180910390f35b6102c360048036038101906102be9190612fdf565b6118fa565b005b6102df60048036038101906102da9190612ebf565b611b94565b6040516102f297969594939291906137cc565b60405180910390f35b6103036120d4565b60405161031091906137b1565b60405180910390f35b610333600480360381019061032e91906131d1565b6120da565b60405161034697969594939291906137cc565b60405180910390f35b61036960048036038101906103649190612e12565b6125e4565b60405161037a95949392919061357b565b60405180910390f35b60008173ffffffffffffffffffffffffffffffffffffffff163373ffffffffffffffffffffffffffffffffffffffff1614156103f4576040517f08c379a00000000000000000000000000000000000000000000000000000000081526004016103eb90613711565b60405180910390fd5b600760008373ffffffffffffffffffffffffffffffffffffffff1673ffffffffffffffffffffffffffffffffffffffff16815260200190815260200160002060009054906101000a900460ff16610480576040517f08c379a0000000000000000000000000000000000000000000000000000000008152600401610477906136b1565b60405180910390fd5b600860003373ffffffffffffffffffffffffffffffffffffffff1673ffffffffffffffffffffffffffffffffffffffff16815260200190815260200160002060008373ffffffffffffffffffffffffffffffffffffffff1673ffffffffffffffffffffffffffffffffffffffff16815260200190815260200160002060009054906101000a900460ff161561054a576040517f08c379a000000000000000000000000000000000000000000000000000000000815260040161054190613751565b60405180910390fd5b6001600860003373ffffffffffffffffffffffffffffffffffffffff1673ffffffffffffffffffffffffffffffffffffffff16815260200190815260200160002060008473ffffffffffffffffffffffffffffffffffffffff1673ffffffffffffffffffffffffffffffffffffffff16815260200190815260200160002060006101000a81548160ff02191690831515021790555060019050919050565b600381815481106105f857600080fd5b906000526020600020016000915054906101000a900473ffffffffffffffffffffffffffffffffffffffff1681565b6000600460008373ffffffffffffffffffffffffffffffffffffffff1673ffffffffffffffffffffffffffffffffffffffff168152602001908152602001600020600601805490509050919050565b60008173ffffffffffffffffffffffffffffffffffffffff163373ffffffffffffffffffffffffffffffffffffffff1614156106e7576040517f08c379a00000000000000000000000000000000000000000000000000000000081526004016106de90613631565b60405180910390fd5b600860003373ffffffffffffffffffffffffffffffffffffffff1673ffffffffffffffffffffffffffffffffffffffff16815260200190815260200160002060008373ffffffffffffffffffffffffffffffffffffffff1673ffffffffffffffffffffffffffffffffffffffff16815260200190815260200160002060009054906101000a900460ff166107b0576040517f08c379a00000000000000000000000000000000000000000000000000000000081526004016107a7906136f1565b60405180910390fd5b6000600860003373ffffffffffffffffffffffffffffffffffffffff1673ffffffffffffffffffffffffffffffffffffffff16815260200190815260200160002060008473ffffffffffffffffffffffffffffffffffffffff1673ffffffffffffffffffffffffffffffffffffffff16815260200190815260200160002060006101000a81548160ff02191690831515021790555060019050919050565b606080606080600660008773ffffffffffffffffffffffffffffffffffffffff1673ffffffffffffffffffffffffffffffffffffffff16815260200190815260200160002060009054906101000a900460ff166108e0576040517f08c379a00000000000000000000000000000000000000000000000000000000081526004016108d790613731565b60405180910390fd5b600860008773ffffffffffffffffffffffffffffffffffffffff1673ffffffffffffffffffffffffffffffffffffffff16815260200190815260200160002060003373ffffffffffffffffffffffffffffffffffffffff1673ffffffffffffffffffffffffffffffffffffffff16815260200190815260200160002060009054906101000a900460ff16806109a057508573ffffffffffffffffffffffffffffffffffffffff163373ffffffffffffffffffffffffffffffffffffffff16145b15610d7657600460008773ffffffffffffffffffffffffffffffffffffffff1673ffffffffffffffffffffffffffffffffffffffff16815260200190815260200160002060060185815481106109f9576109f8613ad3565b5b9060005260206000209060040201600001600460008873ffffffffffffffffffffffffffffffffffffffff1673ffffffffffffffffffffffffffffffffffffffff1681526020019081526020016000206006018681548110610a5e57610a5d613ad3565b5b9060005260206000209060040201600101600460008973ffffffffffffffffffffffffffffffffffffffff1673ffffffffffffffffffffffffffffffffffffffff1681526020019081526020016000206006018781548110610ac357610ac2613ad3565b5b9060005260206000209060040201600201600460008a73ffffffffffffffffffffffffffffffffffffffff1673ffffffffffffffffffffffffffffffffffffffff1681526020019081526020016000206006018881548110610b2857610b27613ad3565b5b9060005260206000209060040201600301838054610b45906139c9565b80601f0160208091040260200160405190810160405280929190818152602001828054610b71906139c9565b8015610bbe5780601f10610b9357610100808354040283529160200191610bbe565b820191906000526020600020905b815481529060010190602001808311610ba157829003601f168201915b50505050509350828054610bd1906139c9565b80601f0160208091040260200160405190810160405280929190818152602001828054610bfd906139c9565b8015610c4a5780601f10610c1f57610100808354040283529160200191610c4a565b820191906000526020600020905b815481529060010190602001808311610c2d57829003601f168201915b50505050509250818054610c5d906139c9565b80601f0160208091040260200160405190810160405280929190818152602001828054610c89906139c9565b8015610cd65780601f10610cab57610100808354040283529160200191610cd6565b820191906000526020600020905b815481529060010190602001808311610cb957829003601f168201915b50505050509150808054610ce9906139c9565b80601f0160208091040260200160405190810160405280929190818152602001828054610d15906139c9565b8015610d625780601f10610d3757610100808354040283529160200191610d62565b820191906000526020600020905b815481529060010190602001808311610d4557829003601f168201915b505050505090509350935093509350610db1565b6040517f08c379a0000000000000000000000000000000000000000000000000000000008152600401610da8906136d1565b60405180910390fd5b92959194509250565b600760003373ffffffffffffffffffffffffffffffffffffffff1673ffffffffffffffffffffffffffffffffffffffff16815260200190815260200160002060009054906101000a900460ff1615610e47576040517f08c379a0000000000000000000000000000000000000000000000000000000008152600401610e3e90613651565b60405180910390fd5b60003390506003819080600181540180825580915050600190039060005260206000200160009091909190916101000a81548173ffffffffffffffffffffffffffffffffffffffff021916908373ffffffffffffffffffffffffffffffffffffffff16021790555060018054610ebd91906138e9565b6001819055506001600760008373ffffffffffffffffffffffffffffffffffffffff1673ffffffffffffffffffffffffffffffffffffffff16815260200190815260200160002060006101000a81548160ff0219169083151502179055506040518060e0016040528060015481526020018681526020018381526020018581526020018481526020018273ffffffffffffffffffffffffffffffffffffffff16815260200160011515815250600560008373ffffffffffffffffffffffffffffffffffffffff1673ffffffffffffffffffffffffffffffffffffffff168152602001908152602001600020600082015181600001556020820151816001019080519060200190610fce929190612cd5565b506040820151816002019080519060200190610feb929190612cd5565b506060820151816003019080519060200190611008929190612cd5565b506080820151816004019080519060200190611025929190612cd5565b5060a08201518160050160006101000a81548173ffffffffffffffffffffffffffffffffffffffff021916908373ffffffffffffffffffffffffffffffffffffffff16021790555060c08201518160050160146101000a81548160ff0219169083151502179055509050505050505050565b60005481565b600660003373ffffffffffffffffffffffffffffffffffffffff1673ffffffffffffffffffffffffffffffffffffffff16815260200190815260200160002060009054906101000a900460ff161561112a576040517f08c379a000000000000000000000000000000000000000000000000000000000815260040161112190613611565b60405180910390fd5b6002339080600181540180825580915050600190039060005260206000200160009091909190916101000a81548173ffffffffffffffffffffffffffffffffffffffff021916908373ffffffffffffffffffffffffffffffffffffffff160217905550600160005461119c91906138e9565b6000819055506001600660003373ffffffffffffffffffffffffffffffffffffffff1673ffffffffffffffffffffffffffffffffffffffff16815260200190815260200160002060006101000a81548160ff021916908315150217905550600054600460003373ffffffffffffffffffffffffffffffffffffffff1673ffffffffffffffffffffffffffffffffffffffff1681526020019081526020016000206000018190555084600460003373ffffffffffffffffffffffffffffffffffffffff1673ffffffffffffffffffffffffffffffffffffffff1681526020019081526020016000206001019080519060200190611299929190612cd5565b5083600460003373ffffffffffffffffffffffffffffffffffffffff1673ffffffffffffffffffffffffffffffffffffffff16815260200190815260200160002060020190805190602001906112f0929190612cd5565b5082600460003373ffffffffffffffffffffffffffffffffffffffff1673ffffffffffffffffffffffffffffffffffffffff1681526020019081526020016000206003019080519060200190611347929190612cd5565b5081600460003373ffffffffffffffffffffffffffffffffffffffff1673ffffffffffffffffffffffffffffffffffffffff168152602001908152602001600020600401908051906020019061139e929190612cd5565b5080600460003373ffffffffffffffffffffffffffffffffffffffff1673ffffffffffffffffffffffffffffffffffffffff16815260200190815260200160002060050190805190602001906113f5929190612cd5565b5033600460003373ffffffffffffffffffffffffffffffffffffffff1673ffffffffffffffffffffffffffffffffffffffff16815260200190815260200160002060070160006101000a81548173ffffffffffffffffffffffffffffffffffffffff021916908373ffffffffffffffffffffffffffffffffffffffff1602179055505050505050565b6000606080606080600080600560008973ffffffffffffffffffffffffffffffffffffffff1673ffffffffffffffffffffffffffffffffffffffff16815260200190815260200160002060050160149054906101000a900460ff16611518576040517f08c379a000000000000000000000000000000000000000000000000000000000815260040161150f906135f1565b60405180910390fd5b6000600560008a73ffffffffffffffffffffffffffffffffffffffff1673ffffffffffffffffffffffffffffffffffffffff1681526020019081526020016000206040518060e00160405290816000820154815260200160018201805461157e906139c9565b80601f01602080910402602001604051908101604052809291908181526020018280546115aa906139c9565b80156115f75780601f106115cc576101008083540402835291602001916115f7565b820191906000526020600020905b8154815290600101906020018083116115da57829003601f168201915b50505050508152602001600282018054611610906139c9565b80601f016020809104026020016040519081016040528092919081815260200182805461163c906139c9565b80156116895780601f1061165e57610100808354040283529160200191611689565b820191906000526020600020905b81548152906001019060200180831161166c57829003601f168201915b505050505081526020016003820180546116a2906139c9565b80601f01602080910402602001604051908101604052809291908181526020018280546116ce906139c9565b801561171b5780601f106116f05761010080835404028352916020019161171b565b820191906000526020600020905b8154815290600101906020018083116116fe57829003601f168201915b50505050508152602001600482018054611734906139c9565b80601f0160208091040260200160405190810160405280929190818152602001828054611760906139c9565b80156117ad5780601f10611782576101008083540402835291602001916117ad565b820191906000526020600020905b81548152906001019060200180831161179057829003601f168201915b505050505081526020016005820160009054906101000a900473ffffffffffffffffffffffffffffffffffffffff1673ffffffffffffffffffffffffffffffffffffffff1673ffffffffffffffffffffffffffffffffffffffff1681526020016005820160149054906101000a900460ff1615151515815250509050806000015181602001518260400151836060015184608001518560a001518660c00151975097509750975097509750975050919395979092949650565b6000600860008473ffffffffffffffffffffffffffffffffffffffff1673ffffffffffffffffffffffffffffffffffffffff16815260200190815260200160002060008373ffffffffffffffffffffffffffffffffffffffff1673ffffffffffffffffffffffffffffffffffffffff16815260200190815260200160002060009054906101000a900460ff16905092915050565b600660008273ffffffffffffffffffffffffffffffffffffffff1673ffffffffffffffffffffffffffffffffffffffff16815260200190815260200160002060009054906101000a900460ff16611986576040517f08c379a000000000000000000000000000000000000000000000000000000000815260040161197d90613731565b60405180910390fd5b600860008273ffffffffffffffffffffffffffffffffffffffff1673ffffffffffffffffffffffffffffffffffffffff16815260200190815260200160002060003373ffffffffffffffffffffffffffffffffffffffff1673ffffffffffffffffffffffffffffffffffffffff16815260200190815260200160002060009054906101000a900460ff1680611a4657508073ffffffffffffffffffffffffffffffffffffffff163373ffffffffffffffffffffffffffffffffffffffff16145b15611b5257600460008273ffffffffffffffffffffffffffffffffffffffff1673ffffffffffffffffffffffffffffffffffffffff16815260200190815260200160002060060160405180608001604052808781526020018681526020018581526020018481525090806001815401808255809150506001900390600052602060002090600402016000909190919091506000820151816000019080519060200190611af3929190612cd5565b506020820151816001019080519060200190611b10929190612cd5565b506040820151816002019080519060200190611b2d929190612cd5565b506060820151816003019080519060200190611b4a929190612cd5565b505050611b8d565b6040517f08c379a0000000000000000000000000000000000000000000000000000000008152600401611b8490613791565b60405180910390fd5b5050505050565b600060608060608060008060005b600380549050811015611c6a5788805190602001206005600060038481548110611bcf57611bce613ad3565b5b9060005260206000200160009054906101000a900473ffffffffffffffffffffffffffffffffffffffff1673ffffffffffffffffffffffffffffffffffffffff1673ffffffffffffffffffffffffffffffffffffffff168152602001908152602001600020600101604051611c4491906134cd565b60405180910390201415611c5757611c6a565b8080611c6290613a2c565b915050611ba2565b88805190602001206005600060038481548110611c8a57611c89613ad3565b5b9060005260206000200160009054906101000a900473ffffffffffffffffffffffffffffffffffffffff1673ffffffffffffffffffffffffffffffffffffffff1673ffffffffffffffffffffffffffffffffffffffff168152602001908152602001600020600101604051611cff91906134cd565b604051809103902014611d47576040517f08c379a0000000000000000000000000000000000000000000000000000000008152600401611d3e90613771565b60405180910390fd5b60006005600060038481548110611d6157611d60613ad3565b5b9060005260206000200160009054906101000a900473ffffffffffffffffffffffffffffffffffffffff1673ffffffffffffffffffffffffffffffffffffffff1673ffffffffffffffffffffffffffffffffffffffff1681526020019081526020016000206040518060e001604052908160008201548152602001600182018054611deb906139c9565b80601f0160208091040260200160405190810160405280929190818152602001828054611e17906139c9565b8015611e645780601f10611e3957610100808354040283529160200191611e64565b820191906000526020600020905b815481529060010190602001808311611e4757829003601f168201915b50505050508152602001600282018054611e7d906139c9565b80601f0160208091040260200160405190810160405280929190818152602001828054611ea9906139c9565b8015611ef65780601f10611ecb57610100808354040283529160200191611ef6565b820191906000526020600020905b815481529060010190602001808311611ed957829003601f168201915b50505050508152602001600382018054611f0f906139c9565b80601f0160208091040260200160405190810160405280929190818152602001828054611f3b906139c9565b8015611f885780601f10611f5d57610100808354040283529160200191611f88565b820191906000526020600020905b815481529060010190602001808311611f6b57829003601f168201915b50505050508152602001600482018054611fa1906139c9565b80601f0160208091040260200160405190810160405280929190818152602001828054611fcd906139c9565b801561201a5780601f10611fef5761010080835404028352916020019161201a565b820191906000526020600020905b815481529060010190602001808311611ffd57829003601f168201915b505050505081526020016005820160009054906101000a900473ffffffffffffffffffffffffffffffffffffffff1673ffffffffffffffffffffffffffffffffffffffff1673ffffffffffffffffffffffffffffffffffffffff1681526020016005820160149054906101000a900460ff1615151515815250509050806000015181602001518260400151836060015184608001518560a001518660c0015198509850985098509850985098505050919395979092949650565b60015481565b600060608060608060008060005b6003805490508110156121955788600560006003848154811061210e5761210d613ad3565b5b9060005260206000200160009054906101000a900473ffffffffffffffffffffffffffffffffffffffff1673ffffffffffffffffffffffffffffffffffffffff1673ffffffffffffffffffffffffffffffffffffffff16815260200190815260200160002060000154141561218257612195565b808061218d90613a2c565b9150506120e8565b8860056000600384815481106121ae576121ad613ad3565b5b9060005260206000200160009054906101000a900473ffffffffffffffffffffffffffffffffffffffff1673ffffffffffffffffffffffffffffffffffffffff1673ffffffffffffffffffffffffffffffffffffffff1681526020019081526020016000206000015414612257576040517f08c379a000000000000000000000000000000000000000000000000000000000815260040161224e90613691565b60405180910390fd5b6000600560006003848154811061227157612270613ad3565b5b9060005260206000200160009054906101000a900473ffffffffffffffffffffffffffffffffffffffff1673ffffffffffffffffffffffffffffffffffffffff1673ffffffffffffffffffffffffffffffffffffffff1681526020019081526020016000206040518060e0016040529081600082015481526020016001820180546122fb906139c9565b80601f0160208091040260200160405190810160405280929190818152602001828054612327906139c9565b80156123745780601f1061234957610100808354040283529160200191612374565b820191906000526020600020905b81548152906001019060200180831161235757829003601f168201915b5050505050815260200160028201805461238d906139c9565b80601f01602080910402602001604051908101604052809291908181526020018280546123b9906139c9565b80156124065780601f106123db57610100808354040283529160200191612406565b820191906000526020600020905b8154815290600101906020018083116123e957829003601f168201915b5050505050815260200160038201805461241f906139c9565b80601f016020809104026020016040519081016040528092919081815260200182805461244b906139c9565b80156124985780601f1061246d57610100808354040283529160200191612498565b820191906000526020600020905b81548152906001019060200180831161247b57829003601f168201915b505050505081526020016004820180546124b1906139c9565b80601f01602080910402602001604051908101604052809291908181526020018280546124dd906139c9565b801561252a5780601f106124ff5761010080835404028352916020019161252a565b820191906000526020600020905b81548152906001019060200180831161250d57829003601f168201915b505050505081526020016005820160009054906101000a900473ffffffffffffffffffffffffffffffffffffffff1673ffffffffffffffffffffffffffffffffffffffff1673ffffffffffffffffffffffffffffffffffffffff1681526020016005820160149054906101000a900460ff1615151515815250509050806000015181602001518260400151836060015184608001518560a001518660c0015198509850985098509850985098505050919395979092949650565b6060806060806060600660008773ffffffffffffffffffffffffffffffffffffffff1673ffffffffffffffffffffffffffffffffffffffff16815260200190815260200160002060009054906101000a900460ff16612678576040517f08c379a000000000000000000000000000000000000000000000000000000000815260040161266f90613671565b60405180910390fd5b6000600460008873ffffffffffffffffffffffffffffffffffffffff1673ffffffffffffffffffffffffffffffffffffffff16815260200190815260200160002060405180610100016040529081600082015481526020016001820180546126df906139c9565b80601f016020809104026020016040519081016040528092919081815260200182805461270b906139c9565b80156127585780601f1061272d57610100808354040283529160200191612758565b820191906000526020600020905b81548152906001019060200180831161273b57829003601f168201915b50505050508152602001600282018054612771906139c9565b80601f016020809104026020016040519081016040528092919081815260200182805461279d906139c9565b80156127ea5780601f106127bf576101008083540402835291602001916127ea565b820191906000526020600020905b8154815290600101906020018083116127cd57829003601f168201915b50505050508152602001600382018054612803906139c9565b80601f016020809104026020016040519081016040528092919081815260200182805461282f906139c9565b801561287c5780601f106128515761010080835404028352916020019161287c565b820191906000526020600020905b81548152906001019060200180831161285f57829003601f168201915b50505050508152602001600482018054612895906139c9565b80601f01602080910402602001604051908101604052809291908181526020018280546128c1906139c9565b801561290e5780601f106128e35761010080835404028352916020019161290e565b820191906000526020600020905b8154815290600101906020018083116128f157829003601f168201915b50505050508152602001600582018054612927906139c9565b80601f0160208091040260200160405190810160405280929190818152602001828054612953906139c9565b80156129a05780601f10612975576101008083540402835291602001916129a0565b820191906000526020600020905b81548152906001019060200180831161298357829003601f168201915b5050505050815260200160068201805480602002602001604051908101604052809291908181526020016000905b82821015612c485783829060005260206000209060040201604051806080016040529081600082018054612a01906139c9565b80601f0160208091040260200160405190810160405280929190818152602001828054612a2d906139c9565b8015612a7a5780601f10612a4f57610100808354040283529160200191612a7a565b820191906000526020600020905b815481529060010190602001808311612a5d57829003601f168201915b50505050508152602001600182018054612a93906139c9565b80601f0160208091040260200160405190810160405280929190818152602001828054612abf906139c9565b8015612b0c5780601f10612ae157610100808354040283529160200191612b0c565b820191906000526020600020905b815481529060010190602001808311612aef57829003601f168201915b50505050508152602001600282018054612b25906139c9565b80601f0160208091040260200160405190810160405280929190818152602001828054612b51906139c9565b8015612b9e5780601f10612b7357610100808354040283529160200191612b9e565b820191906000526020600020905b815481529060010190602001808311612b8157829003601f168201915b50505050508152602001600382018054612bb7906139c9565b80601f0160208091040260200160405190810160405280929190818152602001828054612be3906139c9565b8015612c305780601f10612c0557610100808354040283529160200191612c30565b820191906000526020600020905b815481529060010190602001808311612c1357829003601f168201915b505050505081525050815260200190600101906129ce565b5050505081526020016007820160009054906101000a900473ffffffffffffffffffffffffffffffffffffffff1673ffffffffffffffffffffffffffffffffffffffff1673ffffffffffffffffffffffffffffffffffffffff1681525050905080602001518160400151826060015183608001518460a00151955095509550955095505091939590929450565b828054612ce1906139c9565b90600052602060002090601f016020900481019282612d035760008555612d4a565b82601f10612d1c57805160ff1916838001178555612d4a565b82800160010185558215612d4a579182015b82811115612d49578251825591602001919060010190612d2e565b5b509050612d579190612d5b565b5090565b5b80821115612d74576000816000905550600101612d5c565b5090565b6000612d8b612d868461387c565b613857565b905082815260208101848484011115612da757612da6613b36565b5b612db2848285613987565b509392505050565b600081359050612dc981613e2c565b92915050565b600082601f830112612de457612de3613b31565b5b8135612df4848260208601612d78565b91505092915050565b600081359050612e0c81613e43565b92915050565b600060208284031215612e2857612e27613b40565b5b6000612e3684828501612dba565b91505092915050565b60008060408385031215612e5657612e55613b40565b5b6000612e6485828601612dba565b9250506020612e7585828601612dba565b9150509250929050565b60008060408385031215612e9657612e95613b40565b5b6000612ea485828601612dba565b9250506020612eb585828601612dfd565b9150509250929050565b600060208284031215612ed557612ed4613b40565b5b600082013567ffffffffffffffff811115612ef357612ef2613b3b565b5b612eff84828501612dcf565b91505092915050565b60008060008060808587031215612f2257612f21613b40565b5b600085013567ffffffffffffffff811115612f4057612f3f613b3b565b5b612f4c87828801612dcf565b945050602085013567ffffffffffffffff811115612f6d57612f6c613b3b565b5b612f7987828801612dcf565b935050604085013567ffffffffffffffff811115612f9a57612f99613b3b565b5b612fa687828801612dcf565b925050606085013567ffffffffffffffff811115612fc757612fc6613b3b565b5b612fd387828801612dcf565b91505092959194509250565b600080600080600060a08688031215612ffb57612ffa613b40565b5b600086013567ffffffffffffffff81111561301957613018613b3b565b5b61302588828901612dcf565b955050602086013567ffffffffffffffff81111561304657613045613b3b565b5b61305288828901612dcf565b945050604086013567ffffffffffffffff81111561307357613072613b3b565b5b61307f88828901612dcf565b935050606086013567ffffffffffffffff8111156130a05761309f613b3b565b5b6130ac88828901612dcf565b92505060806130bd88828901612dba565b9150509295509295909350565b600080600080600060a086880312156130e6576130e5613b40565b5b600086013567ffffffffffffffff81111561310457613103613b3b565b5b61311088828901612dcf565b955050602086013567ffffffffffffffff81111561313157613130613b3b565b5b61313d88828901612dcf565b945050604086013567ffffffffffffffff81111561315e5761315d613b3b565b5b61316a88828901612dcf565b935050606086013567ffffffffffffffff81111561318b5761318a613b3b565b5b61319788828901612dcf565b925050608086013567ffffffffffffffff8111156131b8576131b7613b3b565b5b6131c488828901612dcf565b9150509295509295909350565b6000602082840312156131e7576131e6613b40565b5b60006131f584828501612dfd565b91505092915050565b6132078161393f565b82525050565b61321681613951565b82525050565b60008154613229816139c9565b61323381866138cd565b9450600182166000811461324e576001811461325f57613292565b60ff19831686528186019350613292565b613268856138ad565b60005b8381101561328a5781548189015260018201915060208101905061326b565b838801955050505b50505092915050565b60006132a6826138c2565b6132b081856138d8565b93506132c0818560208601613996565b6132c981613b45565b840191505092915050565b60006132e16027836138d8565b91506132ec82613b56565b604082019050919050565b6000613304601e836138d8565b915061330f82613ba5565b602082019050919050565b60006133276019836138d8565b915061333282613bce565b602082019050919050565b600061334a6012836138d8565b915061335582613bf7565b602082019050919050565b600061336d6026836138d8565b915061337882613c20565b604082019050919050565b60006133906018836138d8565b915061339b82613c6f565b602082019050919050565b60006133b36018836138d8565b91506133be82613c98565b602082019050919050565b60006133d66019836138d8565b91506133e182613cc1565b602082019050919050565b60006133f9601a836138d8565b915061340482613cea565b602082019050919050565b600061341c6017836138d8565b915061342782613d13565b602082019050919050565b600061343f6025836138d8565b915061344a82613d3c565b604082019050919050565b6000613462601a836138d8565b915061346d82613d8b565b602082019050919050565b60006134856029836138d8565b915061349082613db4565b604082019050919050565b60006134a86017836138d8565b91506134b382613e03565b602082019050919050565b6134c78161397d565b82525050565b60006134d9828461321c565b915081905092915050565b60006020820190506134f960008301846131fe565b92915050565b6000602082019050613514600083018461320d565b92915050565b60006080820190508181036000830152613534818761329b565b90508181036020830152613548818661329b565b9050818103604083015261355c818561329b565b90508181036060830152613570818461329b565b905095945050505050565b600060a0820190508181036000830152613595818861329b565b905081810360208301526135a9818761329b565b905081810360408301526135bd818661329b565b905081810360608301526135d1818561329b565b905081810360808301526135e5818461329b565b90509695505050505050565b6000602082019050818103600083015261360a816132d4565b9050919050565b6000602082019050818103600083015261362a816132f7565b9050919050565b6000602082019050818103600083015261364a8161331a565b9050919050565b6000602082019050818103600083015261366a8161333d565b9050919050565b6000602082019050818103600083015261368a81613360565b9050919050565b600060208201905081810360008301526136aa81613383565b9050919050565b600060208201905081810360008301526136ca816133a6565b9050919050565b600060208201905081810360008301526136ea816133c9565b9050919050565b6000602082019050818103600083015261370a816133ec565b9050919050565b6000602082019050818103600083015261372a8161340f565b9050919050565b6000602082019050818103600083015261374a81613432565b9050919050565b6000602082019050818103600083015261376a81613455565b9050919050565b6000602082019050818103600083015261378a81613478565b9050919050565b600060208201905081810360008301526137aa8161349b565b9050919050565b60006020820190506137c660008301846134be565b92915050565b600060e0820190506137e1600083018a6134be565b81810360208301526137f3818961329b565b90508181036040830152613807818861329b565b9050818103606083015261381b818761329b565b9050818103608083015261382f818661329b565b905061383e60a08301856131fe565b61384b60c083018461320d565b98975050505050505050565b6000613861613872565b905061386d82826139fb565b919050565b6000604051905090565b600067ffffffffffffffff82111561389757613896613b02565b5b6138a082613b45565b9050602081019050919050565b60008190508160005260206000209050919050565b600081519050919050565b600081905092915050565b600082825260208201905092915050565b60006138f48261397d565b91506138ff8361397d565b9250827fffffffffffffffffffffffffffffffffffffffffffffffffffffffffffffffff0382111561393457613933613a75565b5b828201905092915050565b600061394a8261395d565b9050919050565b60008115159050919050565b600073ffffffffffffffffffffffffffffffffffffffff82169050919050565b6000819050919050565b82818337600083830152505050565b60005b838110156139b4578082015181840152602081019050613999565b838111156139c3576000848401525b50505050565b600060028204905060018216806139e157607f821691505b602082108114156139f5576139f4613aa4565b5b50919050565b613a0482613b45565b810181811067ffffffffffffffff82111715613a2357613a22613b02565b5b80604052505050565b6000613a378261397d565b91507fffffffffffffffffffffffffffffffffffffffffffffffffffffffffffffffff821415613a6a57613a69613a75565b5b600182019050919050565b7f4e487b7100000000000000000000000000000000000000000000000000000000600052601160045260246000fd5b7f4e487b7100000000000000000000000000000000000000000000000000000000600052602260045260246000fd5b7f4e487b7100000000000000000000000000000000000000000000000000000000600052603260045260246000fd5b7f4e487b7100000000000000000000000000000000000000000000000000000000600052604160045260246000fd5b600080fd5b600080fd5b600080fd5b600080fd5b6000601f19601f8301169050919050565b7f446f63746f72206973206e6f7420417070726f766564206f7220646f65736e2760008201527f7420657869737400000000000000000000000000000000000000000000000000602082015250565b7f416c72656164792050617469656e74206163636f756e74206578697374730000600082015250565b7f596f752063616e27742072656d6f766520796f757273656c6600000000000000600082015250565b7f416c726561647920526567697374657265640000000000000000000000000000600082015250565b7f4e6f2050617469656e747320666f756e642061742074686520676976656e206160008201527f6464726573730000000000000000000000000000000000000000000000000000602082015250565b7f446f63746f7220494420646f65736e2774206578697374730000000000000000600082015250565b7f4e6f74207265676973746572656420617320646f63746f720000000000000000600082015250565b7f5265636f72642063616e6e6f7420626520616363657373656400000000000000600082015250565b7f55736572206973206e6f7420617574686f72697a656420796574000000000000600082015250565b7f596f752063616e6e6f742061646420796f757273656c66000000000000000000600082015250565b7f4e6f2070617469656e7420666f756e642061742074686520676976656e20616460008201527f6472657373000000000000000000000000000000000000000000000000000000602082015250565b7f5573657220697320616c726561647920617574686f72697a6564000000000000600082015250565b7f446f63746f7220646f65736e277420657869737473207769746820746865206760008201527f6976656e206e616d650000000000000000000000000000000000000000000000602082015250565b7f5265636f72642063616e6e6f7420626520616464656420000000000000000000600082015250565b613e358161393f565b8114613e4057600080fd5b50565b613e4c8161397d565b8114613e5757600080fd5b5056fea26469706673582212206a986cf475d19c79cece494aca2f26c4501f4e763e19913f98707fad329f698864736f6c63430008060033",
  "immutableReferences": {},
  "source": "\npragma solidity >=0.4.22 <0.9.0;\n\ncontract meDossier{\n    \n    uint256 public pindex=0;\n    uint256 public dindex=0;\n    \n    struct Records {\n    string dname;\n    string reason;\n    string visitedDate;\n    string ipfs;\n    }\n\n    struct doctor {\n        uint256 id;\n        string name;\n        string contact;\n        string hname;\n        string faculty;\n        address addr;\n        bool isApproved;\n    }\n    \n    struct patient{\n        uint256 id;\n        string name;\n        string phone;\n        string gender;\n        string dob;\n        string bloodgroup;\n        Records[] records;\n        address addr;\n    }\n address[] private patientList;\n    address[] public doctorList;\n\n    mapping(address=>patient) patients;\n    mapping(address=>doctor) doctors;\n    mapping(address=>bool) isPatient;\n    mapping(address=>bool) isDoctor;\n\n    mapping(address=>mapping(address=>bool)) Authorized;\n\n    function isAuthorized(address pat,address client ) public view returns (bool success){\n        return Authorized[pat][client];\n    }\n\n\n    function addRecord(string memory _dname,string memory _reason,string memory _visitedDate,string memory _ipfs, address addr) public{\n        require(isPatient[addr],\"No patient found at the given address\");\n        \n        if(Authorized[addr][msg.sender] || msg.sender == addr){\n                patients[addr].records.push(Records(_dname,_reason,_visitedDate,_ipfs));\n        }\n        else \n        revert(\"Record cannot be added \");\n       \n       \n        // require(Authorized[addr][msg.sender],\"You do not have permission to add records!\");\n        // require(isPatient[addr],\"User Not registered\");\n        // patients[addr].records.push(Records(_dname,_reason,_visitedDate,_ipfs));\n    }\n    \n    function addPatient(string memory _name,string memory _phone,string memory _gender,string memory _dob,string memory _bloodgroup) public {\n        require(!isPatient[msg.sender],\"Already Patient account exists\");\n        patientList.push(msg.sender);\n        pindex = pindex + 1;\n        isPatient[msg.sender]=true;\n        patients[msg.sender].id=pindex;\n        patients[msg.sender].name=_name;\n        patients[msg.sender].phone=_phone;\n        patients[msg.sender].gender=_gender;\n        patients[msg.sender].dob=_dob;\n        patients[msg.sender].bloodgroup=_bloodgroup;\n        patients[msg.sender].addr=msg.sender;\n        \n    }\n    \n    function getPatientDetails(address _addr) public view returns(string memory _name,string memory _phone,string memory _gender,string memory _dob,string memory _bloodgroup){\n        require(isPatient[_addr],\"No Patients found at the given address\");\n        patient memory pat = patients[_addr];\n        return (pat.name,pat.phone,pat.gender,pat.dob,pat.bloodgroup);\n    }\n    \n     \n     function getrecordlist(address _addr)  public view returns (uint256 ){\n     \n     return (patients[_addr].records.length);\n     }\n    \n    function getPatientRecords(address _addr, uint256 _id) public view \n    returns(string memory dname, string memory reason ,string memory visitedDate, string memory ipfs){\n        require(isPatient[_addr],\"No patient found at the given address\");\n        if(Authorized[_addr][msg.sender] || msg.sender == _addr){\n                return( patients[_addr].records[_id].dname,patients[_addr].records[_id].reason,\n                patients[_addr].records[_id].visitedDate,patients[_addr].records[_id].ipfs\n                    );\n        }\n        else \n        revert(\"Record cannot be accessed\");\n    }\n\n\n\n    function addDoctor(string memory _name,string memory _hname,string memory _faculty,string memory _contact) public {\n        require(!isDoctor[msg.sender],\"Already Registered\");\n        address _addr = msg.sender;\n        doctorList.push(_addr);\n\n        dindex = dindex + 1;\n        isDoctor[_addr]=true;\n        doctors[_addr]=doctor(dindex,_name,_contact,_hname,_faculty,_addr,true);\n    }\n    \n    function getDoctorbyId(uint256 _id) public view returns(uint256 id,string memory name , string memory contact ,string memory hname ,string memory faculty ,address addr , bool isApproved)  {\n        uint256 i=0;\n        for(i = 0;i<doctorList.length;i++){\n        if(doctors[doctorList[i]].id==_id){\n            break;\n        }\n    }    \n        require(doctors[doctorList[i]].id==_id,\"Doctor ID doesn't exists\");\n        doctor memory doc = doctors[doctorList[i]];\n        return (doc.id,doc.name,doc.contact,doc.hname,doc.faculty,doc.addr, doc.isApproved);\n    }\n\n        function getDoctorbyName(string memory _name) public view returns(uint256 id,string memory name , string memory contact ,string memory hname ,string memory faculty ,address addr , bool isApproved)  {\n        uint256 i=0;\n        for(i = 0;i<doctorList.length;i++){\n        if(keccak256(bytes(doctors[doctorList[i]].name)) == keccak256(bytes(_name))){\n            break;\n        }\n    }    \n        require(keccak256(bytes(doctors[doctorList[i]].name)) == keccak256(bytes(_name)),\"Doctor doesn't exists with the given name\");\n        doctor memory doc = doctors[doctorList[i]];\n        return (doc.id,doc.name,doc.contact,doc.hname,doc.faculty,doc.addr, doc.isApproved);\n    }\n    \n\n    function getDoctorByAddress(address _address) public view returns(uint256 id,string memory name , string memory contact ,string memory hname ,string memory faculty ,address addr , bool isApproved) {\n        require(doctors[_address].isApproved,\"Doctor is not Approved or doesn't exist\");\n        doctor memory doc = doctors[_address];\n        return (doc.id,doc.name,doc.contact,doc.hname,doc.faculty,doc.addr,doc.isApproved);\n    }  \n\n//Give access to certain address\n    function grantAccess(address _addr) public returns (bool success)\n    {   require(msg.sender != _addr,\"You cannot add yourself\");\n        require(isDoctor[_addr],\"Not registered as doctor\");\n        require(!Authorized[msg.sender][_addr],\"User is already authorized\");\n        Authorized[msg.sender][_addr] = true;\n        return true;\n    }\n\n//Revoke access of patient records fromcertain address\n      function revoke_access(address _addr)  public returns (bool success){\n        require(msg.sender!=_addr,\"You can't remove yourself\");\n        require(Authorized[msg.sender][_addr],\"User is not authorized yet\");\n        Authorized[msg.sender][_addr] = false;\n        return true;\n    }\n    \n\n}",
  "sourcePath": "/home/anu/Blockchain/Assignments/Blockchain/contracts/medossier.sol",
  "compiler": {
    "name": "solc",
    "version": "0.8.6+commit.11564f7e.Emscripten.clang"
  },
  "schemaVersion": "3.4.0",
  "updatedAt": "2021-06-23T06:09:14.081Z",
  "devdoc": {
    "kind": "dev",
    "methods": {},
    "version": 1
  },
  "userdoc": {
    "kind": "user",
    "methods": {},
    "version": 1
  }
}