{
  "contractName": "meDossier",
  "abi": [
    {
      "inputs": [],
      "name": "dindex",
      "outputs": [
        {
          "internalType": "uint256",
          "name": "",
          "type": "uint256"
        }
      ],
      "stateMutability": "view",
      "type": "function"
    },
    {
      "inputs": [
        {
          "internalType": "uint256",
          "name": "",
          "type": "uint256"
        }
      ],
      "name": "doctorList",
      "outputs": [
        {
          "internalType": "address",
          "name": "",
          "type": "address"
        }
      ],
      "stateMutability": "view",
      "type": "function"
    },
    {
      "inputs": [],
      "name": "pindex",
      "outputs": [
        {
          "internalType": "uint256",
          "name": "",
          "type": "uint256"
        }
      ],
      "stateMutability": "view",
      "type": "function"
    },
    {
      "inputs": [
        {
          "internalType": "string",
          "name": "_dname",
          "type": "string"
        },
        {
          "internalType": "string",
          "name": "_reason",
          "type": "string"
        },
        {
          "internalType": "string",
          "name": "_visitedDate",
          "type": "string"
        },
        {
          "internalType": "string",
          "name": "_ipfs",
          "type": "string"
        },
        {
          "internalType": "address",
          "name": "addr",
          "type": "address"
        }
      ],
      "name": "addRecord",
      "outputs": [],
      "stateMutability": "nonpayable",
      "type": "function"
    },
    {
      "inputs": [
        {
          "internalType": "string",
          "name": "_name",
          "type": "string"
        },
        {
          "internalType": "string",
          "name": "_phone",
          "type": "string"
        },
        {
          "internalType": "string",
          "name": "_gender",
          "type": "string"
        },
        {
          "internalType": "string",
          "name": "_dob",
          "type": "string"
        },
        {
          "internalType": "string",
          "name": "_bloodgroup",
          "type": "string"
        }
      ],
      "name": "addPatient",
      "outputs": [],
      "stateMutability": "nonpayable",
      "type": "function"
    },
    {
      "inputs": [
        {
          "internalType": "address",
          "name": "_addr",
          "type": "address"
        }
      ],
      "name": "getPatientDetails",
      "outputs": [
        {
          "internalType": "string",
          "name": "_name",
          "type": "string"
        },
        {
          "internalType": "string",
          "name": "_phone",
          "type": "string"
        },
        {
          "internalType": "string",
          "name": "_gender",
          "type": "string"
        },
        {
          "internalType": "string",
          "name": "_dob",
          "type": "string"
        },
        {
          "internalType": "string",
          "name": "_bloodgroup",
          "type": "string"
        }
      ],
      "stateMutability": "view",
      "type": "function"
    },
    {
      "inputs": [
        {
          "internalType": "address",
          "name": "_addr",
          "type": "address"
        }
      ],
      "name": "getrecordlist",
      "outputs": [
        {
          "internalType": "uint256",
          "name": "",
          "type": "uint256"
        }
      ],
      "stateMutability": "view",
      "type": "function"
    },
    {
      "inputs": [
        {
          "internalType": "address",
          "name": "_addr",
          "type": "address"
        },
        {
          "internalType": "uint256",
          "name": "_id",
          "type": "uint256"
        }
      ],
      "name": "getPatientRecords",
      "outputs": [
        {
          "internalType": "string",
          "name": "dname",
          "type": "string"
        },
        {
          "internalType": "string",
          "name": "reason",
          "type": "string"
        },
        {
          "internalType": "string",
          "name": "visitedDate",
          "type": "string"
        },
        {
          "internalType": "string",
          "name": "ipfs",
          "type": "string"
        }
      ],
      "stateMutability": "view",
      "type": "function"
    },
    {
      "inputs": [
        {
          "internalType": "string",
          "name": "_name",
          "type": "string"
        },
        {
          "internalType": "string",
          "name": "_contact",
          "type": "string"
        },
        {
          "internalType": "string",
          "name": "_faculty",
          "type": "string"
        }
      ],
      "name": "addDoctor",
      "outputs": [],
      "stateMutability": "nonpayable",
      "type": "function"
    },
    {
      "inputs": [
        {
          "internalType": "uint256",
          "name": "_id",
          "type": "uint256"
        }
      ],
      "name": "getDoctorbyId",
      "outputs": [
        {
          "internalType": "uint256",
          "name": "id",
          "type": "uint256"
        },
        {
          "internalType": "string",
          "name": "name",
          "type": "string"
        },
        {
          "internalType": "string",
          "name": "faculty",
          "type": "string"
        },
        {
          "internalType": "string",
          "name": "contact",
          "type": "string"
        },
        {
          "internalType": "address",
          "name": "addr",
          "type": "address"
        },
        {
          "internalType": "bool",
          "name": "isApproved",
          "type": "bool"
        }
      ],
      "stateMutability": "view",
      "type": "function"
    },
    {
      "inputs": [
        {
          "internalType": "address",
          "name": "_address",
          "type": "address"
        }
      ],
      "name": "getDoctorByAddress",
      "outputs": [
        {
          "internalType": "uint256",
          "name": "id",
          "type": "uint256"
        },
        {
          "internalType": "string",
          "name": "name",
          "type": "string"
        },
        {
          "internalType": "string",
          "name": "faculty",
          "type": "string"
        },
        {
          "internalType": "string",
          "name": "contact",
          "type": "string"
        },
        {
          "internalType": "address",
          "name": "addr",
          "type": "address"
        },
        {
          "internalType": "bool",
          "name": "isApproved",
          "type": "bool"
        }
      ],
      "stateMutability": "view",
      "type": "function"
    },
    {
      "inputs": [
        {
          "internalType": "address",
          "name": "_addr",
          "type": "address"
        }
      ],
      "name": "grantAccess",
      "outputs": [
        {
          "internalType": "bool",
          "name": "success",
          "type": "bool"
        }
      ],
      "stateMutability": "nonpayable",
      "type": "function"
    },
    {
      "inputs": [
        {
          "internalType": "address",
          "name": "_addr",
          "type": "address"
        }
      ],
      "name": "revoke_access",
      "outputs": [
        {
          "internalType": "bool",
          "name": "success",
          "type": "bool"
        }
      ],
      "stateMutability": "nonpayable",
      "type": "function"
    }
  ],
  "bytecode": "0x608060405260008055600060015534801561001957600080fd5b5061379a806100296000396000f3fe608060405234801561001057600080fd5b50600436106100cf5760003560e01c806356fa82171161008c57806370333b801161006657806370333b8014610252578063928ed9da1461026e578063b2861ea91461028c578063efe2ccc1146102c1576100cf565b806356fa8217146101e557806358c5d4bf146102015780635911bc2d14610236576100cf565b80630ae5e739146100d4578063127ca4b414610104578063248c6a311461013457806327b1dcee146101645780632874a75f146101945780635658e43b146101c7575b600080fd5b6100ee60048036038101906100e99190612a30565b6102f5565b6040516100fb9190612f65565b60405180910390f35b61011e60048036038101906101199190612d36565b6104ce565b60405161012b9190612f4a565b60405180910390f35b61014e60048036038101906101499190612a30565b61050d565b60405161015b91906131b7565b60405180910390f35b61017e60048036038101906101799190612a30565b61055c565b60405161018b9190612f65565b60405180910390f35b6101ae60048036038101906101a99190612a5d565b610734565b6040516101be9493929190612f80565b60405180910390f35b6101cf61103b565b6040516101dc91906131b7565b60405180910390f35b6101ff60048036038101906101fa9190612c2f565b611041565b005b61021b60048036038101906102169190612a30565b611422565b60405161022d969594939291906131d2565b60405180910390f35b610250600480360381019061024b9190612a9d565b61176e565b005b61026c60048036038101906102679190612b44565b611a27565b005b610276611d8e565b60405161028391906131b7565b60405180910390f35b6102a660048036038101906102a19190612d36565b611d94565b6040516102b8969594939291906131d2565b60405180910390f35b6102db60048036038101906102d69190612a30565b612202565b6040516102ec959493929190612fe1565b60405180910390f35b60008173ffffffffffffffffffffffffffffffffffffffff163373ffffffffffffffffffffffffffffffffffffffff161415610366576040517f08c379a000000000000000000000000000000000000000000000000000000000815260040161035d90613157565b60405180910390fd5b600860003373ffffffffffffffffffffffffffffffffffffffff1673ffffffffffffffffffffffffffffffffffffffff16815260200190815260200160002060008373ffffffffffffffffffffffffffffffffffffffff1673ffffffffffffffffffffffffffffffffffffffff16815260200190815260200160002060009054906101000a900460ff1615610430576040517f08c379a000000000000000000000000000000000000000000000000000000000815260040161042790613177565b60405180910390fd5b6001600860003373ffffffffffffffffffffffffffffffffffffffff1673ffffffffffffffffffffffffffffffffffffffff16815260200190815260200160002060008473ffffffffffffffffffffffffffffffffffffffff1673ffffffffffffffffffffffffffffffffffffffff16815260200190815260200160002060006101000a81548160ff02191690831515021790555060019050919050565b600381815481106104de57600080fd5b906000526020600020016000915054906101000a900473ffffffffffffffffffffffffffffffffffffffff1681565b6000600460008373ffffffffffffffffffffffffffffffffffffffff1673ffffffffffffffffffffffffffffffffffffffff168152602001908152602001600020600601805490509050919050565b60008173ffffffffffffffffffffffffffffffffffffffff163373ffffffffffffffffffffffffffffffffffffffff1614156105cd576040517f08c379a00000000000000000000000000000000000000000000000000000000081526004016105c490613097565b60405180910390fd5b600860003373ffffffffffffffffffffffffffffffffffffffff1673ffffffffffffffffffffffffffffffffffffffff16815260200190815260200160002060008373ffffffffffffffffffffffffffffffffffffffff1673ffffffffffffffffffffffffffffffffffffffff16815260200190815260200160002060009054906101000a900460ff16610696576040517f08c379a000000000000000000000000000000000000000000000000000000000815260040161068d90613137565b60405180910390fd5b6000600860003373ffffffffffffffffffffffffffffffffffffffff1673ffffffffffffffffffffffffffffffffffffffff16815260200190815260200160002060008473ffffffffffffffffffffffffffffffffffffffff1673ffffffffffffffffffffffffffffffffffffffff16815260200190815260200160002060006101000a81548160ff02191690831515021790555060019050919050565b606080606080600860008773ffffffffffffffffffffffffffffffffffffffff1673ffffffffffffffffffffffffffffffffffffffff16815260200190815260200160002060003373ffffffffffffffffffffffffffffffffffffffff1673ffffffffffffffffffffffffffffffffffffffff16815260200190815260200160002060009054906101000a900460ff1615610bf157600660008773ffffffffffffffffffffffffffffffffffffffff1673ffffffffffffffffffffffffffffffffffffffff16815260200190815260200160002060009054906101000a900460ff1615610bec57600460008773ffffffffffffffffffffffffffffffffffffffff1673ffffffffffffffffffffffffffffffffffffffff168152602001908152602001600020600601858154811061086f5761086e6134a4565b5b9060005260206000209060040201600001600460008873ffffffffffffffffffffffffffffffffffffffff1673ffffffffffffffffffffffffffffffffffffffff16815260200190815260200160002060060186815481106108d4576108d36134a4565b5b9060005260206000209060040201600101600460008973ffffffffffffffffffffffffffffffffffffffff1673ffffffffffffffffffffffffffffffffffffffff1681526020019081526020016000206006018781548110610939576109386134a4565b5b9060005260206000209060040201600201600460008a73ffffffffffffffffffffffffffffffffffffffff1673ffffffffffffffffffffffffffffffffffffffff168152602001908152602001600020600601888154811061099e5761099d6134a4565b5b90600052602060002090600402016003018380546109bb9061339a565b80601f01602080910402602001604051908101604052809291908181526020018280546109e79061339a565b8015610a345780601f10610a0957610100808354040283529160200191610a34565b820191906000526020600020905b815481529060010190602001808311610a1757829003601f168201915b50505050509350828054610a479061339a565b80601f0160208091040260200160405190810160405280929190818152602001828054610a739061339a565b8015610ac05780601f10610a9557610100808354040283529160200191610ac0565b820191906000526020600020905b815481529060010190602001808311610aa357829003601f168201915b50505050509250818054610ad39061339a565b80601f0160208091040260200160405190810160405280929190818152602001828054610aff9061339a565b8015610b4c5780601f10610b2157610100808354040283529160200191610b4c565b820191906000526020600020905b815481529060010190602001808311610b2f57829003601f168201915b50505050509150808054610b5f9061339a565b80601f0160208091040260200160405190810160405280929190818152602001828054610b8b9061339a565b8015610bd85780601f10610bad57610100808354040283529160200191610bd8565b820191906000526020600020905b815481529060010190602001808311610bbb57829003601f168201915b505050505090509350935093509350611032565b611031565b8573ffffffffffffffffffffffffffffffffffffffff163373ffffffffffffffffffffffffffffffffffffffff161415610ff657600460008773ffffffffffffffffffffffffffffffffffffffff1673ffffffffffffffffffffffffffffffffffffffff1681526020019081526020016000206006018581548110610c7957610c786134a4565b5b9060005260206000209060040201600001600460008873ffffffffffffffffffffffffffffffffffffffff1673ffffffffffffffffffffffffffffffffffffffff1681526020019081526020016000206006018681548110610cde57610cdd6134a4565b5b9060005260206000209060040201600101600460008973ffffffffffffffffffffffffffffffffffffffff1673ffffffffffffffffffffffffffffffffffffffff1681526020019081526020016000206006018781548110610d4357610d426134a4565b5b9060005260206000209060040201600201600460008a73ffffffffffffffffffffffffffffffffffffffff1673ffffffffffffffffffffffffffffffffffffffff1681526020019081526020016000206006018881548110610da857610da76134a4565b5b9060005260206000209060040201600301838054610dc59061339a565b80601f0160208091040260200160405190810160405280929190818152602001828054610df19061339a565b8015610e3e5780601f10610e1357610100808354040283529160200191610e3e565b820191906000526020600020905b815481529060010190602001808311610e2157829003601f168201915b50505050509350828054610e519061339a565b80601f0160208091040260200160405190810160405280929190818152602001828054610e7d9061339a565b8015610eca5780601f10610e9f57610100808354040283529160200191610eca565b820191906000526020600020905b815481529060010190602001808311610ead57829003601f168201915b50505050509250818054610edd9061339a565b80601f0160208091040260200160405190810160405280929190818152602001828054610f099061339a565b8015610f565780601f10610f2b57610100808354040283529160200191610f56565b820191906000526020600020905b815481529060010190602001808311610f3957829003601f168201915b50505050509150808054610f699061339a565b80601f0160208091040260200160405190810160405280929190818152602001828054610f959061339a565b8015610fe25780601f10610fb757610100808354040283529160200191610fe2565b820191906000526020600020905b815481529060010190602001808311610fc557829003601f168201915b505050505090509350935093509350611032565b6040517f08c379a000000000000000000000000000000000000000000000000000000000815260040161102890613117565b60405180910390fd5b5b92959194509250565b60005481565b600660003373ffffffffffffffffffffffffffffffffffffffff1673ffffffffffffffffffffffffffffffffffffffff16815260200190815260200160002060009054906101000a900460ff16156110ce576040517f08c379a00000000000000000000000000000000000000000000000000000000081526004016110c590613077565b60405180910390fd5b6002339080600181540180825580915050600190039060005260206000200160009091909190916101000a81548173ffffffffffffffffffffffffffffffffffffffff021916908373ffffffffffffffffffffffffffffffffffffffff160217905550600160005461114091906132ba565b6000819055506001600660003373ffffffffffffffffffffffffffffffffffffffff1673ffffffffffffffffffffffffffffffffffffffff16815260200190815260200160002060006101000a81548160ff021916908315150217905550600054600460003373ffffffffffffffffffffffffffffffffffffffff1673ffffffffffffffffffffffffffffffffffffffff1681526020019081526020016000206000018190555084600460003373ffffffffffffffffffffffffffffffffffffffff1673ffffffffffffffffffffffffffffffffffffffff168152602001908152602001600020600101908051906020019061123d9291906128f3565b5083600460003373ffffffffffffffffffffffffffffffffffffffff1673ffffffffffffffffffffffffffffffffffffffff16815260200190815260200160002060020190805190602001906112949291906128f3565b5082600460003373ffffffffffffffffffffffffffffffffffffffff1673ffffffffffffffffffffffffffffffffffffffff16815260200190815260200160002060030190805190602001906112eb9291906128f3565b5081600460003373ffffffffffffffffffffffffffffffffffffffff1673ffffffffffffffffffffffffffffffffffffffff16815260200190815260200160002060040190805190602001906113429291906128f3565b5080600460003373ffffffffffffffffffffffffffffffffffffffff1673ffffffffffffffffffffffffffffffffffffffff16815260200190815260200160002060050190805190602001906113999291906128f3565b5033600460003373ffffffffffffffffffffffffffffffffffffffff1673ffffffffffffffffffffffffffffffffffffffff16815260200190815260200160002060070160006101000a81548173ffffffffffffffffffffffffffffffffffffffff021916908373ffffffffffffffffffffffffffffffffffffffff1602179055505050505050565b60006060806060600080600560008873ffffffffffffffffffffffffffffffffffffffff1673ffffffffffffffffffffffffffffffffffffffff16815260200190815260200160002060050160009054906101000a900460ff166114bb576040517f08c379a00000000000000000000000000000000000000000000000000000000081526004016114b290613057565b60405180910390fd5b6000600560008973ffffffffffffffffffffffffffffffffffffffff1673ffffffffffffffffffffffffffffffffffffffff1681526020019081526020016000206040518060c0016040529081600082015481526020016001820180546115219061339a565b80601f016020809104026020016040519081016040528092919081815260200182805461154d9061339a565b801561159a5780601f1061156f5761010080835404028352916020019161159a565b820191906000526020600020905b81548152906001019060200180831161157d57829003601f168201915b505050505081526020016002820180546115b39061339a565b80601f01602080910402602001604051908101604052809291908181526020018280546115df9061339a565b801561162c5780601f106116015761010080835404028352916020019161162c565b820191906000526020600020905b81548152906001019060200180831161160f57829003601f168201915b505050505081526020016003820160009054906101000a900473ffffffffffffffffffffffffffffffffffffffff1673ffffffffffffffffffffffffffffffffffffffff1673ffffffffffffffffffffffffffffffffffffffff16815260200160048201805461169b9061339a565b80601f01602080910402602001604051908101604052809291908181526020018280546116c79061339a565b80156117145780601f106116e957610100808354040283529160200191611714565b820191906000526020600020905b8154815290600101906020018083116116f757829003601f168201915b505050505081526020016005820160009054906101000a900460ff1615151515815250509050806000015181602001518260800151836040015184606001518560a001519650965096509650965096505091939550919395565b600760003373ffffffffffffffffffffffffffffffffffffffff1673ffffffffffffffffffffffffffffffffffffffff16815260200190815260200160002060009054906101000a900460ff16156117fb576040517f08c379a00000000000000000000000000000000000000000000000000000000081526004016117f2906130b7565b60405180910390fd5b60003390506003819080600181540180825580915050600190039060005260206000200160009091909190916101000a81548173ffffffffffffffffffffffffffffffffffffffff021916908373ffffffffffffffffffffffffffffffffffffffff1602179055506001805461187191906132ba565b6001819055506001600760008373ffffffffffffffffffffffffffffffffffffffff1673ffffffffffffffffffffffffffffffffffffffff16815260200190815260200160002060006101000a81548160ff0219169083151502179055506040518060c0016040528060015481526020018581526020018481526020018273ffffffffffffffffffffffffffffffffffffffff16815260200183815260200160011515815250600560008373ffffffffffffffffffffffffffffffffffffffff1673ffffffffffffffffffffffffffffffffffffffff16815260200190815260200160002060008201518160000155602082015181600101908051906020019061197c9291906128f3565b5060408201518160020190805190602001906119999291906128f3565b5060608201518160030160006101000a81548173ffffffffffffffffffffffffffffffffffffffff021916908373ffffffffffffffffffffffffffffffffffffffff16021790555060808201518160040190805190602001906119fd9291906128f3565b5060a08201518160050160006101000a81548160ff02191690831515021790555090505050505050565b600860008273ffffffffffffffffffffffffffffffffffffffff1673ffffffffffffffffffffffffffffffffffffffff16815260200190815260200160002060003373ffffffffffffffffffffffffffffffffffffffff1673ffffffffffffffffffffffffffffffffffffffff16815260200190815260200160002060009054906101000a900460ff1615611c1057600660008273ffffffffffffffffffffffffffffffffffffffff1673ffffffffffffffffffffffffffffffffffffffff16815260200190815260200160002060009054906101000a900460ff1615611c0b57600460008273ffffffffffffffffffffffffffffffffffffffff1673ffffffffffffffffffffffffffffffffffffffff16815260200190815260200160002060060160405180608001604052808781526020018681526020018581526020018481525090806001815401808255809150506001900390600052602060002090600402016000909190919091506000820151816000019080519060200190611bb09291906128f3565b506020820151816001019080519060200190611bcd9291906128f3565b506040820151816002019080519060200190611bea9291906128f3565b506060820151816003019080519060200190611c079291906128f3565b5050505b611d87565b8073ffffffffffffffffffffffffffffffffffffffff163373ffffffffffffffffffffffffffffffffffffffff161415611d4b57600460008273ffffffffffffffffffffffffffffffffffffffff1673ffffffffffffffffffffffffffffffffffffffff16815260200190815260200160002060060160405180608001604052808781526020018681526020018581526020018481525090806001815401808255809150506001900390600052602060002090600402016000909190919091506000820151816000019080519060200190611cec9291906128f3565b506020820151816001019080519060200190611d099291906128f3565b506040820151816002019080519060200190611d269291906128f3565b506060820151816003019080519060200190611d439291906128f3565b505050611d86565b6040517f08c379a0000000000000000000000000000000000000000000000000000000008152600401611d7d90613197565b60405180910390fd5b5b5050505050565b60015481565b6000606080606060008060005b600380549050811015611e4e57876005600060038481548110611dc757611dc66134a4565b5b9060005260206000200160009054906101000a900473ffffffffffffffffffffffffffffffffffffffff1673ffffffffffffffffffffffffffffffffffffffff1673ffffffffffffffffffffffffffffffffffffffff168152602001908152602001600020600001541415611e3b57611e4e565b8080611e46906133fd565b915050611da1565b876005600060038481548110611e6757611e666134a4565b5b9060005260206000200160009054906101000a900473ffffffffffffffffffffffffffffffffffffffff1673ffffffffffffffffffffffffffffffffffffffff1673ffffffffffffffffffffffffffffffffffffffff1681526020019081526020016000206000015414611f10576040517f08c379a0000000000000000000000000000000000000000000000000000000008152600401611f07906130f7565b60405180910390fd5b60006005600060038481548110611f2a57611f296134a4565b5b9060005260206000200160009054906101000a900473ffffffffffffffffffffffffffffffffffffffff1673ffffffffffffffffffffffffffffffffffffffff1673ffffffffffffffffffffffffffffffffffffffff1681526020019081526020016000206040518060c001604052908160008201548152602001600182018054611fb49061339a565b80601f0160208091040260200160405190810160405280929190818152602001828054611fe09061339a565b801561202d5780601f106120025761010080835404028352916020019161202d565b820191906000526020600020905b81548152906001019060200180831161201057829003601f168201915b505050505081526020016002820180546120469061339a565b80601f01602080910402602001604051908101604052809291908181526020018280546120729061339a565b80156120bf5780601f10612094576101008083540402835291602001916120bf565b820191906000526020600020905b8154815290600101906020018083116120a257829003601f168201915b505050505081526020016003820160009054906101000a900473ffffffffffffffffffffffffffffffffffffffff1673ffffffffffffffffffffffffffffffffffffffff1673ffffffffffffffffffffffffffffffffffffffff16815260200160048201805461212e9061339a565b80601f016020809104026020016040519081016040528092919081815260200182805461215a9061339a565b80156121a75780601f1061217c576101008083540402835291602001916121a7565b820191906000526020600020905b81548152906001019060200180831161218a57829003601f168201915b505050505081526020016005820160009054906101000a900460ff1615151515815250509050806000015181602001518260800151836040015184606001518560a00151975097509750975097509750505091939550919395565b6060806060806060600660008773ffffffffffffffffffffffffffffffffffffffff1673ffffffffffffffffffffffffffffffffffffffff16815260200190815260200160002060009054906101000a900460ff16612296576040517f08c379a000000000000000000000000000000000000000000000000000000000815260040161228d906130d7565b60405180910390fd5b6000600460008873ffffffffffffffffffffffffffffffffffffffff1673ffffffffffffffffffffffffffffffffffffffff16815260200190815260200160002060405180610100016040529081600082015481526020016001820180546122fd9061339a565b80601f01602080910402602001604051908101604052809291908181526020018280546123299061339a565b80156123765780601f1061234b57610100808354040283529160200191612376565b820191906000526020600020905b81548152906001019060200180831161235957829003601f168201915b5050505050815260200160028201805461238f9061339a565b80601f01602080910402602001604051908101604052809291908181526020018280546123bb9061339a565b80156124085780601f106123dd57610100808354040283529160200191612408565b820191906000526020600020905b8154815290600101906020018083116123eb57829003601f168201915b505050505081526020016003820180546124219061339a565b80601f016020809104026020016040519081016040528092919081815260200182805461244d9061339a565b801561249a5780601f1061246f5761010080835404028352916020019161249a565b820191906000526020600020905b81548152906001019060200180831161247d57829003601f168201915b505050505081526020016004820180546124b39061339a565b80601f01602080910402602001604051908101604052809291908181526020018280546124df9061339a565b801561252c5780601f106125015761010080835404028352916020019161252c565b820191906000526020600020905b81548152906001019060200180831161250f57829003601f168201915b505050505081526020016005820180546125459061339a565b80601f01602080910402602001604051908101604052809291908181526020018280546125719061339a565b80156125be5780601f10612593576101008083540402835291602001916125be565b820191906000526020600020905b8154815290600101906020018083116125a157829003601f168201915b5050505050815260200160068201805480602002602001604051908101604052809291908181526020016000905b82821015612866578382906000526020600020906004020160405180608001604052908160008201805461261f9061339a565b80601f016020809104026020016040519081016040528092919081815260200182805461264b9061339a565b80156126985780601f1061266d57610100808354040283529160200191612698565b820191906000526020600020905b81548152906001019060200180831161267b57829003601f168201915b505050505081526020016001820180546126b19061339a565b80601f01602080910402602001604051908101604052809291908181526020018280546126dd9061339a565b801561272a5780601f106126ff5761010080835404028352916020019161272a565b820191906000526020600020905b81548152906001019060200180831161270d57829003601f168201915b505050505081526020016002820180546127439061339a565b80601f016020809104026020016040519081016040528092919081815260200182805461276f9061339a565b80156127bc5780601f10612791576101008083540402835291602001916127bc565b820191906000526020600020905b81548152906001019060200180831161279f57829003601f168201915b505050505081526020016003820180546127d59061339a565b80601f01602080910402602001604051908101604052809291908181526020018280546128019061339a565b801561284e5780601f106128235761010080835404028352916020019161284e565b820191906000526020600020905b81548152906001019060200180831161283157829003601f168201915b505050505081525050815260200190600101906125ec565b5050505081526020016007820160009054906101000a900473ffffffffffffffffffffffffffffffffffffffff1673ffffffffffffffffffffffffffffffffffffffff1673ffffffffffffffffffffffffffffffffffffffff1681525050905080602001518160400151826060015183608001518460a00151955095509550955095505091939590929450565b8280546128ff9061339a565b90600052602060002090601f0160209004810192826129215760008555612968565b82601f1061293a57805160ff1916838001178555612968565b82800160010185558215612968579182015b8281111561296757825182559160200191906001019061294c565b5b5090506129759190612979565b5090565b5b8082111561299257600081600090555060010161297a565b5090565b60006129a96129a48461326d565b613248565b9050828152602081018484840111156129c5576129c4613507565b5b6129d0848285613358565b509392505050565b6000813590506129e781613736565b92915050565b600082601f830112612a0257612a01613502565b5b8135612a12848260208601612996565b91505092915050565b600081359050612a2a8161374d565b92915050565b600060208284031215612a4657612a45613511565b5b6000612a54848285016129d8565b91505092915050565b60008060408385031215612a7457612a73613511565b5b6000612a82858286016129d8565b9250506020612a9385828601612a1b565b9150509250929050565b600080600060608486031215612ab657612ab5613511565b5b600084013567ffffffffffffffff811115612ad457612ad361350c565b5b612ae0868287016129ed565b935050602084013567ffffffffffffffff811115612b0157612b0061350c565b5b612b0d868287016129ed565b925050604084013567ffffffffffffffff811115612b2e57612b2d61350c565b5b612b3a868287016129ed565b9150509250925092565b600080600080600060a08688031215612b6057612b5f613511565b5b600086013567ffffffffffffffff811115612b7e57612b7d61350c565b5b612b8a888289016129ed565b955050602086013567ffffffffffffffff811115612bab57612baa61350c565b5b612bb7888289016129ed565b945050604086013567ffffffffffffffff811115612bd857612bd761350c565b5b612be4888289016129ed565b935050606086013567ffffffffffffffff811115612c0557612c0461350c565b5b612c11888289016129ed565b9250506080612c22888289016129d8565b9150509295509295909350565b600080600080600060a08688031215612c4b57612c4a613511565b5b600086013567ffffffffffffffff811115612c6957612c6861350c565b5b612c75888289016129ed565b955050602086013567ffffffffffffffff811115612c9657612c9561350c565b5b612ca2888289016129ed565b945050604086013567ffffffffffffffff811115612cc357612cc261350c565b5b612ccf888289016129ed565b935050606086013567ffffffffffffffff811115612cf057612cef61350c565b5b612cfc888289016129ed565b925050608086013567ffffffffffffffff811115612d1d57612d1c61350c565b5b612d29888289016129ed565b9150509295509295909350565b600060208284031215612d4c57612d4b613511565b5b6000612d5a84828501612a1b565b91505092915050565b612d6c81613310565b82525050565b612d7b81613322565b82525050565b6000612d8c8261329e565b612d9681856132a9565b9350612da6818560208601613367565b612daf81613516565b840191505092915050565b6000612dc76027836132a9565b9150612dd282613527565b604082019050919050565b6000612dea601e836132a9565b9150612df582613576565b602082019050919050565b6000612e0d6019836132a9565b9150612e188261359f565b602082019050919050565b6000612e306012836132a9565b9150612e3b826135c8565b602082019050919050565b6000612e536026836132a9565b9150612e5e826135f1565b604082019050919050565b6000612e766018836132a9565b9150612e8182613640565b602082019050919050565b6000612e996019836132a9565b9150612ea482613669565b602082019050919050565b6000612ebc601a836132a9565b9150612ec782613692565b602082019050919050565b6000612edf6017836132a9565b9150612eea826136bb565b602082019050919050565b6000612f02601a836132a9565b9150612f0d826136e4565b602082019050919050565b6000612f256017836132a9565b9150612f308261370d565b602082019050919050565b612f448161334e565b82525050565b6000602082019050612f5f6000830184612d63565b92915050565b6000602082019050612f7a6000830184612d72565b92915050565b60006080820190508181036000830152612f9a8187612d81565b90508181036020830152612fae8186612d81565b90508181036040830152612fc28185612d81565b90508181036060830152612fd68184612d81565b905095945050505050565b600060a0820190508181036000830152612ffb8188612d81565b9050818103602083015261300f8187612d81565b905081810360408301526130238186612d81565b905081810360608301526130378185612d81565b9050818103608083015261304b8184612d81565b90509695505050505050565b6000602082019050818103600083015261307081612dba565b9050919050565b6000602082019050818103600083015261309081612ddd565b9050919050565b600060208201905081810360008301526130b081612e00565b9050919050565b600060208201905081810360008301526130d081612e23565b9050919050565b600060208201905081810360008301526130f081612e46565b9050919050565b6000602082019050818103600083015261311081612e69565b9050919050565b6000602082019050818103600083015261313081612e8c565b9050919050565b6000602082019050818103600083015261315081612eaf565b9050919050565b6000602082019050818103600083015261317081612ed2565b9050919050565b6000602082019050818103600083015261319081612ef5565b9050919050565b600060208201905081810360008301526131b081612f18565b9050919050565b60006020820190506131cc6000830184612f3b565b92915050565b600060c0820190506131e76000830189612f3b565b81810360208301526131f98188612d81565b9050818103604083015261320d8187612d81565b905081810360608301526132218186612d81565b90506132306080830185612d63565b61323d60a0830184612d72565b979650505050505050565b6000613252613263565b905061325e82826133cc565b919050565b6000604051905090565b600067ffffffffffffffff821115613288576132876134d3565b5b61329182613516565b9050602081019050919050565b600081519050919050565b600082825260208201905092915050565b60006132c58261334e565b91506132d08361334e565b9250827fffffffffffffffffffffffffffffffffffffffffffffffffffffffffffffffff0382111561330557613304613446565b5b828201905092915050565b600061331b8261332e565b9050919050565b60008115159050919050565b600073ffffffffffffffffffffffffffffffffffffffff82169050919050565b6000819050919050565b82818337600083830152505050565b60005b8381101561338557808201518184015260208101905061336a565b83811115613394576000848401525b50505050565b600060028204905060018216806133b257607f821691505b602082108114156133c6576133c5613475565b5b50919050565b6133d582613516565b810181811067ffffffffffffffff821117156133f4576133f36134d3565b5b80604052505050565b60006134088261334e565b91507fffffffffffffffffffffffffffffffffffffffffffffffffffffffffffffffff82141561343b5761343a613446565b5b600182019050919050565b7f4e487b7100000000000000000000000000000000000000000000000000000000600052601160045260246000fd5b7f4e487b7100000000000000000000000000000000000000000000000000000000600052602260045260246000fd5b7f4e487b7100000000000000000000000000000000000000000000000000000000600052603260045260246000fd5b7f4e487b7100000000000000000000000000000000000000000000000000000000600052604160045260246000fd5b600080fd5b600080fd5b600080fd5b600080fd5b6000601f19601f8301169050919050565b7f446f63746f72206973206e6f7420417070726f766564206f7220646f65736e2760008201527f7420657869737400000000000000000000000000000000000000000000000000602082015250565b7f416c72656164792050617469656e74206163636f756e74206578697374730000600082015250565b7f596f752063616e27742072656d6f766520796f757273656c6600000000000000600082015250565b7f416c726561647920526567697374657265640000000000000000000000000000600082015250565b7f4e6f2050617469656e747320666f756e642061742074686520676976656e206160008201527f6464726573730000000000000000000000000000000000000000000000000000602082015250565b7f446f63746f7220494420646f65736e2774206578697374730000000000000000600082015250565b7f5265636f72642063616e6e6f7420626520616363657373656400000000000000600082015250565b7f55736572206973206e6f7420617574686f72697a656420796574000000000000600082015250565b7f596f752063616e6e6f742061646420796f757273656c66000000000000000000600082015250565b7f5573657220697320616c726561647920617574686f72697a6564000000000000600082015250565b7f5265636f72642063616e6e6f7420626520616464656420000000000000000000600082015250565b61373f81613310565b811461374a57600080fd5b50565b6137568161334e565b811461376157600080fd5b5056fea26469706673582212201ce82dee10e3e62b00b933648012574dea0d3c34c270ee8c5e916990d5a93a7064736f6c63430008050033",
  "immutableReferences": {},
  "source": "// SPDX-License-Identifier: MIT\n\npragma solidity >=0.4.22 <0.9.0;\npragma experimental ABIEncoderV2;\n\ncontract meDossier{\n    \n    uint256 public pindex=0;\n    uint256 public dindex=0;\n    \n    struct Records {\n    string dname;\n    string reason;\n    string visitedDate;\n    string ipfs;\n    }\n\n    struct doctor {\n        uint256 id;\n        string name;\n        string contact;\n        address addr;\n        string faculty;\n        bool isApproved;\n    }\n    \n    struct patient{\n        uint256 id;\n        string name;\n        string phone;\n        string gender;\n        string dob;\n        string bloodgroup;\n        Records[] records;\n        address addr;\n    }\n\n    address[] private patientList;\n    address[] public doctorList;\n\n    mapping(address=>patient) patients;\n    mapping(address=>doctor) doctors;\n    mapping(address=>bool) isPatient;\n    mapping(address=>bool) isDoctor;\n\n    mapping(address=>mapping(address=>bool)) Authorized;\n\n   \n    function addRecord(string memory _dname,string memory _reason,string memory _visitedDate,string memory _ipfs, address addr) public{\n        \n        if(Authorized[addr][msg.sender]){\n            if(isPatient[addr]){\n                patients[addr].records.push(Records(_dname,_reason,_visitedDate,_ipfs));\n            }\n        }\n        else if( msg.sender == addr){\n            patients[addr].records.push(Records(_dname,_reason,_visitedDate,_ipfs));\n        }\n        else \n        revert(\"Record cannot be added \");\n       \n       \n        // require(Authorized[addr][msg.sender],\"You do not have permission to add records!\");\n        // require(isPatient[addr],\"User Not registered\");\n        // patients[addr].records.push(Records(_dname,_reason,_visitedDate,_ipfs));\n    }\n    \n    function addPatient(string memory _name,string memory _phone,string memory _gender,string memory _dob,string memory _bloodgroup) public {\n        require(!isPatient[msg.sender],\"Already Patient account exists\");\n        patientList.push(msg.sender);\n        pindex = pindex + 1;\n        isPatient[msg.sender]=true;\n        patients[msg.sender].id=pindex;\n        patients[msg.sender].name=_name;\n        patients[msg.sender].phone=_phone;\n        patients[msg.sender].gender=_gender;\n        patients[msg.sender].dob=_dob;\n        patients[msg.sender].bloodgroup=_bloodgroup;\n        patients[msg.sender].addr=msg.sender;\n        \n    }\n    \n    function getPatientDetails(address _addr) public view returns(string memory _name,string memory _phone,string memory _gender,string memory _dob,string memory _bloodgroup){\n        require(isPatient[_addr],\"No Patients found at the given address\");\n        patient memory pat = patients[_addr];\n        return (pat.name,pat.phone,pat.gender,pat.dob,pat.bloodgroup);\n    }\n    \n     \n     function getrecordlist(address _addr)  public view returns (uint256 ){\n     \n     return (patients[_addr].records.length);\n     }\n    \n    function getPatientRecords(address _addr, uint256 _id) public view \n    returns(string memory dname, string memory reason ,string memory visitedDate, string memory ipfs){\n        if(Authorized[_addr][msg.sender]){\n            if(isPatient[_addr]){\n                return( patients[_addr].records[_id].dname,patients[_addr].records[_id].reason,\n                patients[_addr].records[_id].visitedDate,patients[_addr].records[_id].ipfs\n                    );\n            }\n        }\n        else if (msg.sender == _addr){\n            return( patients[_addr].records[_id].dname,patients[_addr].records[_id].reason,\n                patients[_addr].records[_id].visitedDate,patients[_addr].records[_id].ipfs\n                    );\n            \n        }\n        else \n        revert(\"Record cannot be accessed\");\n    }\n\n\n    function addDoctor(string memory _name,string memory _contact,string memory _faculty) public {\n        require(!isDoctor[msg.sender],\"Already Registered\");\n        address _addr = msg.sender;\n        doctorList.push(_addr);\n    \n        dindex = dindex + 1;\n        isDoctor[_addr]=true;\n        doctors[_addr]=doctor(dindex,_name,_contact,_addr,_faculty,true);\n    }\n    \n    function getDoctorbyId(uint256 _id) public view returns(uint256 id,string memory name ,string memory faculty, string memory contact ,address addr,bool isApproved)  {\n        uint256 i=0;\n        for(i = 0;i<doctorList.length;i++){\n        if(doctors[doctorList[i]].id==_id){\n            break;\n        }\n    }    \n        require(doctors[doctorList[i]].id==_id,\"Doctor ID doesn't exists\");\n        doctor memory doc = doctors[doctorList[i]];\n        return (doc.id,doc.name, doc.faculty,doc.contact,doc.addr,doc.isApproved);\n    }\n    \n\n    function getDoctorByAddress(address _address) public view returns(uint256 id,string memory name, string memory faculty,string memory contact ,address addr,bool isApproved) {\n        require(doctors[_address].isApproved,\"Doctor is not Approved or doesn't exist\");\n        doctor memory doc = doctors[_address];\n        return (doc.id,doc.name,doc.faculty,doc.contact,doc.addr,doc.isApproved);\n    }  \n\n//Give access to certain address\n    function grantAccess(address _addr) public returns (bool success)\n    {   require(msg.sender != _addr,\"You cannot add yourself\");\n        require(!Authorized[msg.sender][_addr],\"User is already authorized\");\n        Authorized[msg.sender][_addr] = true;\n        return true;\n    }\n\n//Revoke access of patient records fromcertain address\n      function revoke_access(address _addr)  public returns (bool success){\n        require(msg.sender!=_addr,\"You can't remove yourself\");\n        require(Authorized[msg.sender][_addr],\"User is not authorized yet\");\n        Authorized[msg.sender][_addr] = false;\n        return true;\n    }\n    \n\n}",
  "sourcePath": "/home/anu/Blockchain/Assignments/Blockchain/contracts/Medossier.sol",
  "compiler": {
    "name": "solc",
    "version": "0.8.5+commit.a4f2e591.Emscripten.clang"
  },
  "schemaVersion": "3.4.0",
  "updatedAt": "2021-06-14T06:25:31.265Z",
  "devdoc": {
    "kind": "dev",
    "methods": {},
    "version": 1
  },
  "userdoc": {
    "kind": "user",
    "methods": {},
    "version": 1
  }
}