{
  "contractName": "meDossier",
  "abi": [
    {
      "inputs": [],
      "stateMutability": "nonpayable",
      "type": "constructor"
    },
    {
      "inputs": [],
      "name": "dindex",
      "outputs": [
        {
          "internalType": "uint256",
          "name": "",
          "type": "uint256"
        }
      ],
      "stateMutability": "view",
      "type": "function",
      "constant": true
    },
    {
      "inputs": [
        {
          "internalType": "uint256",
          "name": "",
          "type": "uint256"
        }
      ],
      "name": "doctorList",
      "outputs": [
        {
          "internalType": "address",
          "name": "",
          "type": "address"
        }
      ],
      "stateMutability": "view",
      "type": "function",
      "constant": true
    },
    {
      "inputs": [],
      "name": "owner",
      "outputs": [
        {
          "internalType": "address",
          "name": "",
          "type": "address"
        }
      ],
      "stateMutability": "view",
      "type": "function",
      "constant": true
    },
    {
      "inputs": [],
      "name": "pindex",
      "outputs": [
        {
          "internalType": "uint256",
          "name": "",
          "type": "uint256"
        }
      ],
      "stateMutability": "view",
      "type": "function",
      "constant": true
    },
    {
      "inputs": [
        {
          "internalType": "uint256",
          "name": "",
          "type": "uint256"
        }
      ],
      "name": "registeredDoctorList",
      "outputs": [
        {
          "internalType": "uint256",
          "name": "",
          "type": "uint256"
        }
      ],
      "stateMutability": "view",
      "type": "function",
      "constant": true
    },
    {
      "inputs": [
        {
          "internalType": "address",
          "name": "addr",
          "type": "address"
        }
      ],
      "name": "user",
      "outputs": [
        {
          "internalType": "int256",
          "name": "success",
          "type": "int256"
        }
      ],
      "stateMutability": "view",
      "type": "function",
      "constant": true
    },
    {
      "inputs": [
        {
          "internalType": "string",
          "name": "_name",
          "type": "string"
        },
        {
          "internalType": "string",
          "name": "_phone",
          "type": "string"
        },
        {
          "internalType": "string",
          "name": "_gender",
          "type": "string"
        },
        {
          "internalType": "string",
          "name": "_dob",
          "type": "string"
        },
        {
          "internalType": "string",
          "name": "_bloodgroup",
          "type": "string"
        }
      ],
      "name": "addPatient",
      "outputs": [],
      "stateMutability": "nonpayable",
      "type": "function"
    },
    {
      "inputs": [
        {
          "internalType": "address",
          "name": "_addr",
          "type": "address"
        }
      ],
      "name": "getPatientDetails",
      "outputs": [
        {
          "internalType": "string",
          "name": "_name",
          "type": "string"
        },
        {
          "internalType": "string",
          "name": "_phone",
          "type": "string"
        },
        {
          "internalType": "string",
          "name": "_gender",
          "type": "string"
        },
        {
          "internalType": "string",
          "name": "_dob",
          "type": "string"
        },
        {
          "internalType": "string",
          "name": "_bloodgroup",
          "type": "string"
        }
      ],
      "stateMutability": "view",
      "type": "function",
      "constant": true
    },
    {
      "inputs": [
        {
          "internalType": "string",
          "name": "docname",
          "type": "string"
        },
        {
          "internalType": "uint256",
          "name": "license",
          "type": "uint256"
        }
      ],
      "name": "registerDoctor",
      "outputs": [],
      "stateMutability": "nonpayable",
      "type": "function"
    },
    {
      "inputs": [
        {
          "internalType": "address",
          "name": "addr",
          "type": "address"
        }
      ],
      "name": "isRegistered",
      "outputs": [
        {
          "internalType": "bool",
          "name": "success",
          "type": "bool"
        }
      ],
      "stateMutability": "view",
      "type": "function",
      "constant": true
    },
    {
      "inputs": [
        {
          "internalType": "string",
          "name": "_name",
          "type": "string"
        },
        {
          "internalType": "string",
          "name": "_hname",
          "type": "string"
        },
        {
          "internalType": "string",
          "name": "_faculty",
          "type": "string"
        },
        {
          "internalType": "string",
          "name": "_contact",
          "type": "string"
        },
        {
          "internalType": "uint256",
          "name": "license",
          "type": "uint256"
        }
      ],
      "name": "addDoctor",
      "outputs": [],
      "stateMutability": "nonpayable",
      "type": "function"
    },
    {
      "inputs": [],
      "name": "getdoctorlist",
      "outputs": [
        {
          "internalType": "uint256",
          "name": "",
          "type": "uint256"
        }
      ],
      "stateMutability": "view",
      "type": "function",
      "constant": true
    },
    {
      "inputs": [
        {
          "internalType": "uint256",
          "name": "_id",
          "type": "uint256"
        }
      ],
      "name": "getDoctorbyId",
      "outputs": [
        {
          "internalType": "uint256",
          "name": "id",
          "type": "uint256"
        },
        {
          "internalType": "string",
          "name": "name",
          "type": "string"
        },
        {
          "internalType": "string",
          "name": "contact",
          "type": "string"
        },
        {
          "internalType": "string",
          "name": "hname",
          "type": "string"
        },
        {
          "internalType": "string",
          "name": "faculty",
          "type": "string"
        },
        {
          "internalType": "address",
          "name": "addr",
          "type": "address"
        },
        {
          "internalType": "bool",
          "name": "isApproved",
          "type": "bool"
        },
        {
          "internalType": "uint256",
          "name": "licenseno",
          "type": "uint256"
        }
      ],
      "stateMutability": "view",
      "type": "function",
      "constant": true
    },
    {
      "inputs": [
        {
          "internalType": "string",
          "name": "_name",
          "type": "string"
        }
      ],
      "name": "getDoctorbyName",
      "outputs": [
        {
          "internalType": "uint256",
          "name": "id",
          "type": "uint256"
        },
        {
          "internalType": "string",
          "name": "name",
          "type": "string"
        },
        {
          "internalType": "string",
          "name": "contact",
          "type": "string"
        },
        {
          "internalType": "string",
          "name": "hname",
          "type": "string"
        },
        {
          "internalType": "string",
          "name": "faculty",
          "type": "string"
        },
        {
          "internalType": "address",
          "name": "addr",
          "type": "address"
        },
        {
          "internalType": "bool",
          "name": "isApproved",
          "type": "bool"
        },
        {
          "internalType": "uint256",
          "name": "licenseno",
          "type": "uint256"
        }
      ],
      "stateMutability": "view",
      "type": "function",
      "constant": true
    },
    {
      "inputs": [
        {
          "internalType": "address",
          "name": "_address",
          "type": "address"
        }
      ],
      "name": "getDoctorByAddress",
      "outputs": [
        {
          "internalType": "uint256",
          "name": "id",
          "type": "uint256"
        },
        {
          "internalType": "string",
          "name": "name",
          "type": "string"
        },
        {
          "internalType": "string",
          "name": "contact",
          "type": "string"
        },
        {
          "internalType": "string",
          "name": "hname",
          "type": "string"
        },
        {
          "internalType": "string",
          "name": "faculty",
          "type": "string"
        },
        {
          "internalType": "address",
          "name": "addr",
          "type": "address"
        },
        {
          "internalType": "bool",
          "name": "isApproved",
          "type": "bool"
        },
        {
          "internalType": "uint256",
          "name": "licenseno",
          "type": "uint256"
        }
      ],
      "stateMutability": "view",
      "type": "function",
      "constant": true
    },
    {
      "inputs": [
        {
          "internalType": "address",
          "name": "pat",
          "type": "address"
        },
        {
          "internalType": "address",
          "name": "client",
          "type": "address"
        }
      ],
      "name": "isAuthorized",
      "outputs": [
        {
          "internalType": "bool",
          "name": "success",
          "type": "bool"
        }
      ],
      "stateMutability": "view",
      "type": "function",
      "constant": true
    },
    {
      "inputs": [
        {
          "internalType": "string",
          "name": "_dname",
          "type": "string"
        },
        {
          "internalType": "string",
          "name": "_reason",
          "type": "string"
        },
        {
          "internalType": "string",
          "name": "_visitedDate",
          "type": "string"
        },
        {
          "internalType": "string",
          "name": "_ipfs",
          "type": "string"
        },
        {
          "internalType": "address",
          "name": "addr",
          "type": "address"
        }
      ],
      "name": "addRecord",
      "outputs": [],
      "stateMutability": "nonpayable",
      "type": "function"
    },
    {
      "inputs": [
        {
          "internalType": "address",
          "name": "_addr",
          "type": "address"
        }
      ],
      "name": "getrecordlist",
      "outputs": [
        {
          "internalType": "uint256",
          "name": "",
          "type": "uint256"
        }
      ],
      "stateMutability": "view",
      "type": "function",
      "constant": true
    },
    {
      "inputs": [
        {
          "internalType": "address",
          "name": "_addr",
          "type": "address"
        },
        {
          "internalType": "uint256",
          "name": "_id",
          "type": "uint256"
        }
      ],
      "name": "getPatientRecords",
      "outputs": [
        {
          "internalType": "string",
          "name": "dname",
          "type": "string"
        },
        {
          "internalType": "string",
          "name": "reason",
          "type": "string"
        },
        {
          "internalType": "string",
          "name": "visitedDate",
          "type": "string"
        },
        {
          "internalType": "string",
          "name": "ipfs",
          "type": "string"
        }
      ],
      "stateMutability": "view",
      "type": "function",
      "constant": true
    },
    {
      "inputs": [
        {
          "internalType": "address",
          "name": "_addr",
          "type": "address"
        }
      ],
      "name": "grantAccess",
      "outputs": [
        {
          "internalType": "bool",
          "name": "success",
          "type": "bool"
        }
      ],
      "stateMutability": "nonpayable",
      "type": "function"
    },
    {
      "inputs": [
        {
          "internalType": "address",
          "name": "_addr",
          "type": "address"
        }
      ],
      "name": "revoke_access",
      "outputs": [
        {
          "internalType": "bool",
          "name": "success",
          "type": "bool"
        }
      ],
      "stateMutability": "nonpayable",
      "type": "function"
    }
  ],
  "bytecode": "0x608060405260008055600060015534801561001957600080fd5b5033600560006101000a81548173ffffffffffffffffffffffffffffffffffffffff021916908373ffffffffffffffffffffffffffffffffffffffff1602179055506149748061006a6000396000f3fe608060405234801561001057600080fd5b50600436106101375760003560e01c80635ad910ef116100b857806391d4eb861161007c57806391d4eb8614610390578063928ed9da146103c7578063abec773d146103e5578063b2861ea914610415578063c3c5a5471461044c578063efe2ccc11461047c57610137565b80635ad910ef146102d857806365e4ad9e146102f657806370333b801461032657806381e7e20e146103425780638da5cb5b1461037257610137565b80632874a75f116100ff5780632874a75f14610218578063312625f81461024b5780635658e43b1461026757806356fa82171461028557806358c5d4bf146102a157610137565b80630ae5e7391461013c578063127ca4b41461016c578063136bd1481461019c578063248c6a31146101b857806327b1dcee146101e8575b600080fd5b610156600480360381019061015191906136a6565b6104b0565b6040516101639190613ea0565b60405180910390f35b61018660048036038101906101819190613ad5565b610715565b6040516101939190613e85565b60405180910390f35b6101b660048036038101906101b19190613a79565b610754565b005b6101d260048036038101906101cd91906136a6565b610859565b6040516101df91906141ad565b60405180910390f35b61020260048036038101906101fd91906136a6565b6108a8565b60405161020f9190613ea0565b60405180910390f35b610232600480360381019061022d9190613713565b610a80565b6040516102429493929190613ed6565b60405180910390f35b6102656004803603810190610260919061398e565b610fec565b005b61026f611526565b60405161027c91906141ad565b60405180910390f35b61029f600480360381019061029a9190613887565b61152c565b005b6102bb60048036038101906102b691906136a6565b611953565b6040516102cf9897969594939291906141c8565b60405180910390f35b6102e0611d4f565b6040516102ed91906141ad565b60405180910390f35b610310600480360381019061030b91906136d3565b611d5c565b60405161031d9190613ea0565b60405180910390f35b610340600480360381019061033b919061379c565b611df0565b005b61035c600480360381019061035791906136a6565b61208a565b6040516103699190613ebb565b60405180910390f35b61037a6121b9565b6040516103879190613e85565b60405180910390f35b6103aa60048036038101906103a59190613753565b6121df565b6040516103be9897969594939291906141c8565b60405180910390f35b6103cf61273a565b6040516103dc91906141ad565b60405180910390f35b6103ff60048036038101906103fa9190613ad5565b612740565b60405161040c91906141ad565b60405180910390f35b61042f600480360381019061042a9190613ad5565b612764565b6040516104439897969594939291906141c8565b60405180910390f35b610466600480360381019061046191906136a6565b612b0e565b6040516104739190613ea0565b60405180910390f35b610496600480360381019061049191906136a6565b612e78565b6040516104a7959493929190613f37565b60405180910390f35b60008173ffffffffffffffffffffffffffffffffffffffff163373ffffffffffffffffffffffffffffffffffffffff161415610521576040517f08c379a0000000000000000000000000000000000000000000000000000000008152600401610518906140cd565b60405180910390fd5b600960008373ffffffffffffffffffffffffffffffffffffffff1673ffffffffffffffffffffffffffffffffffffffff16815260200190815260200160002060009054906101000a900460ff166105ad576040517f08c379a00000000000000000000000000000000000000000000000000000000081526004016105a49061406d565b60405180910390fd5b600a60003373ffffffffffffffffffffffffffffffffffffffff1673ffffffffffffffffffffffffffffffffffffffff16815260200190815260200160002060008373ffffffffffffffffffffffffffffffffffffffff1673ffffffffffffffffffffffffffffffffffffffff16815260200190815260200160002060009054906101000a900460ff1615610677576040517f08c379a000000000000000000000000000000000000000000000000000000000815260040161066e9061410d565b60405180910390fd5b6001600a60003373ffffffffffffffffffffffffffffffffffffffff1673ffffffffffffffffffffffffffffffffffffffff16815260200190815260200160002060008473ffffffffffffffffffffffffffffffffffffffff1673ffffffffffffffffffffffffffffffffffffffff16815260200190815260200160002060006101000a81548160ff02191690831515021790555060019050919050565b6003818154811061072557600080fd5b906000526020600020016000915054906101000a900473ffffffffffffffffffffffffffffffffffffffff1681565b600560009054906101000a900473ffffffffffffffffffffffffffffffffffffffff1673ffffffffffffffffffffffffffffffffffffffff163373ffffffffffffffffffffffffffffffffffffffff16146107e4576040517f08c379a00000000000000000000000000000000000000000000000000000000081526004016107db9061416d565b60405180910390fd5b6001600b836040516107f69190613e6e565b9081526020016040518091039020600083815260200190815260200160002060006101000a81548160ff02191690831515021790555060048190806001815401808255809150506001900390600052602060002001600090919091909150555050565b6000600660008373ffffffffffffffffffffffffffffffffffffffff1673ffffffffffffffffffffffffffffffffffffffff168152602001908152602001600020600601805490509050919050565b60008173ffffffffffffffffffffffffffffffffffffffff163373ffffffffffffffffffffffffffffffffffffffff161415610919576040517f08c379a00000000000000000000000000000000000000000000000000000000081526004016109109061400d565b60405180910390fd5b600a60003373ffffffffffffffffffffffffffffffffffffffff1673ffffffffffffffffffffffffffffffffffffffff16815260200190815260200160002060008373ffffffffffffffffffffffffffffffffffffffff1673ffffffffffffffffffffffffffffffffffffffff16815260200190815260200160002060009054906101000a900460ff166109e2576040517f08c379a00000000000000000000000000000000000000000000000000000000081526004016109d9906140ad565b60405180910390fd5b6000600a60003373ffffffffffffffffffffffffffffffffffffffff1673ffffffffffffffffffffffffffffffffffffffff16815260200190815260200160002060008473ffffffffffffffffffffffffffffffffffffffff1673ffffffffffffffffffffffffffffffffffffffff16815260200190815260200160002060006101000a81548160ff02191690831515021790555060019050919050565b606080606080600860008773ffffffffffffffffffffffffffffffffffffffff1673ffffffffffffffffffffffffffffffffffffffff16815260200190815260200160002060009054906101000a900460ff16610b12576040517f08c379a0000000000000000000000000000000000000000000000000000000008152600401610b09906140ed565b60405180910390fd5b600a60008773ffffffffffffffffffffffffffffffffffffffff1673ffffffffffffffffffffffffffffffffffffffff16815260200190815260200160002060003373ffffffffffffffffffffffffffffffffffffffff1673ffffffffffffffffffffffffffffffffffffffff16815260200190815260200160002060009054906101000a900460ff1680610bd257508573ffffffffffffffffffffffffffffffffffffffff163373ffffffffffffffffffffffffffffffffffffffff16145b15610fa857600660008773ffffffffffffffffffffffffffffffffffffffff1673ffffffffffffffffffffffffffffffffffffffff1681526020019081526020016000206006018581548110610c2b57610c2a6144f3565b5b9060005260206000209060040201600001600660008873ffffffffffffffffffffffffffffffffffffffff1673ffffffffffffffffffffffffffffffffffffffff1681526020019081526020016000206006018681548110610c9057610c8f6144f3565b5b9060005260206000209060040201600101600660008973ffffffffffffffffffffffffffffffffffffffff1673ffffffffffffffffffffffffffffffffffffffff1681526020019081526020016000206006018781548110610cf557610cf46144f3565b5b9060005260206000209060040201600201600660008a73ffffffffffffffffffffffffffffffffffffffff1673ffffffffffffffffffffffffffffffffffffffff1681526020019081526020016000206006018881548110610d5a57610d596144f3565b5b9060005260206000209060040201600301838054610d77906143e9565b80601f0160208091040260200160405190810160405280929190818152602001828054610da3906143e9565b8015610df05780601f10610dc557610100808354040283529160200191610df0565b820191906000526020600020905b815481529060010190602001808311610dd357829003601f168201915b50505050509350828054610e03906143e9565b80601f0160208091040260200160405190810160405280929190818152602001828054610e2f906143e9565b8015610e7c5780601f10610e5157610100808354040283529160200191610e7c565b820191906000526020600020905b815481529060010190602001808311610e5f57829003601f168201915b50505050509250818054610e8f906143e9565b80601f0160208091040260200160405190810160405280929190818152602001828054610ebb906143e9565b8015610f085780601f10610edd57610100808354040283529160200191610f08565b820191906000526020600020905b815481529060010190602001808311610eeb57829003601f168201915b50505050509150808054610f1b906143e9565b80601f0160208091040260200160405190810160405280929190818152602001828054610f47906143e9565b8015610f945780601f10610f6957610100808354040283529160200191610f94565b820191906000526020600020905b815481529060010190602001808311610f7757829003601f168201915b505050505090509350935093509350610fe3565b6040517f08c379a0000000000000000000000000000000000000000000000000000000008152600401610fda9061408d565b60405180910390fd5b92959194509250565b600960003373ffffffffffffffffffffffffffffffffffffffff1673ffffffffffffffffffffffffffffffffffffffff16815260200190815260200160002060009054906101000a900460ff1615611079576040517f08c379a00000000000000000000000000000000000000000000000000000000081526004016110709061402d565b60405180910390fd5b600560009054906101000a900473ffffffffffffffffffffffffffffffffffffffff1673ffffffffffffffffffffffffffffffffffffffff163373ffffffffffffffffffffffffffffffffffffffff16141561110a576040517f08c379a000000000000000000000000000000000000000000000000000000000815260040161110190613fed565b60405180910390fd5b600b8560405161111a9190613e6e565b9081526020016040518091039020600082815260200190815260200160002060009054906101000a900460ff16611186576040517f08c379a000000000000000000000000000000000000000000000000000000000815260040161117d9061418d565b60405180910390fd5b600085511161119457600080fd5b60008451116111a257600080fd5b60008351116111b057600080fd5b60008251116111be57600080fd5b600081116111cb57600080fd5b60003390506003819080600181540180825580915050600190039060005260206000200160009091909190916101000a81548173ffffffffffffffffffffffffffffffffffffffff021916908373ffffffffffffffffffffffffffffffffffffffff1602179055506001805461124191906142ff565b6001819055506001600960008373ffffffffffffffffffffffffffffffffffffffff1673ffffffffffffffffffffffffffffffffffffffff16815260200190815260200160002060006101000a81548160ff02191690831515021790555085600760008373ffffffffffffffffffffffffffffffffffffffff1673ffffffffffffffffffffffffffffffffffffffff16815260200190815260200160002060010190805190602001906112f5929190613569565b5082600760008373ffffffffffffffffffffffffffffffffffffffff1673ffffffffffffffffffffffffffffffffffffffff168152602001908152602001600020600201908051906020019061134c929190613569565b5084600760008373ffffffffffffffffffffffffffffffffffffffff1673ffffffffffffffffffffffffffffffffffffffff16815260200190815260200160002060030190805190602001906113a3929190613569565b5083600760008373ffffffffffffffffffffffffffffffffffffffff1673ffffffffffffffffffffffffffffffffffffffff16815260200190815260200160002060040190805190602001906113fa929190613569565b5080600760008373ffffffffffffffffffffffffffffffffffffffff1673ffffffffffffffffffffffffffffffffffffffff16815260200190815260200160002060050160006101000a81548173ffffffffffffffffffffffffffffffffffffffff021916908373ffffffffffffffffffffffffffffffffffffffff16021790555081600760008373ffffffffffffffffffffffffffffffffffffffff1673ffffffffffffffffffffffffffffffffffffffff168152602001908152602001600020600601819055506001600760008373ffffffffffffffffffffffffffffffffffffffff1673ffffffffffffffffffffffffffffffffffffffff16815260200190815260200160002060070160006101000a81548160ff021916908315150217905550505050505050565b60005481565b600860003373ffffffffffffffffffffffffffffffffffffffff1673ffffffffffffffffffffffffffffffffffffffff16815260200190815260200160002060009054906101000a900460ff16156115b9576040517f08c379a00000000000000000000000000000000000000000000000000000000081526004016115b090613fcd565b60405180910390fd5b60008551116115c757600080fd5b60008451116115d557600080fd5b60008351116115e357600080fd5b60008251116115f157600080fd5b60008151116115ff57600080fd5b6002339080600181540180825580915050600190039060005260206000200160009091909190916101000a81548173ffffffffffffffffffffffffffffffffffffffff021916908373ffffffffffffffffffffffffffffffffffffffff160217905550600160005461167191906142ff565b6000819055506001600860003373ffffffffffffffffffffffffffffffffffffffff1673ffffffffffffffffffffffffffffffffffffffff16815260200190815260200160002060006101000a81548160ff021916908315150217905550600054600660003373ffffffffffffffffffffffffffffffffffffffff1673ffffffffffffffffffffffffffffffffffffffff1681526020019081526020016000206000018190555084600660003373ffffffffffffffffffffffffffffffffffffffff1673ffffffffffffffffffffffffffffffffffffffff168152602001908152602001600020600101908051906020019061176e929190613569565b5083600660003373ffffffffffffffffffffffffffffffffffffffff1673ffffffffffffffffffffffffffffffffffffffff16815260200190815260200160002060020190805190602001906117c5929190613569565b5082600660003373ffffffffffffffffffffffffffffffffffffffff1673ffffffffffffffffffffffffffffffffffffffff168152602001908152602001600020600301908051906020019061181c929190613569565b5081600660003373ffffffffffffffffffffffffffffffffffffffff1673ffffffffffffffffffffffffffffffffffffffff1681526020019081526020016000206004019080519060200190611873929190613569565b5080600660003373ffffffffffffffffffffffffffffffffffffffff1673ffffffffffffffffffffffffffffffffffffffff16815260200190815260200160002060050190805190602001906118ca929190613569565b5033600660003373ffffffffffffffffffffffffffffffffffffffff1673ffffffffffffffffffffffffffffffffffffffff16815260200190815260200160002060070160006101000a81548173ffffffffffffffffffffffffffffffffffffffff021916908373ffffffffffffffffffffffffffffffffffffffff1602179055505050505050565b60006060806060806000806000600760008a73ffffffffffffffffffffffffffffffffffffffff1673ffffffffffffffffffffffffffffffffffffffff16815260200190815260200160002060070160009054906101000a900460ff166119ef576040517f08c379a00000000000000000000000000000000000000000000000000000000081526004016119e690613fad565b60405180910390fd5b6000600760008b73ffffffffffffffffffffffffffffffffffffffff1673ffffffffffffffffffffffffffffffffffffffff1681526020019081526020016000206040518061010001604052908160008201548152602001600182018054611a56906143e9565b80601f0160208091040260200160405190810160405280929190818152602001828054611a82906143e9565b8015611acf5780601f10611aa457610100808354040283529160200191611acf565b820191906000526020600020905b815481529060010190602001808311611ab257829003601f168201915b50505050508152602001600282018054611ae8906143e9565b80601f0160208091040260200160405190810160405280929190818152602001828054611b14906143e9565b8015611b615780601f10611b3657610100808354040283529160200191611b61565b820191906000526020600020905b815481529060010190602001808311611b4457829003601f168201915b50505050508152602001600382018054611b7a906143e9565b80601f0160208091040260200160405190810160405280929190818152602001828054611ba6906143e9565b8015611bf35780601f10611bc857610100808354040283529160200191611bf3565b820191906000526020600020905b815481529060010190602001808311611bd657829003601f168201915b50505050508152602001600482018054611c0c906143e9565b80601f0160208091040260200160405190810160405280929190818152602001828054611c38906143e9565b8015611c855780601f10611c5a57610100808354040283529160200191611c85565b820191906000526020600020905b815481529060010190602001808311611c6857829003601f168201915b505050505081526020016005820160009054906101000a900473ffffffffffffffffffffffffffffffffffffffff1673ffffffffffffffffffffffffffffffffffffffff1673ffffffffffffffffffffffffffffffffffffffff168152602001600682015481526020016007820160009054906101000a900460ff1615151515815250509050806000015181602001518260400151836060015184608001518560a001518660e001518760c001519850985098509850985098509850985050919395975091939597565b6000600380549050905090565b6000600a60008473ffffffffffffffffffffffffffffffffffffffff1673ffffffffffffffffffffffffffffffffffffffff16815260200190815260200160002060008373ffffffffffffffffffffffffffffffffffffffff1673ffffffffffffffffffffffffffffffffffffffff16815260200190815260200160002060009054906101000a900460ff16905092915050565b600860008273ffffffffffffffffffffffffffffffffffffffff1673ffffffffffffffffffffffffffffffffffffffff16815260200190815260200160002060009054906101000a900460ff16611e7c576040517f08c379a0000000000000000000000000000000000000000000000000000000008152600401611e73906140ed565b60405180910390fd5b600a60008273ffffffffffffffffffffffffffffffffffffffff1673ffffffffffffffffffffffffffffffffffffffff16815260200190815260200160002060003373ffffffffffffffffffffffffffffffffffffffff1673ffffffffffffffffffffffffffffffffffffffff16815260200190815260200160002060009054906101000a900460ff1680611f3c57508073ffffffffffffffffffffffffffffffffffffffff163373ffffffffffffffffffffffffffffffffffffffff16145b1561204857600660008273ffffffffffffffffffffffffffffffffffffffff1673ffffffffffffffffffffffffffffffffffffffff16815260200190815260200160002060060160405180608001604052808781526020018681526020018581526020018481525090806001815401808255809150506001900390600052602060002090600402016000909190919091506000820151816000019080519060200190611fe9929190613569565b506020820151816001019080519060200190612006929190613569565b506040820151816002019080519060200190612023929190613569565b506060820151816003019080519060200190612040929190613569565b505050612083565b6040517f08c379a000000000000000000000000000000000000000000000000000000000815260040161207a9061414d565b60405180910390fd5b5050505050565b600060011515600960008473ffffffffffffffffffffffffffffffffffffffff1673ffffffffffffffffffffffffffffffffffffffff16815260200190815260200160002060009054906101000a900460ff16151514156120ee57600090506121b4565b60011515600860008473ffffffffffffffffffffffffffffffffffffffff1673ffffffffffffffffffffffffffffffffffffffff16815260200190815260200160002060009054906101000a900460ff161515141561215057600190506121b4565b600560009054906101000a900473ffffffffffffffffffffffffffffffffffffffff1673ffffffffffffffffffffffffffffffffffffffff168273ffffffffffffffffffffffffffffffffffffffff1614156121af57600290506121b4565b600390505b919050565b600560009054906101000a900473ffffffffffffffffffffffffffffffffffffffff1681565b600060608060608060008060008060009050600090505b6003805490508110156122be5789805190602001206007600060038481548110612223576122226144f3565b5b9060005260206000200160009054906101000a900473ffffffffffffffffffffffffffffffffffffffff1673ffffffffffffffffffffffffffffffffffffffff1673ffffffffffffffffffffffffffffffffffffffff1681526020019081526020016000206001016040516122989190613e57565b604051809103902014156122ab576122be565b80806122b69061444c565b9150506121f6565b898051906020012060076000600384815481106122de576122dd6144f3565b5b9060005260206000200160009054906101000a900473ffffffffffffffffffffffffffffffffffffffff1673ffffffffffffffffffffffffffffffffffffffff1673ffffffffffffffffffffffffffffffffffffffff1681526020019081526020016000206001016040516123539190613e57565b60405180910390201461239b576040517f08c379a00000000000000000000000000000000000000000000000000000000081526004016123929061412d565b60405180910390fd5b600060076000600384815481106123b5576123b46144f3565b5b9060005260206000200160009054906101000a900473ffffffffffffffffffffffffffffffffffffffff1673ffffffffffffffffffffffffffffffffffffffff1673ffffffffffffffffffffffffffffffffffffffff1681526020019081526020016000206040518061010001604052908160008201548152602001600182018054612440906143e9565b80601f016020809104026020016040519081016040528092919081815260200182805461246c906143e9565b80156124b95780601f1061248e576101008083540402835291602001916124b9565b820191906000526020600020905b81548152906001019060200180831161249c57829003601f168201915b505050505081526020016002820180546124d2906143e9565b80601f01602080910402602001604051908101604052809291908181526020018280546124fe906143e9565b801561254b5780601f106125205761010080835404028352916020019161254b565b820191906000526020600020905b81548152906001019060200180831161252e57829003601f168201915b50505050508152602001600382018054612564906143e9565b80601f0160208091040260200160405190810160405280929190818152602001828054612590906143e9565b80156125dd5780601f106125b2576101008083540402835291602001916125dd565b820191906000526020600020905b8154815290600101906020018083116125c057829003601f168201915b505050505081526020016004820180546125f6906143e9565b80601f0160208091040260200160405190810160405280929190818152602001828054612622906143e9565b801561266f5780601f106126445761010080835404028352916020019161266f565b820191906000526020600020905b81548152906001019060200180831161265257829003601f168201915b505050505081526020016005820160009054906101000a900473ffffffffffffffffffffffffffffffffffffffff1673ffffffffffffffffffffffffffffffffffffffff1673ffffffffffffffffffffffffffffffffffffffff168152602001600682015481526020016007820160009054906101000a900460ff1615151515815250509050806000015181602001518260400151836060015184608001518560a001518660e001518760c00151995099509950995099509950995099505050919395975091939597565b60015481565b6004818154811061275057600080fd5b906000526020600020016000915090505481565b60006060806060806000806000806007600060038c8154811061278a576127896144f3565b5b9060005260206000200160009054906101000a900473ffffffffffffffffffffffffffffffffffffffff1673ffffffffffffffffffffffffffffffffffffffff1673ffffffffffffffffffffffffffffffffffffffff1681526020019081526020016000206040518061010001604052908160008201548152602001600182018054612815906143e9565b80601f0160208091040260200160405190810160405280929190818152602001828054612841906143e9565b801561288e5780601f106128635761010080835404028352916020019161288e565b820191906000526020600020905b81548152906001019060200180831161287157829003601f168201915b505050505081526020016002820180546128a7906143e9565b80601f01602080910402602001604051908101604052809291908181526020018280546128d3906143e9565b80156129205780601f106128f557610100808354040283529160200191612920565b820191906000526020600020905b81548152906001019060200180831161290357829003601f168201915b50505050508152602001600382018054612939906143e9565b80601f0160208091040260200160405190810160405280929190818152602001828054612965906143e9565b80156129b25780601f10612987576101008083540402835291602001916129b2565b820191906000526020600020905b81548152906001019060200180831161299557829003601f168201915b505050505081526020016004820180546129cb906143e9565b80601f01602080910402602001604051908101604052809291908181526020018280546129f7906143e9565b8015612a445780601f10612a1957610100808354040283529160200191612a44565b820191906000526020600020905b815481529060010190602001808311612a2757829003601f168201915b505050505081526020016005820160009054906101000a900473ffffffffffffffffffffffffffffffffffffffff1673ffffffffffffffffffffffffffffffffffffffff1673ffffffffffffffffffffffffffffffffffffffff168152602001600682015481526020016007820160009054906101000a900460ff1615151515815250509050806000015181602001518260400151836060015184608001518560a001518660e001518760c001519850985098509850985098509850985050919395975091939597565b600080600760008473ffffffffffffffffffffffffffffffffffffffff1673ffffffffffffffffffffffffffffffffffffffff1681526020019081526020016000206040518061010001604052908160008201548152602001600182018054612b76906143e9565b80601f0160208091040260200160405190810160405280929190818152602001828054612ba2906143e9565b8015612bef5780601f10612bc457610100808354040283529160200191612bef565b820191906000526020600020905b815481529060010190602001808311612bd257829003601f168201915b50505050508152602001600282018054612c08906143e9565b80601f0160208091040260200160405190810160405280929190818152602001828054612c34906143e9565b8015612c815780601f10612c5657610100808354040283529160200191612c81565b820191906000526020600020905b815481529060010190602001808311612c6457829003601f168201915b50505050508152602001600382018054612c9a906143e9565b80601f0160208091040260200160405190810160405280929190818152602001828054612cc6906143e9565b8015612d135780601f10612ce857610100808354040283529160200191612d13565b820191906000526020600020905b815481529060010190602001808311612cf657829003601f168201915b50505050508152602001600482018054612d2c906143e9565b80601f0160208091040260200160405190810160405280929190818152602001828054612d58906143e9565b8015612da55780601f10612d7a57610100808354040283529160200191612da5565b820191906000526020600020905b815481529060010190602001808311612d8857829003601f168201915b505050505081526020016005820160009054906101000a900473ffffffffffffffffffffffffffffffffffffffff1673ffffffffffffffffffffffffffffffffffffffff1673ffffffffffffffffffffffffffffffffffffffff168152602001600682015481526020016007820160009054906101000a900460ff1615151515815250509050600b8160200151604051612e3f9190613e6e565b908152602001604051809103902060008260c00151815260200190815260200160002060009054906101000a900460ff16915050919050565b6060806060806060600860008773ffffffffffffffffffffffffffffffffffffffff1673ffffffffffffffffffffffffffffffffffffffff16815260200190815260200160002060009054906101000a900460ff16612f0c576040517f08c379a0000000000000000000000000000000000000000000000000000000008152600401612f039061404d565b60405180910390fd5b6000600660008873ffffffffffffffffffffffffffffffffffffffff1673ffffffffffffffffffffffffffffffffffffffff1681526020019081526020016000206040518061010001604052908160008201548152602001600182018054612f73906143e9565b80601f0160208091040260200160405190810160405280929190818152602001828054612f9f906143e9565b8015612fec5780601f10612fc157610100808354040283529160200191612fec565b820191906000526020600020905b815481529060010190602001808311612fcf57829003601f168201915b50505050508152602001600282018054613005906143e9565b80601f0160208091040260200160405190810160405280929190818152602001828054613031906143e9565b801561307e5780601f106130535761010080835404028352916020019161307e565b820191906000526020600020905b81548152906001019060200180831161306157829003601f168201915b50505050508152602001600382018054613097906143e9565b80601f01602080910402602001604051908101604052809291908181526020018280546130c3906143e9565b80156131105780601f106130e557610100808354040283529160200191613110565b820191906000526020600020905b8154815290600101906020018083116130f357829003601f168201915b50505050508152602001600482018054613129906143e9565b80601f0160208091040260200160405190810160405280929190818152602001828054613155906143e9565b80156131a25780601f10613177576101008083540402835291602001916131a2565b820191906000526020600020905b81548152906001019060200180831161318557829003601f168201915b505050505081526020016005820180546131bb906143e9565b80601f01602080910402602001604051908101604052809291908181526020018280546131e7906143e9565b80156132345780601f1061320957610100808354040283529160200191613234565b820191906000526020600020905b81548152906001019060200180831161321757829003601f168201915b5050505050815260200160068201805480602002602001604051908101604052809291908181526020016000905b828210156134dc5783829060005260206000209060040201604051806080016040529081600082018054613295906143e9565b80601f01602080910402602001604051908101604052809291908181526020018280546132c1906143e9565b801561330e5780601f106132e35761010080835404028352916020019161330e565b820191906000526020600020905b8154815290600101906020018083116132f157829003601f168201915b50505050508152602001600182018054613327906143e9565b80601f0160208091040260200160405190810160405280929190818152602001828054613353906143e9565b80156133a05780601f10613375576101008083540402835291602001916133a0565b820191906000526020600020905b81548152906001019060200180831161338357829003601f168201915b505050505081526020016002820180546133b9906143e9565b80601f01602080910402602001604051908101604052809291908181526020018280546133e5906143e9565b80156134325780601f1061340757610100808354040283529160200191613432565b820191906000526020600020905b81548152906001019060200180831161341557829003601f168201915b5050505050815260200160038201805461344b906143e9565b80601f0160208091040260200160405190810160405280929190818152602001828054613477906143e9565b80156134c45780601f10613499576101008083540402835291602001916134c4565b820191906000526020600020905b8154815290600101906020018083116134a757829003601f168201915b50505050508152505081526020019060010190613262565b5050505081526020016007820160009054906101000a900473ffffffffffffffffffffffffffffffffffffffff1673ffffffffffffffffffffffffffffffffffffffff1673ffffffffffffffffffffffffffffffffffffffff1681525050905080602001518160400151826060015183608001518460a00151955095509550955095505091939590929450565b828054613575906143e9565b90600052602060002090601f01602090048101928261359757600085556135de565b82601f106135b057805160ff19168380011785556135de565b828001600101855582156135de579182015b828111156135dd5782518255916020019190600101906135c2565b5b5090506135eb91906135ef565b5090565b5b808211156136085760008160009055506001016135f0565b5090565b600061361f61361a84614287565b614262565b90508281526020810184848401111561363b5761363a614556565b5b6136468482856143a7565b509392505050565b60008135905061365d81614910565b92915050565b600082601f83011261367857613677614551565b5b813561368884826020860161360c565b91505092915050565b6000813590506136a081614927565b92915050565b6000602082840312156136bc576136bb614560565b5b60006136ca8482850161364e565b91505092915050565b600080604083850312156136ea576136e9614560565b5b60006136f88582860161364e565b92505060206137098582860161364e565b9150509250929050565b6000806040838503121561372a57613729614560565b5b60006137388582860161364e565b925050602061374985828601613691565b9150509250929050565b60006020828403121561376957613768614560565b5b600082013567ffffffffffffffff8111156137875761378661455b565b5b61379384828501613663565b91505092915050565b600080600080600060a086880312156137b8576137b7614560565b5b600086013567ffffffffffffffff8111156137d6576137d561455b565b5b6137e288828901613663565b955050602086013567ffffffffffffffff8111156138035761380261455b565b5b61380f88828901613663565b945050604086013567ffffffffffffffff8111156138305761382f61455b565b5b61383c88828901613663565b935050606086013567ffffffffffffffff81111561385d5761385c61455b565b5b61386988828901613663565b925050608061387a8882890161364e565b9150509295509295909350565b600080600080600060a086880312156138a3576138a2614560565b5b600086013567ffffffffffffffff8111156138c1576138c061455b565b5b6138cd88828901613663565b955050602086013567ffffffffffffffff8111156138ee576138ed61455b565b5b6138fa88828901613663565b945050604086013567ffffffffffffffff81111561391b5761391a61455b565b5b61392788828901613663565b935050606086013567ffffffffffffffff8111156139485761394761455b565b5b61395488828901613663565b925050608086013567ffffffffffffffff8111156139755761397461455b565b5b61398188828901613663565b9150509295509295909350565b600080600080600060a086880312156139aa576139a9614560565b5b600086013567ffffffffffffffff8111156139c8576139c761455b565b5b6139d488828901613663565b955050602086013567ffffffffffffffff8111156139f5576139f461455b565b5b613a0188828901613663565b945050604086013567ffffffffffffffff811115613a2257613a2161455b565b5b613a2e88828901613663565b935050606086013567ffffffffffffffff811115613a4f57613a4e61455b565b5b613a5b88828901613663565b9250506080613a6c88828901613691565b9150509295509295909350565b60008060408385031215613a9057613a8f614560565b5b600083013567ffffffffffffffff811115613aae57613aad61455b565b5b613aba85828601613663565b9250506020613acb85828601613691565b9150509250929050565b600060208284031215613aeb57613aea614560565b5b6000613af984828501613691565b91505092915050565b613b0b81614355565b82525050565b613b1a81614367565b82525050565b60008154613b2d816143e9565b613b3781866142d8565b94506001821660008114613b525760018114613b6357613b96565b60ff19831686528186019350613b96565b613b6c856142b8565b60005b83811015613b8e57815481890152600182019150602081019050613b6f565b838801955050505b50505092915050565b613ba881614373565b82525050565b6000613bb9826142cd565b613bc381856142e3565b9350613bd38185602086016143b6565b613bdc81614565565b840191505092915050565b6000613bf2826142cd565b613bfc81856142f4565b9350613c0c8185602086016143b6565b80840191505092915050565b6000613c256027836142e3565b9150613c3082614576565b604082019050919050565b6000613c48601e836142e3565b9150613c53826145c5565b602082019050919050565b6000613c6b6028836142e3565b9150613c76826145ee565b604082019050919050565b6000613c8e6019836142e3565b9150613c998261463d565b602082019050919050565b6000613cb16012836142e3565b9150613cbc82614666565b602082019050919050565b6000613cd46026836142e3565b9150613cdf8261468f565b604082019050919050565b6000613cf76018836142e3565b9150613d02826146de565b602082019050919050565b6000613d1a6019836142e3565b9150613d2582614707565b602082019050919050565b6000613d3d601a836142e3565b9150613d4882614730565b602082019050919050565b6000613d606017836142e3565b9150613d6b82614759565b602082019050919050565b6000613d836025836142e3565b9150613d8e82614782565b604082019050919050565b6000613da6601a836142e3565b9150613db1826147d1565b602082019050919050565b6000613dc96029836142e3565b9150613dd4826147fa565b604082019050919050565b6000613dec6017836142e3565b9150613df782614849565b602082019050919050565b6000613e0f6027836142e3565b9150613e1a82614872565b604082019050919050565b6000613e326025836142e3565b9150613e3d826148c1565b604082019050919050565b613e518161439d565b82525050565b6000613e638284613b20565b915081905092915050565b6000613e7a8284613be7565b915081905092915050565b6000602082019050613e9a6000830184613b02565b92915050565b6000602082019050613eb56000830184613b11565b92915050565b6000602082019050613ed06000830184613b9f565b92915050565b60006080820190508181036000830152613ef08187613bae565b90508181036020830152613f048186613bae565b90508181036040830152613f188185613bae565b90508181036060830152613f2c8184613bae565b905095945050505050565b600060a0820190508181036000830152613f518188613bae565b90508181036020830152613f658187613bae565b90508181036040830152613f798186613bae565b90508181036060830152613f8d8185613bae565b90508181036080830152613fa18184613bae565b90509695505050505050565b60006020820190508181036000830152613fc681613c18565b9050919050565b60006020820190508181036000830152613fe681613c3b565b9050919050565b6000602082019050818103600083015261400681613c5e565b9050919050565b6000602082019050818103600083015261402681613c81565b9050919050565b6000602082019050818103600083015261404681613ca4565b9050919050565b6000602082019050818103600083015261406681613cc7565b9050919050565b6000602082019050818103600083015261408681613cea565b9050919050565b600060208201905081810360008301526140a681613d0d565b9050919050565b600060208201905081810360008301526140c681613d30565b9050919050565b600060208201905081810360008301526140e681613d53565b9050919050565b6000602082019050818103600083015261410681613d76565b9050919050565b6000602082019050818103600083015261412681613d99565b9050919050565b6000602082019050818103600083015261414681613dbc565b9050919050565b6000602082019050818103600083015261416681613ddf565b9050919050565b6000602082019050818103600083015261418681613e02565b9050919050565b600060208201905081810360008301526141a681613e25565b9050919050565b60006020820190506141c26000830184613e48565b92915050565b6000610100820190506141de600083018b613e48565b81810360208301526141f0818a613bae565b905081810360408301526142048189613bae565b905081810360608301526142188188613bae565b9050818103608083015261422c8187613bae565b905061423b60a0830186613b02565b61424860c0830185613b11565b61425560e0830184613e48565b9998505050505050505050565b600061426c61427d565b9050614278828261441b565b919050565b6000604051905090565b600067ffffffffffffffff8211156142a2576142a1614522565b5b6142ab82614565565b9050602081019050919050565b60008190508160005260206000209050919050565b600081519050919050565b600081905092915050565b600082825260208201905092915050565b600081905092915050565b600061430a8261439d565b91506143158361439d565b9250827fffffffffffffffffffffffffffffffffffffffffffffffffffffffffffffffff0382111561434a57614349614495565b5b828201905092915050565b60006143608261437d565b9050919050565b60008115159050919050565b6000819050919050565b600073ffffffffffffffffffffffffffffffffffffffff82169050919050565b6000819050919050565b82818337600083830152505050565b60005b838110156143d45780820151818401526020810190506143b9565b838111156143e3576000848401525b50505050565b6000600282049050600182168061440157607f821691505b60208210811415614415576144146144c4565b5b50919050565b61442482614565565b810181811067ffffffffffffffff8211171561444357614442614522565b5b80604052505050565b60006144578261439d565b91507fffffffffffffffffffffffffffffffffffffffffffffffffffffffffffffffff82141561448a57614489614495565b5b600182019050919050565b7f4e487b7100000000000000000000000000000000000000000000000000000000600052601160045260246000fd5b7f4e487b7100000000000000000000000000000000000000000000000000000000600052602260045260246000fd5b7f4e487b7100000000000000000000000000000000000000000000000000000000600052603260045260246000fd5b7f4e487b7100000000000000000000000000000000000000000000000000000000600052604160045260246000fd5b600080fd5b600080fd5b600080fd5b600080fd5b6000601f19601f8301169050919050565b7f446f63746f72206973206e6f7420417070726f766564206f7220646f65736e2760008201527f7420657869737400000000000000000000000000000000000000000000000000602082015250565b7f416c72656164792050617469656e74206163636f756e74206578697374730000600082015250565b7f436f6e7472616374206f776e65722063616e6e6f74207265676973746572206160008201527f7320646f63746f72000000000000000000000000000000000000000000000000602082015250565b7f596f752063616e27742072656d6f766520796f757273656c6600000000000000600082015250565b7f416c726561647920526567697374657265640000000000000000000000000000600082015250565b7f4e6f2050617469656e747320666f756e642061742074686520676976656e206160008201527f6464726573730000000000000000000000000000000000000000000000000000602082015250565b7f4e6f74207265676973746572656420617320646f63746f720000000000000000600082015250565b7f5265636f72642063616e6e6f7420626520616363657373656400000000000000600082015250565b7f55736572206973206e6f7420617574686f72697a656420796574000000000000600082015250565b7f596f752063616e6e6f742061646420796f757273656c66000000000000000000600082015250565b7f4e6f2070617469656e7420666f756e642061742074686520676976656e20616460008201527f6472657373000000000000000000000000000000000000000000000000000000602082015250565b7f5573657220697320616c726561647920617574686f72697a6564000000000000600082015250565b7f446f63746f7220646f65736e277420657869737473207769746820746865206760008201527f6976656e206e616d650000000000000000000000000000000000000000000000602082015250565b7f5265636f72642063616e6e6f7420626520616464656420000000000000000000600082015250565b7f596f7520617265206e6f7420616c6c6f77656420746f2072656769737465722060008201527f646f63746f722100000000000000000000000000000000000000000000000000602082015250565b7f536f72727920796f7572206c6963656e7365206e6f206973206e6f742076657260008201527f6966696564000000000000000000000000000000000000000000000000000000602082015250565b61491981614355565b811461492457600080fd5b50565b6149308161439d565b811461493b57600080fd5b5056fea264697066735822122076d8d6a81d683134b3bcec3a2ccc21aa6f21bfa24f4a10dfff789b2e33a042e964736f6c63430008060033",
  "immutableReferences": {},
  "source": "// SPDX-License-Identifier: MIT\n\npragma solidity >=0.4.22 <0.9.0;\n\ncontract meDossier{\n    \n    uint256 public pindex=0;\n    uint256 public dindex=0;\n    \n    struct Records {\n    string dname;\n    string reason;\n    string visitedDate;\n    string ipfs;\n    }\n\n    struct doctor {\n        uint256 id;\n        string name;\n        string contact;\n        string hname;\n        string faculty;\n        address addr;\n        uint256 licenseno;\n        bool isApproved;\n    }\n    \n    struct patient{\n        uint256 id;\n        string name;\n        string phone;\n        string gender;\n        string dob;\n        string bloodgroup;\n        Records[] records;\n        address addr;\n    }\n    address[] private patientList;\n    address[] public doctorList;\n    uint256 [] public registeredDoctorList;\n    address public  owner;\n\n    mapping(address=>patient) patients;\n    mapping(address=>doctor) doctors;\n    mapping(address=>bool) isPatient;\n    mapping(address=>bool) isDoctor;\n    mapping(address=>mapping(address=>bool)) Authorized;\n    mapping(string=>mapping(uint256=>bool)) Registered;\n    \n    \n    constructor(){\n        owner = msg.sender;\n        \n    }\n    \n     //identity the user \n     function user(address addr) public view returns (int success){\n        if(isDoctor[addr]==true){\n            return 0;\n        }\n        else if(isPatient[addr]==true){\n            return 1;\n        }\n        else if(addr==owner){\n            return 2;\n        }\n        else{\n            return 3;\n        }\n    }\n    \n    \n    //add the patient to the blockchain\n    function addPatient(string memory _name,string memory _phone,string memory _gender,string memory _dob,string memory _bloodgroup) public {\n        require(!isPatient[msg.sender],\"Already Patient account exists\");\n        require(bytes(_name).length>0);\n        require(bytes(_phone).length>0);\n        require(bytes(_gender).length>0);\n        require(bytes(_dob).length>0);\n        require(bytes(_bloodgroup).length>0);        \n        patientList.push(msg.sender);\n        pindex = pindex + 1;\n        isPatient[msg.sender]=true;\n        patients[msg.sender].id=pindex;\n        patients[msg.sender].name=_name;\n        patients[msg.sender].phone=_phone;\n        patients[msg.sender].gender=_gender;\n        patients[msg.sender].dob=_dob;\n        patients[msg.sender].bloodgroup=_bloodgroup;\n        patients[msg.sender].addr=msg.sender;\n        \n    }\n    \n    //get the details of the patients\n    function getPatientDetails(address _addr) public view returns(string memory _name,string memory _phone,string memory _gender,string memory _dob,string memory _bloodgroup){\n        require(isPatient[_addr],\"No Patients found at the given address\");\n        patient memory pat = patients[_addr];\n        return (pat.name,pat.phone,pat.gender,pat.dob,pat.bloodgroup);\n    }\n    \n    //Register the doctor by certain authority\n    function registerDoctor(string memory docname, uint256 license) public {\n        require(msg.sender==owner,\"You are not allowed to register doctor!\");\n        Registered[docname][license] = true;\n        registeredDoctorList.push(license);\n    \n    }\n        //Check whether the doctor is registered or not\n     function isRegistered(address addr) public view returns (bool success){\n        doctor memory doc = doctors[addr];\n        return Registered[doc.name][doc.licenseno];\n    }\n    \n    \n    //add doctor \n    function addDoctor(string memory _name,string memory _hname,string memory _faculty,string memory _contact,uint256 license) public {\n        require(!isDoctor[msg.sender],\"Already Registered\");\n        require(msg.sender != owner,\"Contract owner cannot register as doctor\");\n        require(Registered[_name][license],\"Sorry your license no is not verified\");\n        require(bytes(_name).length>0);\n        require(bytes(_hname).length>0);\n        require(bytes(_faculty).length>0);\n        require(bytes(_contact).length>0);\n        require(license>0);  \n        address _addr = msg.sender;\n        doctorList.push(_addr);\n\n        dindex = dindex + 1;\n        isDoctor[_addr]=true;\n        doctors[_addr].name = _name;\n        doctors[_addr].contact =_contact;\n        doctors[_addr].hname = _hname;\n        doctors[_addr].faculty =_faculty; \n        doctors[_addr].addr = _addr;\n        doctors[_addr].licenseno = license;\n        doctors[_addr].isApproved = true;\n    }\n    \n//get the length of doctor's added in blockchain\nfunction getdoctorlist() public view returns(uint256){\n        return doctorList.length;\n    }\n\n\nfunction getDoctorbyId(uint256 _id) public view returns(uint256 id,string memory name , string memory contact ,string memory hname ,string memory faculty ,address addr , bool isApproved,uint256 licenseno)  {\n    \n        doctor memory doc = doctors[doctorList[_id]];\n        return (doc.id,doc.name,doc.contact,doc.hname,doc.faculty,doc.addr, doc.isApproved,doc.licenseno);\n    }    \n    \n function getDoctorbyName(string memory _name) public view returns(uint256 id,string memory name , string memory contact ,string memory hname ,string memory faculty ,address addr , bool isApproved,uint256 licenseno)  {\n        uint256 i=0;\n        for(i = 0;i<doctorList.length;i++){\n        if(keccak256(bytes(doctors[doctorList[i]].name)) == keccak256(bytes(_name))){\n            break;\n        }\n    }    \n        require(keccak256(bytes(doctors[doctorList[i]].name)) == keccak256(bytes(_name)),\"Doctor doesn't exists with the given name\");\n        doctor memory doc = doctors[doctorList[i]];\n        return (doc.id,doc.name,doc.contact,doc.hname,doc.faculty,doc.addr, doc.isApproved,doc.licenseno);\n    }\n    \n function getDoctorByAddress(address _address) public view returns(uint256 id,string memory name , string memory contact ,string memory hname ,string memory faculty ,address addr , bool isApproved,uint256 licenseno) {\n        require(doctors[_address].isApproved,\"Doctor is not Approved or doesn't exist\");\n        doctor memory doc = doctors[_address];\n        return (doc.id,doc.name,doc.contact,doc.hname,doc.faculty,doc.addr,doc.isApproved,doc.licenseno);\n    } \n    \n    //check whether the particular address is authorized for report access of pat \n    function isAuthorized(address pat,address client ) public view returns (bool success){\n        return Authorized[pat][client];\n    }\n    \n\n//Add records of the patient\n    function addRecord(string memory _dname,string memory _reason,string memory _visitedDate,string memory _ipfs, address addr) public{\n        require(isPatient[addr],\"No patient found at the given address\");\n        \n        if(Authorized[addr][msg.sender] || msg.sender == addr){\n                patients[addr].records.push(Records(_dname,_reason,_visitedDate,_ipfs));\n        }\n        else \n        revert(\"Record cannot be added \");\n       \n    }\n    \n  //get the length of records of particular address  \n     function getrecordlist(address _addr)  public view returns (uint256 ){  \n     return (patients[_addr].records.length);\n     }\n\n\n//get patients record \n    function getPatientRecords(address _addr, uint256 _id) public view \n    returns(string memory dname, string memory reason ,string memory visitedDate, string memory ipfs){\n        require(isPatient[_addr],\"No patient found at the given address\");\n        if(Authorized[_addr][msg.sender] || msg.sender == _addr){\n                return( patients[_addr].records[_id].dname,patients[_addr].records[_id].reason,\n                patients[_addr].records[_id].visitedDate,patients[_addr].records[_id].ipfs\n                    );\n        }\n        else \n        revert(\"Record cannot be accessed\");\n    }\n\n//Give access to certain address\n    function grantAccess(address _addr) public returns (bool success)\n    {   require(msg.sender != _addr,\"You cannot add yourself\");\n        require(isDoctor[_addr],\"Not registered as doctor\");\n        require(!Authorized[msg.sender][_addr],\"User is already authorized\");\n        Authorized[msg.sender][_addr] = true;\n        return true;\n    }\n\n//Revoke access of patient records from certain address\n      function revoke_access(address _addr)  public returns (bool success){\n        require(msg.sender!=_addr,\"You can't remove yourself\");\n        require(Authorized[msg.sender][_addr],\"User is not authorized yet\");\n        Authorized[msg.sender][_addr] = false;\n        return true;\n    }\n}",
  "sourcePath": "/home/anu/Blockchain/Assignments/Blockchain/contracts/meDossier.sol",
  "compiler": {
    "name": "solc",
    "version": "0.8.6+commit.11564f7e.Emscripten.clang"
  },
  "schemaVersion": "3.4.0",
  "updatedAt": "2021-06-26T04:48:27.098Z",
  "networkType": "ethereum",
  "devdoc": {
    "kind": "dev",
    "methods": {},
    "version": 1
  },
  "userdoc": {
    "kind": "user",
    "methods": {},
    "version": 1
  }
}