{
  "contractName": "meDossier",
  "abi": [
    {
      "inputs": [],
      "name": "dindex",
      "outputs": [
        {
          "internalType": "uint256",
          "name": "",
          "type": "uint256"
        }
      ],
      "stateMutability": "view",
      "type": "function"
    },
    {
      "inputs": [
        {
          "internalType": "uint256",
          "name": "",
          "type": "uint256"
        }
      ],
      "name": "doctorList",
      "outputs": [
        {
          "internalType": "address",
          "name": "",
          "type": "address"
        }
      ],
      "stateMutability": "view",
      "type": "function"
    },
    {
      "inputs": [],
      "name": "pindex",
      "outputs": [
        {
          "internalType": "uint256",
          "name": "",
          "type": "uint256"
        }
      ],
      "stateMutability": "view",
      "type": "function"
    },
    {
      "inputs": [
        {
          "internalType": "string",
          "name": "_dname",
          "type": "string"
        },
        {
          "internalType": "string",
          "name": "_reason",
          "type": "string"
        },
        {
          "internalType": "string",
          "name": "_visitedDate",
          "type": "string"
        },
        {
          "internalType": "string",
          "name": "_ipfs",
          "type": "string"
        },
        {
          "internalType": "address",
          "name": "addr",
          "type": "address"
        }
      ],
      "name": "addRecord",
      "outputs": [],
      "stateMutability": "nonpayable",
      "type": "function"
    },
    {
      "inputs": [
        {
          "internalType": "string",
          "name": "_name",
          "type": "string"
        },
        {
          "internalType": "string",
          "name": "_phone",
          "type": "string"
        },
        {
          "internalType": "string",
          "name": "_gender",
          "type": "string"
        },
        {
          "internalType": "string",
          "name": "_dob",
          "type": "string"
        },
        {
          "internalType": "string",
          "name": "_bloodgroup",
          "type": "string"
        }
      ],
      "name": "addPatient",
      "outputs": [],
      "stateMutability": "nonpayable",
      "type": "function"
    },
    {
      "inputs": [
        {
          "internalType": "address",
          "name": "_addr",
          "type": "address"
        }
      ],
      "name": "getPatientDetails",
      "outputs": [
        {
          "internalType": "string",
          "name": "_name",
          "type": "string"
        },
        {
          "internalType": "string",
          "name": "_phone",
          "type": "string"
        },
        {
          "internalType": "string",
          "name": "_gender",
          "type": "string"
        },
        {
          "internalType": "string",
          "name": "_dob",
          "type": "string"
        },
        {
          "internalType": "string",
          "name": "_bloodgroup",
          "type": "string"
        }
      ],
      "stateMutability": "view",
      "type": "function"
    },
    {
      "inputs": [
        {
          "internalType": "address",
          "name": "_addr",
          "type": "address"
        }
      ],
      "name": "getrecordlist",
      "outputs": [
        {
          "internalType": "uint256",
          "name": "",
          "type": "uint256"
        }
      ],
      "stateMutability": "view",
      "type": "function"
    },
    {
      "inputs": [
        {
          "internalType": "address",
          "name": "_addr",
          "type": "address"
        },
        {
          "internalType": "uint256",
          "name": "_id",
          "type": "uint256"
        }
      ],
      "name": "getPatientRecords",
      "outputs": [
        {
          "internalType": "string",
          "name": "dname",
          "type": "string"
        },
        {
          "internalType": "string",
          "name": "reason",
          "type": "string"
        },
        {
          "internalType": "string",
          "name": "visitedDate",
          "type": "string"
        },
        {
          "internalType": "string",
          "name": "ipfs",
          "type": "string"
        }
      ],
      "stateMutability": "view",
      "type": "function"
    },
    {
      "inputs": [
        {
          "internalType": "string",
          "name": "_name",
          "type": "string"
        },
        {
          "internalType": "string",
          "name": "_hname",
          "type": "string"
        },
        {
          "internalType": "string",
          "name": "_faculty",
          "type": "string"
        },
        {
          "internalType": "string",
          "name": "_contact",
          "type": "string"
        }
      ],
      "name": "addDoctor",
      "outputs": [],
      "stateMutability": "nonpayable",
      "type": "function"
    },
    {
      "inputs": [
        {
          "internalType": "uint256",
          "name": "_id",
          "type": "uint256"
        }
      ],
      "name": "getDoctorbyId",
      "outputs": [
        {
          "internalType": "uint256",
          "name": "id",
          "type": "uint256"
        },
        {
          "internalType": "string",
          "name": "name",
          "type": "string"
        },
        {
          "internalType": "string",
          "name": "contact",
          "type": "string"
        },
        {
          "internalType": "string",
          "name": "hname",
          "type": "string"
        },
        {
          "internalType": "string",
          "name": "faculty",
          "type": "string"
        },
        {
          "internalType": "address",
          "name": "addr",
          "type": "address"
        },
        {
          "internalType": "bool",
          "name": "isApproved",
          "type": "bool"
        }
      ],
      "stateMutability": "view",
      "type": "function"
    },
    {
      "inputs": [
        {
          "internalType": "string",
          "name": "_name",
          "type": "string"
        }
      ],
      "name": "getDoctorbyName",
      "outputs": [
        {
          "internalType": "uint256",
          "name": "id",
          "type": "uint256"
        },
        {
          "internalType": "string",
          "name": "name",
          "type": "string"
        },
        {
          "internalType": "string",
          "name": "contact",
          "type": "string"
        },
        {
          "internalType": "string",
          "name": "hname",
          "type": "string"
        },
        {
          "internalType": "string",
          "name": "faculty",
          "type": "string"
        },
        {
          "internalType": "address",
          "name": "addr",
          "type": "address"
        },
        {
          "internalType": "bool",
          "name": "isApproved",
          "type": "bool"
        }
      ],
      "stateMutability": "view",
      "type": "function"
    },
    {
      "inputs": [
        {
          "internalType": "address",
          "name": "_address",
          "type": "address"
        }
      ],
      "name": "getDoctorByAddress",
      "outputs": [
        {
          "internalType": "uint256",
          "name": "id",
          "type": "uint256"
        },
        {
          "internalType": "string",
          "name": "name",
          "type": "string"
        },
        {
          "internalType": "string",
          "name": "contact",
          "type": "string"
        },
        {
          "internalType": "string",
          "name": "hname",
          "type": "string"
        },
        {
          "internalType": "string",
          "name": "faculty",
          "type": "string"
        },
        {
          "internalType": "address",
          "name": "addr",
          "type": "address"
        },
        {
          "internalType": "bool",
          "name": "isApproved",
          "type": "bool"
        }
      ],
      "stateMutability": "view",
      "type": "function"
    },
    {
      "inputs": [
        {
          "internalType": "address",
          "name": "_addr",
          "type": "address"
        }
      ],
      "name": "grantAccess",
      "outputs": [
        {
          "internalType": "bool",
          "name": "success",
          "type": "bool"
        }
      ],
      "stateMutability": "nonpayable",
      "type": "function"
    },
    {
      "inputs": [
        {
          "internalType": "address",
          "name": "_addr",
          "type": "address"
        }
      ],
      "name": "revoke_access",
      "outputs": [
        {
          "internalType": "bool",
          "name": "success",
          "type": "bool"
        }
      ],
      "stateMutability": "nonpayable",
      "type": "function"
    }
  ],
  "bytecode": "0x608060405260008055600060015534801561001957600080fd5b50613c89806100296000396000f3fe608060405234801561001057600080fd5b50600436106100ea5760003560e01c806356fa82171161008c57806391d4eb861161006657806391d4eb861461028a578063928ed9da146102c0578063b2861ea9146102de578063efe2ccc114610314576100ea565b806356fa82171461021c57806358c5d4bf1461023857806370333b801461026e576100ea565b806327b1dcee116100c857806327b1dcee1461017f5780632874a75f146101af57806332aa4aa7146101e25780635658e43b146101fe576100ea565b80630ae5e739146100ef578063127ca4b41461011f578063248c6a311461014f575b600080fd5b61010960048036038101906101049190612cb7565b610348565b6040516101169190613341565b60405180910390f35b61013960048036038101906101349190613036565b610521565b6040516101469190613326565b60405180910390f35b61016960048036038101906101649190612cb7565b610560565b60405161017691906135d3565b60405180910390f35b61019960048036038101906101949190612cb7565b6105af565b6040516101a69190613341565b60405180910390f35b6101c960048036038101906101c49190612ce4565b610787565b6040516101d9949392919061335c565b60405180910390f35b6101fc60048036038101906101f79190612d6d565b610cf3565b005b610206610fd0565b60405161021391906135d3565b60405180910390f35b61023660048036038101906102319190612f2f565b610fd6565b005b610252600480360381019061024d9190612cb7565b6113b7565b60405161026597969594939291906135ee565b60405180910390f35b61028860048036038101906102839190612e44565b61179f565b005b6102a4600480360381019061029f9190612d24565b611a39565b6040516102b797969594939291906135ee565b60405180910390f35b6102c8611f79565b6040516102d591906135d3565b60405180910390f35b6102f860048036038101906102f39190613036565b611f7f565b60405161030b97969594939291906135ee565b60405180910390f35b61032e60048036038101906103299190612cb7565b612489565b60405161033f9594939291906133bd565b60405180910390f35b60008173ffffffffffffffffffffffffffffffffffffffff163373ffffffffffffffffffffffffffffffffffffffff1614156103b9576040517f08c379a00000000000000000000000000000000000000000000000000000000081526004016103b090613533565b60405180910390fd5b600860003373ffffffffffffffffffffffffffffffffffffffff1673ffffffffffffffffffffffffffffffffffffffff16815260200190815260200160002060008373ffffffffffffffffffffffffffffffffffffffff1673ffffffffffffffffffffffffffffffffffffffff16815260200190815260200160002060009054906101000a900460ff1615610483576040517f08c379a000000000000000000000000000000000000000000000000000000000815260040161047a90613573565b60405180910390fd5b6001600860003373ffffffffffffffffffffffffffffffffffffffff1673ffffffffffffffffffffffffffffffffffffffff16815260200190815260200160002060008473ffffffffffffffffffffffffffffffffffffffff1673ffffffffffffffffffffffffffffffffffffffff16815260200190815260200160002060006101000a81548160ff02191690831515021790555060019050919050565b6003818154811061053157600080fd5b906000526020600020016000915054906101000a900473ffffffffffffffffffffffffffffffffffffffff1681565b6000600460008373ffffffffffffffffffffffffffffffffffffffff1673ffffffffffffffffffffffffffffffffffffffff168152602001908152602001600020600601805490509050919050565b60008173ffffffffffffffffffffffffffffffffffffffff163373ffffffffffffffffffffffffffffffffffffffff161415610620576040517f08c379a000000000000000000000000000000000000000000000000000000000815260040161061790613473565b60405180910390fd5b600860003373ffffffffffffffffffffffffffffffffffffffff1673ffffffffffffffffffffffffffffffffffffffff16815260200190815260200160002060008373ffffffffffffffffffffffffffffffffffffffff1673ffffffffffffffffffffffffffffffffffffffff16815260200190815260200160002060009054906101000a900460ff166106e9576040517f08c379a00000000000000000000000000000000000000000000000000000000081526004016106e090613513565b60405180910390fd5b6000600860003373ffffffffffffffffffffffffffffffffffffffff1673ffffffffffffffffffffffffffffffffffffffff16815260200190815260200160002060008473ffffffffffffffffffffffffffffffffffffffff1673ffffffffffffffffffffffffffffffffffffffff16815260200190815260200160002060006101000a81548160ff02191690831515021790555060019050919050565b606080606080600660008773ffffffffffffffffffffffffffffffffffffffff1673ffffffffffffffffffffffffffffffffffffffff16815260200190815260200160002060009054906101000a900460ff16610819576040517f08c379a000000000000000000000000000000000000000000000000000000000815260040161081090613553565b60405180910390fd5b600860008773ffffffffffffffffffffffffffffffffffffffff1673ffffffffffffffffffffffffffffffffffffffff16815260200190815260200160002060003373ffffffffffffffffffffffffffffffffffffffff1673ffffffffffffffffffffffffffffffffffffffff16815260200190815260200160002060009054906101000a900460ff16806108d957508573ffffffffffffffffffffffffffffffffffffffff163373ffffffffffffffffffffffffffffffffffffffff16145b15610caf57600460008773ffffffffffffffffffffffffffffffffffffffff1673ffffffffffffffffffffffffffffffffffffffff1681526020019081526020016000206006018581548110610932576109316138f5565b5b9060005260206000209060040201600001600460008873ffffffffffffffffffffffffffffffffffffffff1673ffffffffffffffffffffffffffffffffffffffff1681526020019081526020016000206006018681548110610997576109966138f5565b5b9060005260206000209060040201600101600460008973ffffffffffffffffffffffffffffffffffffffff1673ffffffffffffffffffffffffffffffffffffffff16815260200190815260200160002060060187815481106109fc576109fb6138f5565b5b9060005260206000209060040201600201600460008a73ffffffffffffffffffffffffffffffffffffffff1673ffffffffffffffffffffffffffffffffffffffff1681526020019081526020016000206006018881548110610a6157610a606138f5565b5b9060005260206000209060040201600301838054610a7e906137eb565b80601f0160208091040260200160405190810160405280929190818152602001828054610aaa906137eb565b8015610af75780601f10610acc57610100808354040283529160200191610af7565b820191906000526020600020905b815481529060010190602001808311610ada57829003601f168201915b50505050509350828054610b0a906137eb565b80601f0160208091040260200160405190810160405280929190818152602001828054610b36906137eb565b8015610b835780601f10610b5857610100808354040283529160200191610b83565b820191906000526020600020905b815481529060010190602001808311610b6657829003601f168201915b50505050509250818054610b96906137eb565b80601f0160208091040260200160405190810160405280929190818152602001828054610bc2906137eb565b8015610c0f5780601f10610be457610100808354040283529160200191610c0f565b820191906000526020600020905b815481529060010190602001808311610bf257829003601f168201915b50505050509150808054610c22906137eb565b80601f0160208091040260200160405190810160405280929190818152602001828054610c4e906137eb565b8015610c9b5780601f10610c7057610100808354040283529160200191610c9b565b820191906000526020600020905b815481529060010190602001808311610c7e57829003601f168201915b505050505090509350935093509350610cea565b6040517f08c379a0000000000000000000000000000000000000000000000000000000008152600401610ce1906134f3565b60405180910390fd5b92959194509250565b600760003373ffffffffffffffffffffffffffffffffffffffff1673ffffffffffffffffffffffffffffffffffffffff16815260200190815260200160002060009054906101000a900460ff1615610d80576040517f08c379a0000000000000000000000000000000000000000000000000000000008152600401610d7790613493565b60405180910390fd5b60003390506003819080600181540180825580915050600190039060005260206000200160009091909190916101000a81548173ffffffffffffffffffffffffffffffffffffffff021916908373ffffffffffffffffffffffffffffffffffffffff16021790555060018054610df6919061370b565b6001819055506001600760008373ffffffffffffffffffffffffffffffffffffffff1673ffffffffffffffffffffffffffffffffffffffff16815260200190815260200160002060006101000a81548160ff0219169083151502179055506040518060e0016040528060015481526020018681526020018381526020018581526020018481526020018273ffffffffffffffffffffffffffffffffffffffff16815260200160011515815250600560008373ffffffffffffffffffffffffffffffffffffffff1673ffffffffffffffffffffffffffffffffffffffff168152602001908152602001600020600082015181600001556020820151816001019080519060200190610f07929190612b7a565b506040820151816002019080519060200190610f24929190612b7a565b506060820151816003019080519060200190610f41929190612b7a565b506080820151816004019080519060200190610f5e929190612b7a565b5060a08201518160050160006101000a81548173ffffffffffffffffffffffffffffffffffffffff021916908373ffffffffffffffffffffffffffffffffffffffff16021790555060c08201518160050160146101000a81548160ff0219169083151502179055509050505050505050565b60005481565b600660003373ffffffffffffffffffffffffffffffffffffffff1673ffffffffffffffffffffffffffffffffffffffff16815260200190815260200160002060009054906101000a900460ff1615611063576040517f08c379a000000000000000000000000000000000000000000000000000000000815260040161105a90613453565b60405180910390fd5b6002339080600181540180825580915050600190039060005260206000200160009091909190916101000a81548173ffffffffffffffffffffffffffffffffffffffff021916908373ffffffffffffffffffffffffffffffffffffffff16021790555060016000546110d5919061370b565b6000819055506001600660003373ffffffffffffffffffffffffffffffffffffffff1673ffffffffffffffffffffffffffffffffffffffff16815260200190815260200160002060006101000a81548160ff021916908315150217905550600054600460003373ffffffffffffffffffffffffffffffffffffffff1673ffffffffffffffffffffffffffffffffffffffff1681526020019081526020016000206000018190555084600460003373ffffffffffffffffffffffffffffffffffffffff1673ffffffffffffffffffffffffffffffffffffffff16815260200190815260200160002060010190805190602001906111d2929190612b7a565b5083600460003373ffffffffffffffffffffffffffffffffffffffff1673ffffffffffffffffffffffffffffffffffffffff1681526020019081526020016000206002019080519060200190611229929190612b7a565b5082600460003373ffffffffffffffffffffffffffffffffffffffff1673ffffffffffffffffffffffffffffffffffffffff1681526020019081526020016000206003019080519060200190611280929190612b7a565b5081600460003373ffffffffffffffffffffffffffffffffffffffff1673ffffffffffffffffffffffffffffffffffffffff16815260200190815260200160002060040190805190602001906112d7929190612b7a565b5080600460003373ffffffffffffffffffffffffffffffffffffffff1673ffffffffffffffffffffffffffffffffffffffff168152602001908152602001600020600501908051906020019061132e929190612b7a565b5033600460003373ffffffffffffffffffffffffffffffffffffffff1673ffffffffffffffffffffffffffffffffffffffff16815260200190815260200160002060070160006101000a81548173ffffffffffffffffffffffffffffffffffffffff021916908373ffffffffffffffffffffffffffffffffffffffff1602179055505050505050565b6000606080606080600080600560008973ffffffffffffffffffffffffffffffffffffffff1673ffffffffffffffffffffffffffffffffffffffff16815260200190815260200160002060050160149054906101000a900460ff16611451576040517f08c379a000000000000000000000000000000000000000000000000000000000815260040161144890613433565b60405180910390fd5b6000600560008a73ffffffffffffffffffffffffffffffffffffffff1673ffffffffffffffffffffffffffffffffffffffff1681526020019081526020016000206040518060e0016040529081600082015481526020016001820180546114b7906137eb565b80601f01602080910402602001604051908101604052809291908181526020018280546114e3906137eb565b80156115305780601f1061150557610100808354040283529160200191611530565b820191906000526020600020905b81548152906001019060200180831161151357829003601f168201915b50505050508152602001600282018054611549906137eb565b80601f0160208091040260200160405190810160405280929190818152602001828054611575906137eb565b80156115c25780601f10611597576101008083540402835291602001916115c2565b820191906000526020600020905b8154815290600101906020018083116115a557829003601f168201915b505050505081526020016003820180546115db906137eb565b80601f0160208091040260200160405190810160405280929190818152602001828054611607906137eb565b80156116545780601f1061162957610100808354040283529160200191611654565b820191906000526020600020905b81548152906001019060200180831161163757829003601f168201915b5050505050815260200160048201805461166d906137eb565b80601f0160208091040260200160405190810160405280929190818152602001828054611699906137eb565b80156116e65780601f106116bb576101008083540402835291602001916116e6565b820191906000526020600020905b8154815290600101906020018083116116c957829003601f168201915b505050505081526020016005820160009054906101000a900473ffffffffffffffffffffffffffffffffffffffff1673ffffffffffffffffffffffffffffffffffffffff1673ffffffffffffffffffffffffffffffffffffffff1681526020016005820160149054906101000a900460ff1615151515815250509050806000015181602001518260400151836060015184608001518560a001518660c00151975097509750975097509750975050919395979092949650565b600660008273ffffffffffffffffffffffffffffffffffffffff1673ffffffffffffffffffffffffffffffffffffffff16815260200190815260200160002060009054906101000a900460ff1661182b576040517f08c379a000000000000000000000000000000000000000000000000000000000815260040161182290613553565b60405180910390fd5b600860008273ffffffffffffffffffffffffffffffffffffffff1673ffffffffffffffffffffffffffffffffffffffff16815260200190815260200160002060003373ffffffffffffffffffffffffffffffffffffffff1673ffffffffffffffffffffffffffffffffffffffff16815260200190815260200160002060009054906101000a900460ff16806118eb57508073ffffffffffffffffffffffffffffffffffffffff163373ffffffffffffffffffffffffffffffffffffffff16145b156119f757600460008273ffffffffffffffffffffffffffffffffffffffff1673ffffffffffffffffffffffffffffffffffffffff16815260200190815260200160002060060160405180608001604052808781526020018681526020018581526020018481525090806001815401808255809150506001900390600052602060002090600402016000909190919091506000820151816000019080519060200190611998929190612b7a565b5060208201518160010190805190602001906119b5929190612b7a565b5060408201518160020190805190602001906119d2929190612b7a565b5060608201518160030190805190602001906119ef929190612b7a565b505050611a32565b6040517f08c379a0000000000000000000000000000000000000000000000000000000008152600401611a29906135b3565b60405180910390fd5b5050505050565b600060608060608060008060005b600380549050811015611b0f5788805190602001206005600060038481548110611a7457611a736138f5565b5b9060005260206000200160009054906101000a900473ffffffffffffffffffffffffffffffffffffffff1673ffffffffffffffffffffffffffffffffffffffff1673ffffffffffffffffffffffffffffffffffffffff168152602001908152602001600020600101604051611ae9919061330f565b60405180910390201415611afc57611b0f565b8080611b079061384e565b915050611a47565b88805190602001206005600060038481548110611b2f57611b2e6138f5565b5b9060005260206000200160009054906101000a900473ffffffffffffffffffffffffffffffffffffffff1673ffffffffffffffffffffffffffffffffffffffff1673ffffffffffffffffffffffffffffffffffffffff168152602001908152602001600020600101604051611ba4919061330f565b604051809103902014611bec576040517f08c379a0000000000000000000000000000000000000000000000000000000008152600401611be390613593565b60405180910390fd5b60006005600060038481548110611c0657611c056138f5565b5b9060005260206000200160009054906101000a900473ffffffffffffffffffffffffffffffffffffffff1673ffffffffffffffffffffffffffffffffffffffff1673ffffffffffffffffffffffffffffffffffffffff1681526020019081526020016000206040518060e001604052908160008201548152602001600182018054611c90906137eb565b80601f0160208091040260200160405190810160405280929190818152602001828054611cbc906137eb565b8015611d095780601f10611cde57610100808354040283529160200191611d09565b820191906000526020600020905b815481529060010190602001808311611cec57829003601f168201915b50505050508152602001600282018054611d22906137eb565b80601f0160208091040260200160405190810160405280929190818152602001828054611d4e906137eb565b8015611d9b5780601f10611d7057610100808354040283529160200191611d9b565b820191906000526020600020905b815481529060010190602001808311611d7e57829003601f168201915b50505050508152602001600382018054611db4906137eb565b80601f0160208091040260200160405190810160405280929190818152602001828054611de0906137eb565b8015611e2d5780601f10611e0257610100808354040283529160200191611e2d565b820191906000526020600020905b815481529060010190602001808311611e1057829003601f168201915b50505050508152602001600482018054611e46906137eb565b80601f0160208091040260200160405190810160405280929190818152602001828054611e72906137eb565b8015611ebf5780601f10611e9457610100808354040283529160200191611ebf565b820191906000526020600020905b815481529060010190602001808311611ea257829003601f168201915b505050505081526020016005820160009054906101000a900473ffffffffffffffffffffffffffffffffffffffff1673ffffffffffffffffffffffffffffffffffffffff1673ffffffffffffffffffffffffffffffffffffffff1681526020016005820160149054906101000a900460ff1615151515815250509050806000015181602001518260400151836060015184608001518560a001518660c0015198509850985098509850985098505050919395979092949650565b60015481565b600060608060608060008060005b60038054905081101561203a57886005600060038481548110611fb357611fb26138f5565b5b9060005260206000200160009054906101000a900473ffffffffffffffffffffffffffffffffffffffff1673ffffffffffffffffffffffffffffffffffffffff1673ffffffffffffffffffffffffffffffffffffffff1681526020019081526020016000206000015414156120275761203a565b80806120329061384e565b915050611f8d565b886005600060038481548110612053576120526138f5565b5b9060005260206000200160009054906101000a900473ffffffffffffffffffffffffffffffffffffffff1673ffffffffffffffffffffffffffffffffffffffff1673ffffffffffffffffffffffffffffffffffffffff16815260200190815260200160002060000154146120fc576040517f08c379a00000000000000000000000000000000000000000000000000000000081526004016120f3906134d3565b60405180910390fd5b60006005600060038481548110612116576121156138f5565b5b9060005260206000200160009054906101000a900473ffffffffffffffffffffffffffffffffffffffff1673ffffffffffffffffffffffffffffffffffffffff1673ffffffffffffffffffffffffffffffffffffffff1681526020019081526020016000206040518060e0016040529081600082015481526020016001820180546121a0906137eb565b80601f01602080910402602001604051908101604052809291908181526020018280546121cc906137eb565b80156122195780601f106121ee57610100808354040283529160200191612219565b820191906000526020600020905b8154815290600101906020018083116121fc57829003601f168201915b50505050508152602001600282018054612232906137eb565b80601f016020809104026020016040519081016040528092919081815260200182805461225e906137eb565b80156122ab5780601f10612280576101008083540402835291602001916122ab565b820191906000526020600020905b81548152906001019060200180831161228e57829003601f168201915b505050505081526020016003820180546122c4906137eb565b80601f01602080910402602001604051908101604052809291908181526020018280546122f0906137eb565b801561233d5780601f106123125761010080835404028352916020019161233d565b820191906000526020600020905b81548152906001019060200180831161232057829003601f168201915b50505050508152602001600482018054612356906137eb565b80601f0160208091040260200160405190810160405280929190818152602001828054612382906137eb565b80156123cf5780601f106123a4576101008083540402835291602001916123cf565b820191906000526020600020905b8154815290600101906020018083116123b257829003601f168201915b505050505081526020016005820160009054906101000a900473ffffffffffffffffffffffffffffffffffffffff1673ffffffffffffffffffffffffffffffffffffffff1673ffffffffffffffffffffffffffffffffffffffff1681526020016005820160149054906101000a900460ff1615151515815250509050806000015181602001518260400151836060015184608001518560a001518660c0015198509850985098509850985098505050919395979092949650565b6060806060806060600660008773ffffffffffffffffffffffffffffffffffffffff1673ffffffffffffffffffffffffffffffffffffffff16815260200190815260200160002060009054906101000a900460ff1661251d576040517f08c379a0000000000000000000000000000000000000000000000000000000008152600401612514906134b3565b60405180910390fd5b6000600460008873ffffffffffffffffffffffffffffffffffffffff1673ffffffffffffffffffffffffffffffffffffffff1681526020019081526020016000206040518061010001604052908160008201548152602001600182018054612584906137eb565b80601f01602080910402602001604051908101604052809291908181526020018280546125b0906137eb565b80156125fd5780601f106125d2576101008083540402835291602001916125fd565b820191906000526020600020905b8154815290600101906020018083116125e057829003601f168201915b50505050508152602001600282018054612616906137eb565b80601f0160208091040260200160405190810160405280929190818152602001828054612642906137eb565b801561268f5780601f106126645761010080835404028352916020019161268f565b820191906000526020600020905b81548152906001019060200180831161267257829003601f168201915b505050505081526020016003820180546126a8906137eb565b80601f01602080910402602001604051908101604052809291908181526020018280546126d4906137eb565b80156127215780601f106126f657610100808354040283529160200191612721565b820191906000526020600020905b81548152906001019060200180831161270457829003601f168201915b5050505050815260200160048201805461273a906137eb565b80601f0160208091040260200160405190810160405280929190818152602001828054612766906137eb565b80156127b35780601f10612788576101008083540402835291602001916127b3565b820191906000526020600020905b81548152906001019060200180831161279657829003601f168201915b505050505081526020016005820180546127cc906137eb565b80601f01602080910402602001604051908101604052809291908181526020018280546127f8906137eb565b80156128455780601f1061281a57610100808354040283529160200191612845565b820191906000526020600020905b81548152906001019060200180831161282857829003601f168201915b5050505050815260200160068201805480602002602001604051908101604052809291908181526020016000905b82821015612aed57838290600052602060002090600402016040518060800160405290816000820180546128a6906137eb565b80601f01602080910402602001604051908101604052809291908181526020018280546128d2906137eb565b801561291f5780601f106128f45761010080835404028352916020019161291f565b820191906000526020600020905b81548152906001019060200180831161290257829003601f168201915b50505050508152602001600182018054612938906137eb565b80601f0160208091040260200160405190810160405280929190818152602001828054612964906137eb565b80156129b15780601f10612986576101008083540402835291602001916129b1565b820191906000526020600020905b81548152906001019060200180831161299457829003601f168201915b505050505081526020016002820180546129ca906137eb565b80601f01602080910402602001604051908101604052809291908181526020018280546129f6906137eb565b8015612a435780601f10612a1857610100808354040283529160200191612a43565b820191906000526020600020905b815481529060010190602001808311612a2657829003601f168201915b50505050508152602001600382018054612a5c906137eb565b80601f0160208091040260200160405190810160405280929190818152602001828054612a88906137eb565b8015612ad55780601f10612aaa57610100808354040283529160200191612ad5565b820191906000526020600020905b815481529060010190602001808311612ab857829003601f168201915b50505050508152505081526020019060010190612873565b5050505081526020016007820160009054906101000a900473ffffffffffffffffffffffffffffffffffffffff1673ffffffffffffffffffffffffffffffffffffffff1673ffffffffffffffffffffffffffffffffffffffff1681525050905080602001518160400151826060015183608001518460a00151955095509550955095505091939590929450565b828054612b86906137eb565b90600052602060002090601f016020900481019282612ba85760008555612bef565b82601f10612bc157805160ff1916838001178555612bef565b82800160010185558215612bef579182015b82811115612bee578251825591602001919060010190612bd3565b5b509050612bfc9190612c00565b5090565b5b80821115612c19576000816000905550600101612c01565b5090565b6000612c30612c2b8461369e565b613679565b905082815260208101848484011115612c4c57612c4b613958565b5b612c578482856137a9565b509392505050565b600081359050612c6e81613c25565b92915050565b600082601f830112612c8957612c88613953565b5b8135612c99848260208601612c1d565b91505092915050565b600081359050612cb181613c3c565b92915050565b600060208284031215612ccd57612ccc613962565b5b6000612cdb84828501612c5f565b91505092915050565b60008060408385031215612cfb57612cfa613962565b5b6000612d0985828601612c5f565b9250506020612d1a85828601612ca2565b9150509250929050565b600060208284031215612d3a57612d39613962565b5b600082013567ffffffffffffffff811115612d5857612d5761395d565b5b612d6484828501612c74565b91505092915050565b60008060008060808587031215612d8757612d86613962565b5b600085013567ffffffffffffffff811115612da557612da461395d565b5b612db187828801612c74565b945050602085013567ffffffffffffffff811115612dd257612dd161395d565b5b612dde87828801612c74565b935050604085013567ffffffffffffffff811115612dff57612dfe61395d565b5b612e0b87828801612c74565b925050606085013567ffffffffffffffff811115612e2c57612e2b61395d565b5b612e3887828801612c74565b91505092959194509250565b600080600080600060a08688031215612e6057612e5f613962565b5b600086013567ffffffffffffffff811115612e7e57612e7d61395d565b5b612e8a88828901612c74565b955050602086013567ffffffffffffffff811115612eab57612eaa61395d565b5b612eb788828901612c74565b945050604086013567ffffffffffffffff811115612ed857612ed761395d565b5b612ee488828901612c74565b935050606086013567ffffffffffffffff811115612f0557612f0461395d565b5b612f1188828901612c74565b9250506080612f2288828901612c5f565b9150509295509295909350565b600080600080600060a08688031215612f4b57612f4a613962565b5b600086013567ffffffffffffffff811115612f6957612f6861395d565b5b612f7588828901612c74565b955050602086013567ffffffffffffffff811115612f9657612f9561395d565b5b612fa288828901612c74565b945050604086013567ffffffffffffffff811115612fc357612fc261395d565b5b612fcf88828901612c74565b935050606086013567ffffffffffffffff811115612ff057612fef61395d565b5b612ffc88828901612c74565b925050608086013567ffffffffffffffff81111561301d5761301c61395d565b5b61302988828901612c74565b9150509295509295909350565b60006020828403121561304c5761304b613962565b5b600061305a84828501612ca2565b91505092915050565b61306c81613761565b82525050565b61307b81613773565b82525050565b6000815461308e816137eb565b61309881866136ef565b945060018216600081146130b357600181146130c4576130f7565b60ff198316865281860193506130f7565b6130cd856136cf565b60005b838110156130ef578154818901526001820191506020810190506130d0565b838801955050505b50505092915050565b600061310b826136e4565b61311581856136fa565b93506131258185602086016137b8565b61312e81613967565b840191505092915050565b60006131466027836136fa565b915061315182613978565b604082019050919050565b6000613169601e836136fa565b9150613174826139c7565b602082019050919050565b600061318c6019836136fa565b9150613197826139f0565b602082019050919050565b60006131af6012836136fa565b91506131ba82613a19565b602082019050919050565b60006131d26026836136fa565b91506131dd82613a42565b604082019050919050565b60006131f56018836136fa565b915061320082613a91565b602082019050919050565b60006132186019836136fa565b915061322382613aba565b602082019050919050565b600061323b601a836136fa565b915061324682613ae3565b602082019050919050565b600061325e6017836136fa565b915061326982613b0c565b602082019050919050565b60006132816025836136fa565b915061328c82613b35565b604082019050919050565b60006132a4601a836136fa565b91506132af82613b84565b602082019050919050565b60006132c76029836136fa565b91506132d282613bad565b604082019050919050565b60006132ea6017836136fa565b91506132f582613bfc565b602082019050919050565b6133098161379f565b82525050565b600061331b8284613081565b915081905092915050565b600060208201905061333b6000830184613063565b92915050565b60006020820190506133566000830184613072565b92915050565b600060808201905081810360008301526133768187613100565b9050818103602083015261338a8186613100565b9050818103604083015261339e8185613100565b905081810360608301526133b28184613100565b905095945050505050565b600060a08201905081810360008301526133d78188613100565b905081810360208301526133eb8187613100565b905081810360408301526133ff8186613100565b905081810360608301526134138185613100565b905081810360808301526134278184613100565b90509695505050505050565b6000602082019050818103600083015261344c81613139565b9050919050565b6000602082019050818103600083015261346c8161315c565b9050919050565b6000602082019050818103600083015261348c8161317f565b9050919050565b600060208201905081810360008301526134ac816131a2565b9050919050565b600060208201905081810360008301526134cc816131c5565b9050919050565b600060208201905081810360008301526134ec816131e8565b9050919050565b6000602082019050818103600083015261350c8161320b565b9050919050565b6000602082019050818103600083015261352c8161322e565b9050919050565b6000602082019050818103600083015261354c81613251565b9050919050565b6000602082019050818103600083015261356c81613274565b9050919050565b6000602082019050818103600083015261358c81613297565b9050919050565b600060208201905081810360008301526135ac816132ba565b9050919050565b600060208201905081810360008301526135cc816132dd565b9050919050565b60006020820190506135e86000830184613300565b92915050565b600060e082019050613603600083018a613300565b81810360208301526136158189613100565b905081810360408301526136298188613100565b9050818103606083015261363d8187613100565b905081810360808301526136518186613100565b905061366060a0830185613063565b61366d60c0830184613072565b98975050505050505050565b6000613683613694565b905061368f828261381d565b919050565b6000604051905090565b600067ffffffffffffffff8211156136b9576136b8613924565b5b6136c282613967565b9050602081019050919050565b60008190508160005260206000209050919050565b600081519050919050565b600081905092915050565b600082825260208201905092915050565b60006137168261379f565b91506137218361379f565b9250827fffffffffffffffffffffffffffffffffffffffffffffffffffffffffffffffff0382111561375657613755613897565b5b828201905092915050565b600061376c8261377f565b9050919050565b60008115159050919050565b600073ffffffffffffffffffffffffffffffffffffffff82169050919050565b6000819050919050565b82818337600083830152505050565b60005b838110156137d65780820151818401526020810190506137bb565b838111156137e5576000848401525b50505050565b6000600282049050600182168061380357607f821691505b60208210811415613817576138166138c6565b5b50919050565b61382682613967565b810181811067ffffffffffffffff8211171561384557613844613924565b5b80604052505050565b60006138598261379f565b91507fffffffffffffffffffffffffffffffffffffffffffffffffffffffffffffffff82141561388c5761388b613897565b5b600182019050919050565b7f4e487b7100000000000000000000000000000000000000000000000000000000600052601160045260246000fd5b7f4e487b7100000000000000000000000000000000000000000000000000000000600052602260045260246000fd5b7f4e487b7100000000000000000000000000000000000000000000000000000000600052603260045260246000fd5b7f4e487b7100000000000000000000000000000000000000000000000000000000600052604160045260246000fd5b600080fd5b600080fd5b600080fd5b600080fd5b6000601f19601f8301169050919050565b7f446f63746f72206973206e6f7420417070726f766564206f7220646f65736e2760008201527f7420657869737400000000000000000000000000000000000000000000000000602082015250565b7f416c72656164792050617469656e74206163636f756e74206578697374730000600082015250565b7f596f752063616e27742072656d6f766520796f757273656c6600000000000000600082015250565b7f416c726561647920526567697374657265640000000000000000000000000000600082015250565b7f4e6f2050617469656e747320666f756e642061742074686520676976656e206160008201527f6464726573730000000000000000000000000000000000000000000000000000602082015250565b7f446f63746f7220494420646f65736e2774206578697374730000000000000000600082015250565b7f5265636f72642063616e6e6f7420626520616363657373656400000000000000600082015250565b7f55736572206973206e6f7420617574686f72697a656420796574000000000000600082015250565b7f596f752063616e6e6f742061646420796f757273656c66000000000000000000600082015250565b7f4e6f2070617469656e7420666f756e642061742074686520676976656e20616460008201527f6472657373000000000000000000000000000000000000000000000000000000602082015250565b7f5573657220697320616c726561647920617574686f72697a6564000000000000600082015250565b7f446f63746f7220646f65736e277420657869737473207769746820746865206760008201527f6976656e206e616d650000000000000000000000000000000000000000000000602082015250565b7f5265636f72642063616e6e6f7420626520616464656420000000000000000000600082015250565b613c2e81613761565b8114613c3957600080fd5b50565b613c458161379f565b8114613c5057600080fd5b5056fea26469706673582212203b7476f480ebc3e2ccb9e3194b6ebd2e3c416eaec1e12d79a1953d7dc628f71664736f6c63430008050033",
  "immutableReferences": {},
  "source": "// SPDX-License-Identifier: MIT\n\npragma solidity ^0.8.4;\n\ncontract meDossier{\n    \n    uint256 public pindex=0;\n    uint256 public dindex=0;\n    \n    struct Records {\n    string dname;\n    string reason;\n    string visitedDate;\n    string ipfs;\n    }\n\n    struct doctor {\n        uint256 id;\n        string name;\n        string contact;\n        string hname;\n        string faculty;\n        address addr;\n        bool isApproved;\n    }\n    \n    struct patient{\n        uint256 id;\n        string name;\n        string phone;\n        string gender;\n        string dob;\n        string bloodgroup;\n        Records[] records;\n        address addr;\n    }\n address[] private patientList;\n    address[] public doctorList;\n\n    mapping(address=>patient) patients;\n    mapping(address=>doctor) doctors;\n    mapping(address=>bool) isPatient;\n    mapping(address=>bool) isDoctor;\n\n    mapping(address=>mapping(address=>bool)) Authorized;\n\n\n    function addRecord(string memory _dname,string memory _reason,string memory _visitedDate,string memory _ipfs, address addr) public{\n        require(isPatient[addr],\"No patient found at the given address\");\n        \n        if(Authorized[addr][msg.sender] || msg.sender == addr){\n                patients[addr].records.push(Records(_dname,_reason,_visitedDate,_ipfs));\n        }\n        else \n        revert(\"Record cannot be added \");\n       \n       \n        // require(Authorized[addr][msg.sender],\"You do not have permission to add records!\");\n        // require(isPatient[addr],\"User Not registered\");\n        // patients[addr].records.push(Records(_dname,_reason,_visitedDate,_ipfs));\n    }\n    \n    function addPatient(string memory _name,string memory _phone,string memory _gender,string memory _dob,string memory _bloodgroup) public {\n        require(!isPatient[msg.sender],\"Already Patient account exists\");\n        patientList.push(msg.sender);\n        pindex = pindex + 1;\n        isPatient[msg.sender]=true;\n        patients[msg.sender].id=pindex;\n        patients[msg.sender].name=_name;\n        patients[msg.sender].phone=_phone;\n        patients[msg.sender].gender=_gender;\n        patients[msg.sender].dob=_dob;\n        patients[msg.sender].bloodgroup=_bloodgroup;\n        patients[msg.sender].addr=msg.sender;\n        \n    }\n    \n    function getPatientDetails(address _addr) public view returns(string memory _name,string memory _phone,string memory _gender,string memory _dob,string memory _bloodgroup){\n        require(isPatient[_addr],\"No Patients found at the given address\");\n        patient memory pat = patients[_addr];\n        return (pat.name,pat.phone,pat.gender,pat.dob,pat.bloodgroup);\n    }\n    \n     \n     function getrecordlist(address _addr)  public view returns (uint256 ){\n     \n     return (patients[_addr].records.length);\n     }\n    \n    function getPatientRecords(address _addr, uint256 _id) public view \n    returns(string memory dname, string memory reason ,string memory visitedDate, string memory ipfs){\n        require(isPatient[_addr],\"No patient found at the given address\");\n        if(Authorized[_addr][msg.sender] || msg.sender == _addr){\n                return( patients[_addr].records[_id].dname,patients[_addr].records[_id].reason,\n                patients[_addr].records[_id].visitedDate,patients[_addr].records[_id].ipfs\n                    );\n        }\n        else \n        revert(\"Record cannot be accessed\");\n    }\n\n\n\n    function addDoctor(string memory _name,string memory _hname,string memory _faculty,string memory _contact) public {\n        require(!isDoctor[msg.sender],\"Already Registered\");\n        address _addr = msg.sender;\n        doctorList.push(_addr);\n\n        dindex = dindex + 1;\n        isDoctor[_addr]=true;\n        doctors[_addr]=doctor(dindex,_name,_contact,_hname,_faculty,_addr,true);\n    }\n    \n    function getDoctorbyId(uint256 _id) public view returns(uint256 id,string memory name , string memory contact ,string memory hname ,string memory faculty ,address addr , bool isApproved)  {\n        uint256 i=0;\n        for(i = 0;i<doctorList.length;i++){\n        if(doctors[doctorList[i]].id==_id){\n            break;\n        }\n    }    \n        require(doctors[doctorList[i]].id==_id,\"Doctor ID doesn't exists\");\n        doctor memory doc = doctors[doctorList[i]];\n        return (doc.id,doc.name,doc.contact,doc.hname,doc.faculty,doc.addr, doc.isApproved);\n    }\n\n        function getDoctorbyName(string memory _name) public view returns(uint256 id,string memory name , string memory contact ,string memory hname ,string memory faculty ,address addr , bool isApproved)  {\n        uint256 i=0;\n        for(i = 0;i<doctorList.length;i++){\n        if(keccak256(bytes(doctors[doctorList[i]].name)) == keccak256(bytes(_name))){\n            break;\n        }\n    }    \n        require(keccak256(bytes(doctors[doctorList[i]].name)) == keccak256(bytes(_name)),\"Doctor doesn't exists with the given name\");\n        doctor memory doc = doctors[doctorList[i]];\n        return (doc.id,doc.name,doc.contact,doc.hname,doc.faculty,doc.addr, doc.isApproved);\n    }\n    \n\n    function getDoctorByAddress(address _address) public view returns(uint256 id,string memory name , string memory contact ,string memory hname ,string memory faculty ,address addr , bool isApproved) {\n        require(doctors[_address].isApproved,\"Doctor is not Approved or doesn't exist\");\n        doctor memory doc = doctors[_address];\n        return (doc.id,doc.name,doc.contact,doc.hname,doc.faculty,doc.addr,doc.isApproved);\n    }  \n\n//Give access to certain address\n    function grantAccess(address _addr) public returns (bool success)\n    {   require(msg.sender != _addr,\"You cannot add yourself\");\n        require(!Authorized[msg.sender][_addr],\"User is already authorized\");\n        Authorized[msg.sender][_addr] = true;\n        return true;\n    }\n\n//Revoke access of patient records fromcertain address\n      function revoke_access(address _addr)  public returns (bool success){\n        require(msg.sender!=_addr,\"You can't remove yourself\");\n        require(Authorized[msg.sender][_addr],\"User is not authorized yet\");\n        Authorized[msg.sender][_addr] = false;\n        return true;\n    }\n    \n\n}",
  "sourcePath": "/home/anu/Blockchain/Assignments/Blockchain/contracts/Medossier.sol",
  "compiler": {
    "name": "solc",
    "version": "0.8.5+commit.a4f2e591.Emscripten.clang"
  },
  "schemaVersion": "3.4.0",
  "updatedAt": "2021-06-18T09:55:11.647Z",
  "devdoc": {
    "kind": "dev",
    "methods": {},
    "version": 1
  },
  "userdoc": {
    "kind": "user",
    "methods": {},
    "version": 1
  }
}