{
  "contractName": "Doctor",
  "abi": [
    {
      "constant": true,
      "inputs": [
        {
          "internalType": "uint256",
          "name": "",
          "type": "uint256"
        }
      ],
      "name": "doctorList",
      "outputs": [
        {
          "internalType": "address",
          "name": "",
          "type": "address"
        }
      ],
      "payable": false,
      "stateMutability": "view",
      "type": "function"
    },
    {
      "constant": true,
      "inputs": [],
      "name": "index",
      "outputs": [
        {
          "internalType": "uint256",
          "name": "",
          "type": "uint256"
        }
      ],
      "payable": false,
      "stateMutability": "view",
      "type": "function"
    },
    {
      "constant": false,
      "inputs": [
        {
          "internalType": "string",
          "name": "_name",
          "type": "string"
        },
        {
          "internalType": "string",
          "name": "_contact",
          "type": "string"
        },
        {
          "internalType": "address",
          "name": "_addr",
          "type": "address"
        }
      ],
      "name": "addDoctor",
      "outputs": [],
      "payable": false,
      "stateMutability": "nonpayable",
      "type": "function"
    },
    {
      "constant": true,
      "inputs": [
        {
          "internalType": "uint256",
          "name": "_id",
          "type": "uint256"
        }
      ],
      "name": "getDoctorbyId",
      "outputs": [
        {
          "internalType": "uint256",
          "name": "id",
          "type": "uint256"
        },
        {
          "internalType": "string",
          "name": "name",
          "type": "string"
        },
        {
          "internalType": "string",
          "name": "contact",
          "type": "string"
        },
        {
          "internalType": "address",
          "name": "addr",
          "type": "address"
        },
        {
          "internalType": "bool",
          "name": "isApproved",
          "type": "bool"
        }
      ],
      "payable": false,
      "stateMutability": "view",
      "type": "function"
    },
    {
      "constant": true,
      "inputs": [
        {
          "internalType": "address",
          "name": "_address",
          "type": "address"
        }
      ],
      "name": "getDoctorByAddress",
      "outputs": [
        {
          "internalType": "uint256",
          "name": "id",
          "type": "uint256"
        },
        {
          "internalType": "string",
          "name": "name",
          "type": "string"
        },
        {
          "internalType": "string",
          "name": "contact",
          "type": "string"
        },
        {
          "internalType": "address",
          "name": "addr",
          "type": "address"
        },
        {
          "internalType": "bool",
          "name": "isApproved",
          "type": "bool"
        }
      ],
      "payable": false,
      "stateMutability": "view",
      "type": "function"
    }
  ],
  "bytecode": "0x608060405234801561001057600080fd5b50611074806100206000396000f3fe608060405234801561001057600080fd5b50600436106100575760003560e01c8063127ca4b41461005c5780632986c0e5146100ca57806358c5d4bf146100e857806376017e5e14610256578063b2861ea9146103c8575b600080fd5b6100886004803603602081101561007257600080fd5b8101908080359060200190929190505050610520565b604051808273ffffffffffffffffffffffffffffffffffffffff1673ffffffffffffffffffffffffffffffffffffffff16815260200191505060405180910390f35b6100d261055c565b6040518082815260200191505060405180910390f35b61012a600480360360208110156100fe57600080fd5b81019080803573ffffffffffffffffffffffffffffffffffffffff169060200190929190505050610562565b6040518086815260200180602001806020018573ffffffffffffffffffffffffffffffffffffffff1673ffffffffffffffffffffffffffffffffffffffff16815260200184151515158152602001838103835287818151815260200191508051906020019080838360005b838110156101b0578082015181840152602081019050610195565b50505050905090810190601f1680156101dd5780820380516001836020036101000a031916815260200191505b50838103825286818151815260200191508051906020019080838360005b838110156102165780820151818401526020810190506101fb565b50505050905090810190601f1680156102435780820380516001836020036101000a031916815260200191505b5097505050505050505060405180910390f35b6103c66004803603606081101561026c57600080fd5b810190808035906020019064010000000081111561028957600080fd5b82018360208201111561029b57600080fd5b803590602001918460018302840111640100000000831117156102bd57600080fd5b91908080601f016020809104026020016040519081016040528093929190818152602001838380828437600081840152601f19601f8201169050808301925050505050505091929192908035906020019064010000000081111561032057600080fd5b82018360208201111561033257600080fd5b8035906020019184600183028401116401000000008311171561035457600080fd5b91908080601f016020809104026020016040519081016040528093929190818152602001838380828437600081840152601f19601f820116905080830192505050505050509192919290803573ffffffffffffffffffffffffffffffffffffffff169060200190929190505050610855565b005b6103f4600480360360208110156103de57600080fd5b8101908080359060200190929190505050610b12565b6040518086815260200180602001806020018573ffffffffffffffffffffffffffffffffffffffff1673ffffffffffffffffffffffffffffffffffffffff16815260200184151515158152602001838103835287818151815260200191508051906020019080838360005b8381101561047a57808201518184015260208101905061045f565b50505050905090810190601f1680156104a75780820380516001836020036101000a031916815260200191505b50838103825286818151815260200191508051906020019080838360005b838110156104e05780820151818401526020810190506104c5565b50505050905090810190601f16801561050d5780820380516001836020036101000a031916815260200191505b5097505050505050505060405180910390f35b6003818154811061052d57fe5b906000526020600020016000915054906101000a900473ffffffffffffffffffffffffffffffffffffffff1681565b60005481565b6000606080600080600260008773ffffffffffffffffffffffffffffffffffffffff1673ffffffffffffffffffffffffffffffffffffffff16815260200190815260200160002060030160149054906101000a900460ff1661060f576040517f08c379a00000000000000000000000000000000000000000000000000000000081526004018080602001828103825260278152602001806110196027913960400191505060405180910390fd5b610617610f2c565b600260008873ffffffffffffffffffffffffffffffffffffffff1673ffffffffffffffffffffffffffffffffffffffff1681526020019081526020016000206040518060a001604052908160008201548152602001600182018054600181600116156101000203166002900480601f0160208091040260200160405190810160405280929190818152602001828054600181600116156101000203166002900480156107045780601f106106d957610100808354040283529160200191610704565b820191906000526020600020905b8154815290600101906020018083116106e757829003601f168201915b50505050508152602001600282018054600181600116156101000203166002900480601f0160208091040260200160405190810160405280929190818152602001828054600181600116156101000203166002900480156107a65780601f1061077b576101008083540402835291602001916107a6565b820191906000526020600020905b81548152906001019060200180831161078957829003601f168201915b505050505081526020016003820160009054906101000a900473ffffffffffffffffffffffffffffffffffffffff1673ffffffffffffffffffffffffffffffffffffffff1673ffffffffffffffffffffffffffffffffffffffff1681526020016003820160149054906101000a900460ff161515151581525050905080600001518160200151826040015183606001518460800151839350829250955095509550955095505091939590929450565b600160008273ffffffffffffffffffffffffffffffffffffffff1673ffffffffffffffffffffffffffffffffffffffff16815260200190815260200160002060009054906101000a900460ff1615610915576040517f08c379a00000000000000000000000000000000000000000000000000000000081526004018080602001828103825260128152602001807f416c72656164792052656769737465726564000000000000000000000000000081525060200191505060405180910390fd5b60038190806001815401808255809150509060018203906000526020600020016000909192909190916101000a81548173ffffffffffffffffffffffffffffffffffffffff021916908373ffffffffffffffffffffffffffffffffffffffff1602179055505060016000540160008190555060018060008373ffffffffffffffffffffffffffffffffffffffff1673ffffffffffffffffffffffffffffffffffffffff16815260200190815260200160002060006101000a81548160ff0219169083151502179055506040518060a0016040528060005481526020018481526020018381526020018273ffffffffffffffffffffffffffffffffffffffff16815260200160011515815250600260008373ffffffffffffffffffffffffffffffffffffffff1673ffffffffffffffffffffffffffffffffffffffff168152602001908152602001600020600082015181600001556020820151816001019080519060200190610a85929190610f73565b506040820151816002019080519060200190610aa2929190610f73565b5060608201518160030160006101000a81548173ffffffffffffffffffffffffffffffffffffffff021916908373ffffffffffffffffffffffffffffffffffffffff16021790555060808201518160030160146101000a81548160ff021916908315150217905550905050505050565b600060608060008060008090505b600380549050811015610bc057866002600060038481548110610b3f57fe5b9060005260206000200160009054906101000a900473ffffffffffffffffffffffffffffffffffffffff1673ffffffffffffffffffffffffffffffffffffffff1673ffffffffffffffffffffffffffffffffffffffff168152602001908152602001600020600001541415610bb357610bc0565b8080600101915050610b20565b866002600060038481548110610bd257fe5b9060005260206000200160009054906101000a900473ffffffffffffffffffffffffffffffffffffffff1673ffffffffffffffffffffffffffffffffffffffff1673ffffffffffffffffffffffffffffffffffffffff1681526020019081526020016000206000015414610cae576040517f08c379a00000000000000000000000000000000000000000000000000000000081526004018080602001828103825260188152602001807f446f63746f7220494420646f65736e277420657869737473000000000000000081525060200191505060405180910390fd5b610cb6610f2c565b6002600060038481548110610cc757fe5b9060005260206000200160009054906101000a900473ffffffffffffffffffffffffffffffffffffffff1673ffffffffffffffffffffffffffffffffffffffff1673ffffffffffffffffffffffffffffffffffffffff1681526020019081526020016000206040518060a001604052908160008201548152602001600182018054600181600116156101000203166002900480601f016020809104026020016040519081016040528092919081815260200182805460018160011615610100020316600290048015610dda5780601f10610daf57610100808354040283529160200191610dda565b820191906000526020600020905b815481529060010190602001808311610dbd57829003601f168201915b50505050508152602001600282018054600181600116156101000203166002900480601f016020809104026020016040519081016040528092919081815260200182805460018160011615610100020316600290048015610e7c5780601f10610e5157610100808354040283529160200191610e7c565b820191906000526020600020905b815481529060010190602001808311610e5f57829003601f168201915b505050505081526020016003820160009054906101000a900473ffffffffffffffffffffffffffffffffffffffff1673ffffffffffffffffffffffffffffffffffffffff1673ffffffffffffffffffffffffffffffffffffffff1681526020016003820160149054906101000a900460ff16151515158152505090508060000151816020015182604001518360600151846080015183935082925096509650965096509650505091939590929450565b6040518060a00160405280600081526020016060815260200160608152602001600073ffffffffffffffffffffffffffffffffffffffff1681526020016000151581525090565b828054600181600116156101000203166002900490600052602060002090601f016020900481019282601f10610fb457805160ff1916838001178555610fe2565b82800160010185558215610fe2579182015b82811115610fe1578251825591602001919060010190610fc6565b5b509050610fef9190610ff3565b5090565b61101591905b80821115611011576000816000905550600101610ff9565b5090565b9056fe446f63746f72206973206e6f7420417070726f766564206f7220646f65736e2774206578697374a265627a7a723158207e7788be8b790650ed57661180c360d691f5d58f20a37322a9184d7348ac9f2364736f6c63430005100032",
  "source": "pragma solidity >=0.4.22 <0.9.0;\n\ncontract Doctor  {\n    uint256 public index;\n    mapping(address=>bool) isDoctor;\n    struct doctor {\n        uint256 id;\n        string name;\n        string contact;\n        address addr;\n        bool isApproved;\n    }\n    mapping(address=>doctor) doctors;\n    address[] public doctorList;\n    \n    \n    function addDoctor(string memory _name,string memory _contact,address _addr) public {\n        require(!isDoctor[_addr],\"Already Registered\");\n        doctorList.push(_addr);\n        index = index + 1;\n        isDoctor[_addr]=true;\n        doctors[_addr]=doctor(index,_name,_contact,_addr,true);\n    }\n    \n    function getDoctorbyId(uint256 _id) public view returns(uint256 id,string memory name , string memory contact ,address addr , bool isApproved)  {\n        uint256 i=0;\n        for(;i<doctorList.length;i++){\n        if(doctors[doctorList[i]].id==_id){\n            break;\n        }\n    }    \n        require(doctors[doctorList[i]].id==_id,\"Doctor ID doesn't exists\");\n        doctor memory doc = doctors[doctorList[i]];\n        return (doc.id,doc.name,doc.contact,doc.addr, doc.isApproved);\n    }\n    \n    function getDoctorByAddress(address _address) public view returns(uint256 id,string memory name, string memory contact ,address addr , bool isApproved) {\n        require(doctors[_address].isApproved,\"Doctor is not Approved or doesn't exist\");\n        doctor memory doc = doctors[_address];\n        return (doc.id,doc.name,doc.contact,doc.addr,doc.isApproved);\n    }    \n    \n}\n",
  "sourcePath": "/home/ranju/location/meDossier/contracts/doctorContract.sol",
  "compiler": {
    "name": "solc",
    "version": "0.5.16+commit.9c3226ce.Emscripten.clang"
  },
  "schemaVersion": "3.4.1",
  "updatedAt": "2021-06-12T12:30:41.159Z",
  "devdoc": {
    "methods": {}
  },
  "userdoc": {
    "methods": {}
  }
}