{
  "contractName": "meDossier",
  "abi": [
    {
      "constant": true,
      "inputs": [],
      "name": "dindex",
      "outputs": [
        {
          "internalType": "uint256",
          "name": "",
          "type": "uint256"
        }
      ],
      "payable": false,
      "stateMutability": "view",
      "type": "function"
    },
    {
      "constant": true,
      "inputs": [
        {
          "internalType": "uint256",
          "name": "",
          "type": "uint256"
        }
      ],
      "name": "doctorList",
      "outputs": [
        {
          "internalType": "address",
          "name": "",
          "type": "address"
        }
      ],
      "payable": false,
      "stateMutability": "view",
      "type": "function"
    },
    {
      "constant": true,
      "inputs": [],
      "name": "pindex",
      "outputs": [
        {
          "internalType": "uint256",
          "name": "",
          "type": "uint256"
        }
      ],
      "payable": false,
      "stateMutability": "view",
      "type": "function"
    },
    {
      "constant": false,
      "inputs": [
        {
          "internalType": "string",
          "name": "_dname",
          "type": "string"
        },
        {
          "internalType": "string",
          "name": "_reason",
          "type": "string"
        },
        {
          "internalType": "string",
          "name": "_visitedDate",
          "type": "string"
        },
        {
          "internalType": "string",
          "name": "_ipfs",
          "type": "string"
        },
        {
          "internalType": "address",
          "name": "addr",
          "type": "address"
        }
      ],
      "name": "addRecord",
      "outputs": [],
      "payable": false,
      "stateMutability": "nonpayable",
      "type": "function"
    },
    {
      "constant": false,
      "inputs": [
        {
          "internalType": "string",
          "name": "_name",
          "type": "string"
        },
        {
          "internalType": "string",
          "name": "_phone",
          "type": "string"
        },
        {
          "internalType": "string",
          "name": "_gender",
          "type": "string"
        },
        {
          "internalType": "string",
          "name": "_dob",
          "type": "string"
        },
        {
          "internalType": "string",
          "name": "_bloodgroup",
          "type": "string"
        }
      ],
      "name": "addPatient",
      "outputs": [],
      "payable": false,
      "stateMutability": "nonpayable",
      "type": "function"
    },
    {
      "constant": true,
      "inputs": [
        {
          "internalType": "address",
          "name": "_addr",
          "type": "address"
        }
      ],
      "name": "getPatientDetails",
      "outputs": [
        {
          "internalType": "string",
          "name": "_name",
          "type": "string"
        },
        {
          "internalType": "string",
          "name": "_phone",
          "type": "string"
        },
        {
          "internalType": "string",
          "name": "_gender",
          "type": "string"
        },
        {
          "internalType": "string",
          "name": "_dob",
          "type": "string"
        },
        {
          "internalType": "string",
          "name": "_bloodgroup",
          "type": "string"
        }
      ],
      "payable": false,
      "stateMutability": "view",
      "type": "function"
    },
    {
      "constant": true,
      "inputs": [
        {
          "internalType": "address",
          "name": "_addr",
          "type": "address"
        }
      ],
      "name": "getrecordlist",
      "outputs": [
        {
          "internalType": "uint256",
          "name": "",
          "type": "uint256"
        }
      ],
      "payable": false,
      "stateMutability": "view",
      "type": "function"
    },
    {
      "constant": true,
      "inputs": [
        {
          "internalType": "address",
          "name": "_addr",
          "type": "address"
        },
        {
          "internalType": "uint256",
          "name": "_id",
          "type": "uint256"
        }
      ],
      "name": "getPatientRecords",
      "outputs": [
        {
          "internalType": "string",
          "name": "dname",
          "type": "string"
        },
        {
          "internalType": "string",
          "name": "reason",
          "type": "string"
        },
        {
          "internalType": "string",
          "name": "visitedDate",
          "type": "string"
        },
        {
          "internalType": "string",
          "name": "ipfs",
          "type": "string"
        }
      ],
      "payable": false,
      "stateMutability": "view",
      "type": "function"
    },
    {
      "constant": false,
      "inputs": [
        {
          "internalType": "string",
          "name": "_name",
          "type": "string"
        },
        {
          "internalType": "string",
          "name": "_hname",
          "type": "string"
        },
        {
          "internalType": "string",
          "name": "_faculty",
          "type": "string"
        },
        {
          "internalType": "string",
          "name": "_contact",
          "type": "string"
        }
      ],
      "name": "addDoctor",
      "outputs": [],
      "payable": false,
      "stateMutability": "nonpayable",
      "type": "function"
    },
    {
      "constant": true,
      "inputs": [
        {
          "internalType": "uint256",
          "name": "_id",
          "type": "uint256"
        }
      ],
      "name": "getDoctorbyId",
      "outputs": [
        {
          "internalType": "uint256",
          "name": "id",
          "type": "uint256"
        },
        {
          "internalType": "string",
          "name": "name",
          "type": "string"
        },
        {
          "internalType": "string",
          "name": "contact",
          "type": "string"
        },
        {
          "internalType": "string",
          "name": "hname",
          "type": "string"
        },
        {
          "internalType": "string",
          "name": "faculty",
          "type": "string"
        },
        {
          "internalType": "address",
          "name": "addr",
          "type": "address"
        },
        {
          "internalType": "bool",
          "name": "isApproved",
          "type": "bool"
        }
      ],
      "payable": false,
      "stateMutability": "view",
      "type": "function"
    },
    {
      "constant": true,
      "inputs": [
        {
          "internalType": "string",
          "name": "_name",
          "type": "string"
        }
      ],
      "name": "getDoctorbyName",
      "outputs": [
        {
          "internalType": "uint256",
          "name": "id",
          "type": "uint256"
        },
        {
          "internalType": "string",
          "name": "name",
          "type": "string"
        },
        {
          "internalType": "string",
          "name": "contact",
          "type": "string"
        },
        {
          "internalType": "string",
          "name": "hname",
          "type": "string"
        },
        {
          "internalType": "string",
          "name": "faculty",
          "type": "string"
        },
        {
          "internalType": "address",
          "name": "addr",
          "type": "address"
        },
        {
          "internalType": "bool",
          "name": "isApproved",
          "type": "bool"
        }
      ],
      "payable": false,
      "stateMutability": "view",
      "type": "function"
    },
    {
      "constant": true,
      "inputs": [
        {
          "internalType": "address",
          "name": "_address",
          "type": "address"
        }
      ],
      "name": "getDoctorByAddress",
      "outputs": [
        {
          "internalType": "uint256",
          "name": "id",
          "type": "uint256"
        },
        {
          "internalType": "string",
          "name": "name",
          "type": "string"
        },
        {
          "internalType": "string",
          "name": "contact",
          "type": "string"
        },
        {
          "internalType": "string",
          "name": "hname",
          "type": "string"
        },
        {
          "internalType": "string",
          "name": "faculty",
          "type": "string"
        },
        {
          "internalType": "address",
          "name": "addr",
          "type": "address"
        },
        {
          "internalType": "bool",
          "name": "isApproved",
          "type": "bool"
        }
      ],
      "payable": false,
      "stateMutability": "view",
      "type": "function"
    },
    {
      "constant": false,
      "inputs": [
        {
          "internalType": "address",
          "name": "_addr",
          "type": "address"
        }
      ],
      "name": "grantAccess",
      "outputs": [
        {
          "internalType": "bool",
          "name": "success",
          "type": "bool"
        }
      ],
      "payable": false,
      "stateMutability": "nonpayable",
      "type": "function"
    },
    {
      "constant": false,
      "inputs": [
        {
          "internalType": "address",
          "name": "_addr",
          "type": "address"
        }
      ],
      "name": "revoke_access",
      "outputs": [
        {
          "internalType": "bool",
          "name": "success",
          "type": "bool"
        }
      ],
      "payable": false,
      "stateMutability": "nonpayable",
      "type": "function"
    }
  ],
  "bytecode": "0x608060405260008055600060015534801561001957600080fd5b506145cc806100296000396000f3fe608060405234801561001057600080fd5b50600436106100ea5760003560e01c806356fa82171161008c57806391d4eb861161006657806391d4eb8614610f13578063928ed9da146111d0578063b2861ea9146111ee578063efe2ccc11461141e576100ea565b806356fa82171461071657806358c5d4bf14610a2d57806370333b8014610c73576100ea565b806327b1dcee116100c857806327b1dcee146102115780632874a75f1461026d57806332aa4aa7146104785780635658e43b146106f8576100ea565b80630ae5e739146100ef578063127ca4b41461014b578063248c6a31146101b9575b600080fd5b6101316004803603602081101561010557600080fd5b81019080803573ffffffffffffffffffffffffffffffffffffffff16906020019092919050505061168b565b604051808215151515815260200191505060405180910390f35b6101776004803603602081101561016157600080fd5b81019080803590602001909291905050506118ca565b604051808273ffffffffffffffffffffffffffffffffffffffff1673ffffffffffffffffffffffffffffffffffffffff16815260200191505060405180910390f35b6101fb600480360360208110156101cf57600080fd5b81019080803573ffffffffffffffffffffffffffffffffffffffff169060200190929190505050611906565b6040518082815260200191505060405180910390f35b6102536004803603602081101561022757600080fd5b81019080803573ffffffffffffffffffffffffffffffffffffffff169060200190929190505050611955565b604051808215151515815260200191505060405180910390f35b6102b96004803603604081101561028357600080fd5b81019080803573ffffffffffffffffffffffffffffffffffffffff16906020019092919080359060200190929190505050611b93565b6040518080602001806020018060200180602001858103855289818151815260200191508051906020019080838360005b838110156103055780820151818401526020810190506102ea565b50505050905090810190601f1680156103325780820380516001836020036101000a031916815260200191505b50858103845288818151815260200191508051906020019080838360005b8381101561036b578082015181840152602081019050610350565b50505050905090810190601f1680156103985780820380516001836020036101000a031916815260200191505b50858103835287818151815260200191508051906020019080838360005b838110156103d15780820151818401526020810190506103b6565b50505050905090810190601f1680156103fe5780820380516001836020036101000a031916815260200191505b50858103825286818151815260200191508051906020019080838360005b8381101561043757808201518184015260208101905061041c565b50505050905090810190601f1680156104645780820380516001836020036101000a031916815260200191505b509850505050505050505060405180910390f35b6106f66004803603608081101561048e57600080fd5b81019080803590602001906401000000008111156104ab57600080fd5b8201836020820111156104bd57600080fd5b803590602001918460018302840111640100000000831117156104df57600080fd5b91908080601f016020809104026020016040519081016040528093929190818152602001838380828437600081840152601f19601f8201169050808301925050505050505091929192908035906020019064010000000081111561054257600080fd5b82018360208201111561055457600080fd5b8035906020019184600183028401116401000000008311171561057657600080fd5b91908080601f016020809104026020016040519081016040528093929190818152602001838380828437600081840152601f19601f820116905080830192505050505050509192919290803590602001906401000000008111156105d957600080fd5b8201836020820111156105eb57600080fd5b8035906020019184600183028401116401000000008311171561060d57600080fd5b91908080601f016020809104026020016040519081016040528093929190818152602001838380828437600081840152601f19601f8201169050808301925050505050505091929192908035906020019064010000000081111561067057600080fd5b82018360208201111561068257600080fd5b803590602001918460018302840111640100000000831117156106a457600080fd5b91908080601f016020809104026020016040519081016040528093929190818152602001838380828437600081840152601f19601f82011690508083019250505050505050919291929050505061216c565b005b610700612476565b6040518082815260200191505060405180910390f35b610a2b600480360360a081101561072c57600080fd5b810190808035906020019064010000000081111561074957600080fd5b82018360208201111561075b57600080fd5b8035906020019184600183028401116401000000008311171561077d57600080fd5b91908080601f016020809104026020016040519081016040528093929190818152602001838380828437600081840152601f19601f820116905080830192505050505050509192919290803590602001906401000000008111156107e057600080fd5b8201836020820111156107f257600080fd5b8035906020019184600183028401116401000000008311171561081457600080fd5b91908080601f016020809104026020016040519081016040528093929190818152602001838380828437600081840152601f19601f8201169050808301925050505050505091929192908035906020019064010000000081111561087757600080fd5b82018360208201111561088957600080fd5b803590602001918460018302840111640100000000831117156108ab57600080fd5b91908080601f016020809104026020016040519081016040528093929190818152602001838380828437600081840152601f19601f8201169050808301925050505050505091929192908035906020019064010000000081111561090e57600080fd5b82018360208201111561092057600080fd5b8035906020019184600183028401116401000000008311171561094257600080fd5b91908080601f016020809104026020016040519081016040528093929190818152602001838380828437600081840152601f19601f820116905080830192505050505050509192919290803590602001906401000000008111156109a557600080fd5b8201836020820111156109b757600080fd5b803590602001918460018302840111640100000000831117156109d957600080fd5b91908080601f016020809104026020016040519081016040528093929190818152602001838380828437600081840152601f19601f82011690508083019250505050505050919291929050505061247c565b005b610a6f60048036036020811015610a4357600080fd5b81019080803573ffffffffffffffffffffffffffffffffffffffff16906020019092919050505061288a565b60405180888152602001806020018060200180602001806020018773ffffffffffffffffffffffffffffffffffffffff1673ffffffffffffffffffffffffffffffffffffffff1681526020018615151515815260200185810385528b818151815260200191508051906020019080838360005b83811015610afd578082015181840152602081019050610ae2565b50505050905090810190601f168015610b2a5780820380516001836020036101000a031916815260200191505b5085810384528a818151815260200191508051906020019080838360005b83811015610b63578082015181840152602081019050610b48565b50505050905090810190601f168015610b905780820380516001836020036101000a031916815260200191505b50858103835289818151815260200191508051906020019080838360005b83811015610bc9578082015181840152602081019050610bae565b50505050905090810190601f168015610bf65780820380516001836020036101000a031916815260200191505b50858103825288818151815260200191508051906020019080838360005b83811015610c2f578082015181840152602081019050610c14565b50505050905090810190601f168015610c5c5780820380516001836020036101000a031916815260200191505b509b50505050505050505050505060405180910390f35b610f11600480360360a0811015610c8957600080fd5b8101908080359060200190640100000000811115610ca657600080fd5b820183602082011115610cb857600080fd5b80359060200191846001830284011164010000000083111715610cda57600080fd5b91908080601f016020809104026020016040519081016040528093929190818152602001838380828437600081840152601f19601f82011690508083019250505050505050919291929080359060200190640100000000811115610d3d57600080fd5b820183602082011115610d4f57600080fd5b80359060200191846001830284011164010000000083111715610d7157600080fd5b91908080601f016020809104026020016040519081016040528093929190818152602001838380828437600081840152601f19601f82011690508083019250505050505050919291929080359060200190640100000000811115610dd457600080fd5b820183602082011115610de657600080fd5b80359060200191846001830284011164010000000083111715610e0857600080fd5b91908080601f016020809104026020016040519081016040528093929190818152602001838380828437600081840152601f19601f82011690508083019250505050505050919291929080359060200190640100000000811115610e6b57600080fd5b820183602082011115610e7d57600080fd5b80359060200191846001830284011164010000000083111715610e9f57600080fd5b91908080601f016020809104026020016040519081016040528093929190818152602001838380828437600081840152601f19601f820116905080830192505050505050509192919290803573ffffffffffffffffffffffffffffffffffffffff169060200190929190505050612cda565b005b610fcc60048036036020811015610f2957600080fd5b8101908080359060200190640100000000811115610f4657600080fd5b820183602082011115610f5857600080fd5b80359060200191846001830284011164010000000083111715610f7a57600080fd5b91908080601f016020809104026020016040519081016040528093929190818152602001838380828437600081840152601f19601f820116905080830192505050505050509192919290505050612fc0565b60405180888152602001806020018060200180602001806020018773ffffffffffffffffffffffffffffffffffffffff1673ffffffffffffffffffffffffffffffffffffffff1681526020018615151515815260200185810385528b818151815260200191508051906020019080838360005b8381101561105a57808201518184015260208101905061103f565b50505050905090810190601f1680156110875780820380516001836020036101000a031916815260200191505b5085810384528a818151815260200191508051906020019080838360005b838110156110c05780820151818401526020810190506110a5565b50505050905090810190601f1680156110ed5780820380516001836020036101000a031916815260200191505b50858103835289818151815260200191508051906020019080838360005b8381101561112657808201518184015260208101905061110b565b50505050905090810190601f1680156111535780820380516001836020036101000a031916815260200191505b50858103825288818151815260200191508051906020019080838360005b8381101561118c578082015181840152602081019050611171565b50505050905090810190601f1680156111b95780820380516001836020036101000a031916815260200191505b509b50505050505050505050505060405180910390f35b6111d86135fa565b6040518082815260200191505060405180910390f35b61121a6004803603602081101561120457600080fd5b8101908080359060200190929190505050613600565b60405180888152602001806020018060200180602001806020018773ffffffffffffffffffffffffffffffffffffffff1673ffffffffffffffffffffffffffffffffffffffff1681526020018615151515815260200185810385528b818151815260200191508051906020019080838360005b838110156112a857808201518184015260208101905061128d565b50505050905090810190601f1680156112d55780820380516001836020036101000a031916815260200191505b5085810384528a818151815260200191508051906020019080838360005b8381101561130e5780820151818401526020810190506112f3565b50505050905090810190601f16801561133b5780820380516001836020036101000a031916815260200191505b50858103835289818151815260200191508051906020019080838360005b83811015611374578082015181840152602081019050611359565b50505050905090810190601f1680156113a15780820380516001836020036101000a031916815260200191505b50858103825288818151815260200191508051906020019080838360005b838110156113da5780820151818401526020810190506113bf565b50505050905090810190601f1680156114075780820380516001836020036101000a031916815260200191505b509b50505050505050505050505060405180910390f35b6114606004803603602081101561143457600080fd5b81019080803573ffffffffffffffffffffffffffffffffffffffff169060200190929190505050613b7b565b60405180806020018060200180602001806020018060200186810386528b818151815260200191508051906020019080838360005b838110156114b0578082015181840152602081019050611495565b50505050905090810190601f1680156114dd5780820380516001836020036101000a031916815260200191505b5086810385528a818151815260200191508051906020019080838360005b838110156115165780820151818401526020810190506114fb565b50505050905090810190601f1680156115435780820380516001836020036101000a031916815260200191505b50868103845289818151815260200191508051906020019080838360005b8381101561157c578082015181840152602081019050611561565b50505050905090810190601f1680156115a95780820380516001836020036101000a031916815260200191505b50868103835288818151815260200191508051906020019080838360005b838110156115e25780820151818401526020810190506115c7565b50505050905090810190601f16801561160f5780820380516001836020036101000a031916815260200191505b50868103825287818151815260200191508051906020019080838360005b8381101561164857808201518184015260208101905061162d565b50505050905090810190601f1680156116755780820380516001836020036101000a031916815260200191505b509a505050505050505050505060405180910390f35b60008173ffffffffffffffffffffffffffffffffffffffff163373ffffffffffffffffffffffffffffffffffffffff16141561172f576040517f08c379a00000000000000000000000000000000000000000000000000000000081526004018080602001828103825260178152602001807f596f752063616e6e6f742061646420796f757273656c6600000000000000000081525060200191505060405180910390fd5b600860003373ffffffffffffffffffffffffffffffffffffffff1673ffffffffffffffffffffffffffffffffffffffff16815260200190815260200160002060008373ffffffffffffffffffffffffffffffffffffffff1673ffffffffffffffffffffffffffffffffffffffff16815260200190815260200160002060009054906101000a900460ff161561182c576040517f08c379a000000000000000000000000000000000000000000000000000000000815260040180806020018281038252601a8152602001807f5573657220697320616c726561647920617574686f72697a656400000000000081525060200191505060405180910390fd5b6001600860003373ffffffffffffffffffffffffffffffffffffffff1673ffffffffffffffffffffffffffffffffffffffff16815260200190815260200160002060008473ffffffffffffffffffffffffffffffffffffffff1673ffffffffffffffffffffffffffffffffffffffff16815260200190815260200160002060006101000a81548160ff02191690831515021790555060019050919050565b600381815481106118d757fe5b906000526020600020016000915054906101000a900473ffffffffffffffffffffffffffffffffffffffff1681565b6000600460008373ffffffffffffffffffffffffffffffffffffffff1673ffffffffffffffffffffffffffffffffffffffff168152602001908152602001600020600601805490509050919050565b60008173ffffffffffffffffffffffffffffffffffffffff163373ffffffffffffffffffffffffffffffffffffffff1614156119f9576040517f08c379a00000000000000000000000000000000000000000000000000000000081526004018080602001828103825260198152602001807f596f752063616e27742072656d6f766520796f757273656c660000000000000081525060200191505060405180910390fd5b600860003373ffffffffffffffffffffffffffffffffffffffff1673ffffffffffffffffffffffffffffffffffffffff16815260200190815260200160002060008373ffffffffffffffffffffffffffffffffffffffff1673ffffffffffffffffffffffffffffffffffffffff16815260200190815260200160002060009054906101000a900460ff16611af5576040517f08c379a000000000000000000000000000000000000000000000000000000000815260040180806020018281038252601a8152602001807f55736572206973206e6f7420617574686f72697a65642079657400000000000081525060200191505060405180910390fd5b6000600860003373ffffffffffffffffffffffffffffffffffffffff1673ffffffffffffffffffffffffffffffffffffffff16815260200190815260200160002060008473ffffffffffffffffffffffffffffffffffffffff1673ffffffffffffffffffffffffffffffffffffffff16815260200190815260200160002060006101000a81548160ff02191690831515021790555060019050919050565b606080606080600660008773ffffffffffffffffffffffffffffffffffffffff1673ffffffffffffffffffffffffffffffffffffffff16815260200190815260200160002060009054906101000a900460ff16611c3b576040517f08c379a000000000000000000000000000000000000000000000000000000000815260040180806020018281038252602581526020018061454a6025913960400191505060405180910390fd5b600860008773ffffffffffffffffffffffffffffffffffffffff1673ffffffffffffffffffffffffffffffffffffffff16815260200190815260200160002060003373ffffffffffffffffffffffffffffffffffffffff1673ffffffffffffffffffffffffffffffffffffffff16815260200190815260200160002060009054906101000a900460ff1680611cfb57508573ffffffffffffffffffffffffffffffffffffffff163373ffffffffffffffffffffffffffffffffffffffff16145b156120f557600460008773ffffffffffffffffffffffffffffffffffffffff1673ffffffffffffffffffffffffffffffffffffffff1681526020019081526020016000206006018581548110611d4d57fe5b9060005260206000209060040201600001600460008873ffffffffffffffffffffffffffffffffffffffff1673ffffffffffffffffffffffffffffffffffffffff1681526020019081526020016000206006018681548110611dab57fe5b9060005260206000209060040201600101600460008973ffffffffffffffffffffffffffffffffffffffff1673ffffffffffffffffffffffffffffffffffffffff1681526020019081526020016000206006018781548110611e0957fe5b9060005260206000209060040201600201600460008a73ffffffffffffffffffffffffffffffffffffffff1673ffffffffffffffffffffffffffffffffffffffff1681526020019081526020016000206006018881548110611e6757fe5b9060005260206000209060040201600301838054600181600116156101000203166002900480601f016020809104026020016040519081016040528092919081815260200182805460018160011615610100020316600290048015611f0d5780601f10611ee257610100808354040283529160200191611f0d565b820191906000526020600020905b815481529060010190602001808311611ef057829003601f168201915b50505050509350828054600181600116156101000203166002900480601f016020809104026020016040519081016040528092919081815260200182805460018160011615610100020316600290048015611fa95780601f10611f7e57610100808354040283529160200191611fa9565b820191906000526020600020905b815481529060010190602001808311611f8c57829003601f168201915b50505050509250818054600181600116156101000203166002900480601f0160208091040260200160405190810160405280929190818152602001828054600181600116156101000203166002900480156120455780601f1061201a57610100808354040283529160200191612045565b820191906000526020600020905b81548152906001019060200180831161202857829003601f168201915b50505050509150808054600181600116156101000203166002900480601f0160208091040260200160405190810160405280929190818152602001828054600181600116156101000203166002900480156120e15780601f106120b6576101008083540402835291602001916120e1565b820191906000526020600020905b8154815290600101906020018083116120c457829003601f168201915b505050505090509350935093509350612163565b6040517f08c379a00000000000000000000000000000000000000000000000000000000081526004018080602001828103825260198152602001807f5265636f72642063616e6e6f742062652061636365737365640000000000000081525060200191505060405180910390fd5b92959194509250565b600760003373ffffffffffffffffffffffffffffffffffffffff1673ffffffffffffffffffffffffffffffffffffffff16815260200190815260200160002060009054906101000a900460ff161561222c576040517f08c379a00000000000000000000000000000000000000000000000000000000081526004018080602001828103825260128152602001807f416c72656164792052656769737465726564000000000000000000000000000081525060200191505060405180910390fd5b600033905060038190806001815401808255809150509060018203906000526020600020016000909192909190916101000a81548173ffffffffffffffffffffffffffffffffffffffff021916908373ffffffffffffffffffffffffffffffffffffffff1602179055505060018054016001819055506001600760008373ffffffffffffffffffffffffffffffffffffffff1673ffffffffffffffffffffffffffffffffffffffff16815260200190815260200160002060006101000a81548160ff0219169083151502179055506040518060e0016040528060015481526020018681526020018381526020018581526020018481526020018273ffffffffffffffffffffffffffffffffffffffff16815260200160011515815250600560008373ffffffffffffffffffffffffffffffffffffffff1673ffffffffffffffffffffffffffffffffffffffff1681526020019081526020016000206000820151816000015560208201518160010190805190602001906123ad929190614327565b5060408201518160020190805190602001906123ca929190614327565b5060608201518160030190805190602001906123e7929190614327565b506080820151816004019080519060200190612404929190614327565b5060a08201518160050160006101000a81548173ffffffffffffffffffffffffffffffffffffffff021916908373ffffffffffffffffffffffffffffffffffffffff16021790555060c08201518160050160146101000a81548160ff0219169083151502179055509050505050505050565b60005481565b600660003373ffffffffffffffffffffffffffffffffffffffff1673ffffffffffffffffffffffffffffffffffffffff16815260200190815260200160002060009054906101000a900460ff161561253c576040517f08c379a000000000000000000000000000000000000000000000000000000000815260040180806020018281038252601e8152602001807f416c72656164792050617469656e74206163636f756e7420657869737473000081525060200191505060405180910390fd5b60023390806001815401808255809150509060018203906000526020600020016000909192909190916101000a81548173ffffffffffffffffffffffffffffffffffffffff021916908373ffffffffffffffffffffffffffffffffffffffff160217905550506001600054016000819055506001600660003373ffffffffffffffffffffffffffffffffffffffff1673ffffffffffffffffffffffffffffffffffffffff16815260200190815260200160002060006101000a81548160ff021916908315150217905550600054600460003373ffffffffffffffffffffffffffffffffffffffff1673ffffffffffffffffffffffffffffffffffffffff1681526020019081526020016000206000018190555084600460003373ffffffffffffffffffffffffffffffffffffffff1673ffffffffffffffffffffffffffffffffffffffff16815260200190815260200160002060010190805190602001906126a59291906143a7565b5083600460003373ffffffffffffffffffffffffffffffffffffffff1673ffffffffffffffffffffffffffffffffffffffff16815260200190815260200160002060020190805190602001906126fc9291906143a7565b5082600460003373ffffffffffffffffffffffffffffffffffffffff1673ffffffffffffffffffffffffffffffffffffffff16815260200190815260200160002060030190805190602001906127539291906143a7565b5081600460003373ffffffffffffffffffffffffffffffffffffffff1673ffffffffffffffffffffffffffffffffffffffff16815260200190815260200160002060040190805190602001906127aa9291906143a7565b5080600460003373ffffffffffffffffffffffffffffffffffffffff1673ffffffffffffffffffffffffffffffffffffffff16815260200190815260200160002060050190805190602001906128019291906143a7565b5033600460003373ffffffffffffffffffffffffffffffffffffffff1673ffffffffffffffffffffffffffffffffffffffff16815260200190815260200160002060070160006101000a81548173ffffffffffffffffffffffffffffffffffffffff021916908373ffffffffffffffffffffffffffffffffffffffff1602179055505050505050565b6000606080606080600080600560008973ffffffffffffffffffffffffffffffffffffffff1673ffffffffffffffffffffffffffffffffffffffff16815260200190815260200160002060050160149054906101000a900460ff1661293a576040517f08c379a00000000000000000000000000000000000000000000000000000000081526004018080602001828103825260278152602001806144fd6027913960400191505060405180910390fd5b612942614427565b600560008a73ffffffffffffffffffffffffffffffffffffffff1673ffffffffffffffffffffffffffffffffffffffff1681526020019081526020016000206040518060e001604052908160008201548152602001600182018054600181600116156101000203166002900480601f016020809104026020016040519081016040528092919081815260200182805460018160011615610100020316600290048015612a2f5780601f10612a0457610100808354040283529160200191612a2f565b820191906000526020600020905b815481529060010190602001808311612a1257829003601f168201915b50505050508152602001600282018054600181600116156101000203166002900480601f016020809104026020016040519081016040528092919081815260200182805460018160011615610100020316600290048015612ad15780601f10612aa657610100808354040283529160200191612ad1565b820191906000526020600020905b815481529060010190602001808311612ab457829003601f168201915b50505050508152602001600382018054600181600116156101000203166002900480601f016020809104026020016040519081016040528092919081815260200182805460018160011615610100020316600290048015612b735780601f10612b4857610100808354040283529160200191612b73565b820191906000526020600020905b815481529060010190602001808311612b5657829003601f168201915b50505050508152602001600482018054600181600116156101000203166002900480601f016020809104026020016040519081016040528092919081815260200182805460018160011615610100020316600290048015612c155780601f10612bea57610100808354040283529160200191612c15565b820191906000526020600020905b815481529060010190602001808311612bf857829003601f168201915b505050505081526020016005820160009054906101000a900473ffffffffffffffffffffffffffffffffffffffff1673ffffffffffffffffffffffffffffffffffffffff1673ffffffffffffffffffffffffffffffffffffffff1681526020016005820160149054906101000a900460ff1615151515815250509050806000015181602001518260400151836060015184608001518560a001518660c00151859550849450839350829250975097509750975097509750975050919395979092949650565b600660008273ffffffffffffffffffffffffffffffffffffffff1673ffffffffffffffffffffffffffffffffffffffff16815260200190815260200160002060009054906101000a900460ff16612d7c576040517f08c379a000000000000000000000000000000000000000000000000000000000815260040180806020018281038252602581526020018061454a6025913960400191505060405180910390fd5b600860008273ffffffffffffffffffffffffffffffffffffffff1673ffffffffffffffffffffffffffffffffffffffff16815260200190815260200160002060003373ffffffffffffffffffffffffffffffffffffffff1673ffffffffffffffffffffffffffffffffffffffff16815260200190815260200160002060009054906101000a900460ff1680612e3c57508073ffffffffffffffffffffffffffffffffffffffff163373ffffffffffffffffffffffffffffffffffffffff16145b15612f4b57600460008273ffffffffffffffffffffffffffffffffffffffff1673ffffffffffffffffffffffffffffffffffffffff168152602001908152602001600020600601604051806080016040528087815260200186815260200185815260200184815250908060018154018082558091505090600182039060005260206000209060040201600090919290919091506000820151816000019080519060200190612eeb929190614327565b506020820151816001019080519060200190612f08929190614327565b506040820151816002019080519060200190612f25929190614327565b506060820151816003019080519060200190612f42929190614327565b50505050612fb9565b6040517f08c379a00000000000000000000000000000000000000000000000000000000081526004018080602001828103825260178152602001807f5265636f72642063616e6e6f742062652061646465642000000000000000000081525060200191505060405180910390fd5b5050505050565b60006060806060806000806000809050600090505b6003805490508110156130e35788805190602001206005600060038481548110612ffb57fe5b9060005260206000200160009054906101000a900473ffffffffffffffffffffffffffffffffffffffff1673ffffffffffffffffffffffffffffffffffffffff1673ffffffffffffffffffffffffffffffffffffffff16815260200190815260200160002060010160405180828054600181600116156101000203166002900480156130be5780601f1061309c5761010080835404028352918201916130be565b820191906000526020600020905b8154815290600101906020018083116130aa575b5050915050604051809103902014156130d6576130e3565b8080600101915050612fd5565b888051906020012060056000600384815481106130fc57fe5b9060005260206000200160009054906101000a900473ffffffffffffffffffffffffffffffffffffffff1673ffffffffffffffffffffffffffffffffffffffff1673ffffffffffffffffffffffffffffffffffffffff16815260200190815260200160002060010160405180828054600181600116156101000203166002900480156131bf5780601f1061319d5761010080835404028352918201916131bf565b820191906000526020600020905b8154815290600101906020018083116131ab575b5050915050604051809103902014613222576040517f08c379a000000000000000000000000000000000000000000000000000000000815260040180806020018281038252602981526020018061456f6029913960400191505060405180910390fd5b61322a614427565b600560006003848154811061323b57fe5b9060005260206000200160009054906101000a900473ffffffffffffffffffffffffffffffffffffffff1673ffffffffffffffffffffffffffffffffffffffff1673ffffffffffffffffffffffffffffffffffffffff1681526020019081526020016000206040518060e001604052908160008201548152602001600182018054600181600116156101000203166002900480601f01602080910402602001604051908101604052809291908181526020018280546001816001161561010002031660029004801561334e5780601f106133235761010080835404028352916020019161334e565b820191906000526020600020905b81548152906001019060200180831161333157829003601f168201915b50505050508152602001600282018054600181600116156101000203166002900480601f0160208091040260200160405190810160405280929190818152602001828054600181600116156101000203166002900480156133f05780601f106133c5576101008083540402835291602001916133f0565b820191906000526020600020905b8154815290600101906020018083116133d357829003601f168201915b50505050508152602001600382018054600181600116156101000203166002900480601f0160208091040260200160405190810160405280929190818152602001828054600181600116156101000203166002900480156134925780601f1061346757610100808354040283529160200191613492565b820191906000526020600020905b81548152906001019060200180831161347557829003601f168201915b50505050508152602001600482018054600181600116156101000203166002900480601f0160208091040260200160405190810160405280929190818152602001828054600181600116156101000203166002900480156135345780601f1061350957610100808354040283529160200191613534565b820191906000526020600020905b81548152906001019060200180831161351757829003601f168201915b505050505081526020016005820160009054906101000a900473ffffffffffffffffffffffffffffffffffffffff1673ffffffffffffffffffffffffffffffffffffffff1673ffffffffffffffffffffffffffffffffffffffff1681526020016005820160149054906101000a900460ff1615151515815250509050806000015181602001518260400151836060015184608001518560a001518660c0015185955084945083935082925098509850985098509850985098505050919395979092949650565b60015481565b60006060806060806000806000809050600090505b6003805490508110156136b55788600560006003848154811061363457fe5b9060005260206000200160009054906101000a900473ffffffffffffffffffffffffffffffffffffffff1673ffffffffffffffffffffffffffffffffffffffff1673ffffffffffffffffffffffffffffffffffffffff1681526020019081526020016000206000015414156136a8576136b5565b8080600101915050613615565b8860056000600384815481106136c757fe5b9060005260206000200160009054906101000a900473ffffffffffffffffffffffffffffffffffffffff1673ffffffffffffffffffffffffffffffffffffffff1673ffffffffffffffffffffffffffffffffffffffff16815260200190815260200160002060000154146137a3576040517f08c379a00000000000000000000000000000000000000000000000000000000081526004018080602001828103825260188152602001807f446f63746f7220494420646f65736e277420657869737473000000000000000081525060200191505060405180910390fd5b6137ab614427565b60056000600384815481106137bc57fe5b9060005260206000200160009054906101000a900473ffffffffffffffffffffffffffffffffffffffff1673ffffffffffffffffffffffffffffffffffffffff1673ffffffffffffffffffffffffffffffffffffffff1681526020019081526020016000206040518060e001604052908160008201548152602001600182018054600181600116156101000203166002900480601f0160208091040260200160405190810160405280929190818152602001828054600181600116156101000203166002900480156138cf5780601f106138a4576101008083540402835291602001916138cf565b820191906000526020600020905b8154815290600101906020018083116138b257829003601f168201915b50505050508152602001600282018054600181600116156101000203166002900480601f0160208091040260200160405190810160405280929190818152602001828054600181600116156101000203166002900480156139715780601f1061394657610100808354040283529160200191613971565b820191906000526020600020905b81548152906001019060200180831161395457829003601f168201915b50505050508152602001600382018054600181600116156101000203166002900480601f016020809104026020016040519081016040528092919081815260200182805460018160011615610100020316600290048015613a135780601f106139e857610100808354040283529160200191613a13565b820191906000526020600020905b8154815290600101906020018083116139f657829003601f168201915b50505050508152602001600482018054600181600116156101000203166002900480601f016020809104026020016040519081016040528092919081815260200182805460018160011615610100020316600290048015613ab55780601f10613a8a57610100808354040283529160200191613ab5565b820191906000526020600020905b815481529060010190602001808311613a9857829003601f168201915b505050505081526020016005820160009054906101000a900473ffffffffffffffffffffffffffffffffffffffff1673ffffffffffffffffffffffffffffffffffffffff1673ffffffffffffffffffffffffffffffffffffffff1681526020016005820160149054906101000a900460ff1615151515815250509050806000015181602001518260400151836060015184608001518560a001518660c0015185955084945083935082925098509850985098509850985098505050919395979092949650565b6060806060806060600660008773ffffffffffffffffffffffffffffffffffffffff1673ffffffffffffffffffffffffffffffffffffffff16815260200190815260200160002060009054906101000a900460ff16613c25576040517f08c379a00000000000000000000000000000000000000000000000000000000081526004018080602001828103825260268152602001806145246026913960400191505060405180910390fd5b613c2d61447c565b600460008873ffffffffffffffffffffffffffffffffffffffff1673ffffffffffffffffffffffffffffffffffffffff1681526020019081526020016000206040518061010001604052908160008201548152602001600182018054600181600116156101000203166002900480601f016020809104026020016040519081016040528092919081815260200182805460018160011615610100020316600290048015613d1b5780601f10613cf057610100808354040283529160200191613d1b565b820191906000526020600020905b815481529060010190602001808311613cfe57829003601f168201915b50505050508152602001600282018054600181600116156101000203166002900480601f016020809104026020016040519081016040528092919081815260200182805460018160011615610100020316600290048015613dbd5780601f10613d9257610100808354040283529160200191613dbd565b820191906000526020600020905b815481529060010190602001808311613da057829003601f168201915b50505050508152602001600382018054600181600116156101000203166002900480601f016020809104026020016040519081016040528092919081815260200182805460018160011615610100020316600290048015613e5f5780601f10613e3457610100808354040283529160200191613e5f565b820191906000526020600020905b815481529060010190602001808311613e4257829003601f168201915b50505050508152602001600482018054600181600116156101000203166002900480601f016020809104026020016040519081016040528092919081815260200182805460018160011615610100020316600290048015613f015780601f10613ed657610100808354040283529160200191613f01565b820191906000526020600020905b815481529060010190602001808311613ee457829003601f168201915b50505050508152602001600582018054600181600116156101000203166002900480601f016020809104026020016040519081016040528092919081815260200182805460018160011615610100020316600290048015613fa35780601f10613f7857610100808354040283529160200191613fa3565b820191906000526020600020905b815481529060010190602001808311613f8657829003601f168201915b5050505050815260200160068201805480602002602001604051908101604052809291908181526020016000905b8282101561428b5783829060005260206000209060040201604051806080016040529081600082018054600181600116156101000203166002900480601f01602080910402602001604051908101604052809291908181526020018280546001816001161561010002031660029004801561408d5780601f106140625761010080835404028352916020019161408d565b820191906000526020600020905b81548152906001019060200180831161407057829003601f168201915b50505050508152602001600182018054600181600116156101000203166002900480601f01602080910402602001604051908101604052809291908181526020018280546001816001161561010002031660029004801561412f5780601f106141045761010080835404028352916020019161412f565b820191906000526020600020905b81548152906001019060200180831161411257829003601f168201915b50505050508152602001600282018054600181600116156101000203166002900480601f0160208091040260200160405190810160405280929190818152602001828054600181600116156101000203166002900480156141d15780601f106141a6576101008083540402835291602001916141d1565b820191906000526020600020905b8154815290600101906020018083116141b457829003601f168201915b50505050508152602001600382018054600181600116156101000203166002900480601f0160208091040260200160405190810160405280929190818152602001828054600181600116156101000203166002900480156142735780601f1061424857610100808354040283529160200191614273565b820191906000526020600020905b81548152906001019060200180831161425657829003601f168201915b50505050508152505081526020019060010190613fd1565b5050505081526020016007820160009054906101000a900473ffffffffffffffffffffffffffffffffffffffff1673ffffffffffffffffffffffffffffffffffffffff1673ffffffffffffffffffffffffffffffffffffffff1681525050905080602001518160400151826060015183608001518460a00151849450839350829250819150809050955095509550955095505091939590929450565b828054600181600116156101000203166002900490600052602060002090601f016020900481019282601f1061436857805160ff1916838001178555614396565b82800160010185558215614396579182015b8281111561439557825182559160200191906001019061437a565b5b5090506143a391906144d7565b5090565b828054600181600116156101000203166002900490600052602060002090601f016020900481019282601f106143e857805160ff1916838001178555614416565b82800160010185558215614416579182015b828111156144155782518255916020019190600101906143fa565b5b50905061442391906144d7565b5090565b6040518060e001604052806000815260200160608152602001606081526020016060815260200160608152602001600073ffffffffffffffffffffffffffffffffffffffff1681526020016000151581525090565b60405180610100016040528060008152602001606081526020016060815260200160608152602001606081526020016060815260200160608152602001600073ffffffffffffffffffffffffffffffffffffffff1681525090565b6144f991905b808211156144f55760008160009055506001016144dd565b5090565b9056fe446f63746f72206973206e6f7420417070726f766564206f7220646f65736e27742065786973744e6f2050617469656e747320666f756e642061742074686520676976656e20616464726573734e6f2070617469656e7420666f756e642061742074686520676976656e2061646472657373446f63746f7220646f65736e27742065786973747320776974682074686520676976656e206e616d65a265627a7a723158200c165349f2894c43dd9618ed8074d7e1b438dbd0f6f238d3a655e957e60f886564736f6c63430005100032",
  "source": "\npragma solidity >=0.4.22 <0.9.0;\n\ncontract meDossier{\n    \n    uint256 public pindex=0;\n    uint256 public dindex=0;\n    \n    struct Records {\n    string dname;\n    string reason;\n    string visitedDate;\n    string ipfs;\n    }\n\n    struct doctor {\n        uint256 id;\n        string name;\n        string contact;\n        string hname;\n        string faculty;\n        address addr;\n        bool isApproved;\n    }\n    \n    struct patient{\n        uint256 id;\n        string name;\n        string phone;\n        string gender;\n        string dob;\n        string bloodgroup;\n        Records[] records;\n        address addr;\n    }\n address[] private patientList;\n    address[] public doctorList;\n\n    mapping(address=>patient) patients;\n    mapping(address=>doctor) doctors;\n    mapping(address=>bool) isPatient;\n    mapping(address=>bool) isDoctor;\n\n    mapping(address=>mapping(address=>bool)) Authorized;\n\n\n    function addRecord(string memory _dname,string memory _reason,string memory _visitedDate,string memory _ipfs, address addr) public{\n        require(isPatient[addr],\"No patient found at the given address\");\n        \n        if(Authorized[addr][msg.sender] || msg.sender == addr){\n                patients[addr].records.push(Records(_dname,_reason,_visitedDate,_ipfs));\n        }\n        else \n        revert(\"Record cannot be added \");\n       \n       \n        // require(Authorized[addr][msg.sender],\"You do not have permission to add records!\");\n        // require(isPatient[addr],\"User Not registered\");\n        // patients[addr].records.push(Records(_dname,_reason,_visitedDate,_ipfs));\n    }\n    \n    function addPatient(string memory _name,string memory _phone,string memory _gender,string memory _dob,string memory _bloodgroup) public {\n        require(!isPatient[msg.sender],\"Already Patient account exists\");\n        patientList.push(msg.sender);\n        pindex = pindex + 1;\n        isPatient[msg.sender]=true;\n        patients[msg.sender].id=pindex;\n        patients[msg.sender].name=_name;\n        patients[msg.sender].phone=_phone;\n        patients[msg.sender].gender=_gender;\n        patients[msg.sender].dob=_dob;\n        patients[msg.sender].bloodgroup=_bloodgroup;\n        patients[msg.sender].addr=msg.sender;\n        \n    }\n    \n    function getPatientDetails(address _addr) public view returns(string memory _name,string memory _phone,string memory _gender,string memory _dob,string memory _bloodgroup){\n        require(isPatient[_addr],\"No Patients found at the given address\");\n        patient memory pat = patients[_addr];\n        return (pat.name,pat.phone,pat.gender,pat.dob,pat.bloodgroup);\n    }\n    \n     \n     function getrecordlist(address _addr)  public view returns (uint256 ){\n     \n     return (patients[_addr].records.length);\n     }\n    \n    function getPatientRecords(address _addr, uint256 _id) public view \n    returns(string memory dname, string memory reason ,string memory visitedDate, string memory ipfs){\n        require(isPatient[_addr],\"No patient found at the given address\");\n        if(Authorized[_addr][msg.sender] || msg.sender == _addr){\n                return( patients[_addr].records[_id].dname,patients[_addr].records[_id].reason,\n                patients[_addr].records[_id].visitedDate,patients[_addr].records[_id].ipfs\n                    );\n        }\n        else \n        revert(\"Record cannot be accessed\");\n    }\n\n\n\n    function addDoctor(string memory _name,string memory _hname,string memory _faculty,string memory _contact) public {\n        require(!isDoctor[msg.sender],\"Already Registered\");\n        address _addr = msg.sender;\n        doctorList.push(_addr);\n\n        dindex = dindex + 1;\n        isDoctor[_addr]=true;\n        doctors[_addr]=doctor(dindex,_name,_contact,_hname,_faculty,_addr,true);\n    }\n    \n    function getDoctorbyId(uint256 _id) public view returns(uint256 id,string memory name , string memory contact ,string memory hname ,string memory faculty ,address addr , bool isApproved)  {\n        uint256 i=0;\n        for(i = 0;i<doctorList.length;i++){\n        if(doctors[doctorList[i]].id==_id){\n            break;\n        }\n    }    \n        require(doctors[doctorList[i]].id==_id,\"Doctor ID doesn't exists\");\n        doctor memory doc = doctors[doctorList[i]];\n        return (doc.id,doc.name,doc.contact,doc.hname,doc.faculty,doc.addr, doc.isApproved);\n    }\n\n        function getDoctorbyName(string memory _name) public view returns(uint256 id,string memory name , string memory contact ,string memory hname ,string memory faculty ,address addr , bool isApproved)  {\n        uint256 i=0;\n        for(i = 0;i<doctorList.length;i++){\n        if(keccak256(bytes(doctors[doctorList[i]].name)) == keccak256(bytes(_name))){\n            break;\n        }\n    }    \n        require(keccak256(bytes(doctors[doctorList[i]].name)) == keccak256(bytes(_name)),\"Doctor doesn't exists with the given name\");\n        doctor memory doc = doctors[doctorList[i]];\n        return (doc.id,doc.name,doc.contact,doc.hname,doc.faculty,doc.addr, doc.isApproved);\n    }\n    \n\n    function getDoctorByAddress(address _address) public view returns(uint256 id,string memory name , string memory contact ,string memory hname ,string memory faculty ,address addr , bool isApproved) {\n        require(doctors[_address].isApproved,\"Doctor is not Approved or doesn't exist\");\n        doctor memory doc = doctors[_address];\n        return (doc.id,doc.name,doc.contact,doc.hname,doc.faculty,doc.addr,doc.isApproved);\n    }  \n\n//Give access to certain address\n    function grantAccess(address _addr) public returns (bool success)\n    {   require(msg.sender != _addr,\"You cannot add yourself\");\n        require(!Authorized[msg.sender][_addr],\"User is already authorized\");\n        Authorized[msg.sender][_addr] = true;\n        return true;\n    }\n\n//Revoke access of patient records fromcertain address\n      function revoke_access(address _addr)  public returns (bool success){\n        require(msg.sender!=_addr,\"You can't remove yourself\");\n        require(Authorized[msg.sender][_addr],\"User is not authorized yet\");\n        Authorized[msg.sender][_addr] = false;\n        return true;\n    }\n    \n\n}\n",
  "sourcePath": "/home/ranju/location/meDossier/contracts/meDossier.sol",
  "compiler": {
    "name": "solc",
    "version": "0.5.16+commit.9c3226ce.Emscripten.clang"
  },
  "schemaVersion": "3.4.1",
  "updatedAt": "2021-06-18T08:35:59.850Z",
  "devdoc": {
    "methods": {}
  },
  "userdoc": {
    "methods": {}
  }
}