{
  "contractName": "Patient",
  "abi": [
    {
      "constant": true,
      "inputs": [],
      "name": "index",
      "outputs": [
        {
          "internalType": "uint256",
          "name": "",
          "type": "uint256"
        }
      ],
      "payable": false,
      "stateMutability": "view",
      "type": "function"
    },
    {
      "constant": false,
      "inputs": [
        {
          "internalType": "string",
          "name": "_dname",
          "type": "string"
        },
        {
          "internalType": "string",
          "name": "_reason",
          "type": "string"
        },
        {
          "internalType": "string",
          "name": "_visitedDate",
          "type": "string"
        },
        {
          "internalType": "string",
          "name": "_ipfs",
          "type": "string"
        }
      ],
      "name": "addRecord",
      "outputs": [],
      "payable": false,
      "stateMutability": "nonpayable",
      "type": "function"
    },
    {
      "constant": false,
      "inputs": [
        {
          "internalType": "string",
          "name": "_name",
          "type": "string"
        },
        {
          "internalType": "string",
          "name": "_phone",
          "type": "string"
        },
        {
          "internalType": "string",
          "name": "_gender",
          "type": "string"
        },
        {
          "internalType": "string",
          "name": "_dob",
          "type": "string"
        },
        {
          "internalType": "string",
          "name": "_bloodgroup",
          "type": "string"
        }
      ],
      "name": "addPatient",
      "outputs": [],
      "payable": false,
      "stateMutability": "nonpayable",
      "type": "function"
    },
    {
      "constant": true,
      "inputs": [
        {
          "internalType": "address",
          "name": "_addr",
          "type": "address"
        }
      ],
      "name": "getPatientDetails",
      "outputs": [
        {
          "internalType": "string",
          "name": "_name",
          "type": "string"
        },
        {
          "internalType": "string",
          "name": "_phone",
          "type": "string"
        },
        {
          "internalType": "string",
          "name": "_gender",
          "type": "string"
        },
        {
          "internalType": "string",
          "name": "_dob",
          "type": "string"
        },
        {
          "internalType": "string",
          "name": "_bloodgroup",
          "type": "string"
        }
      ],
      "payable": false,
      "stateMutability": "view",
      "type": "function"
    },
    {
      "constant": true,
      "inputs": [
        {
          "internalType": "address",
          "name": "_addr",
          "type": "address"
        }
      ],
      "name": "getPatientRecords",
      "outputs": [
        {
          "internalType": "string[]",
          "name": "_dname",
          "type": "string[]"
        },
        {
          "internalType": "string[]",
          "name": "_reason",
          "type": "string[]"
        },
        {
          "internalType": "string[]",
          "name": "_visitedDate",
          "type": "string[]"
        },
        {
          "internalType": "string[]",
          "name": "ipfs",
          "type": "string[]"
        }
      ],
      "payable": false,
      "stateMutability": "view",
      "type": "function"
    }
  ],
  "bytecode": "0x60806040526000805534801561001457600080fd5b50611f88806100246000396000f3fe608060405234801561001057600080fd5b50600436106100575760003560e01c806318bd48471461005c5780632986c0e51461008f57806356fa8217146100ad57806397fd28b3146100c9578063efe2ccc1146100e5575b600080fd5b610076600480360361007191908101906117d2565b610119565b6040516100869493929190611c43565b60405180910390f35b6100976108db565b6040516100a49190611dba565b60405180910390f35b6100c760048036036100c291908101906118be565b6108e1565b005b6100e360048036036100de91908101906117fb565b610cbc565b005b6100ff60048036036100fa91908101906117d2565b610e53565b604051610110959493929190611ca4565b60405180910390f35b606080606080600360008673ffffffffffffffffffffffffffffffffffffffff1673ffffffffffffffffffffffffffffffffffffffff16815260200190815260200160002060009054906101000a900460ff166101ab576040517f08c379a00000000000000000000000000000000000000000000000000000000081526004016101a290611d3a565b60405180910390fd5b6000600260008773ffffffffffffffffffffffffffffffffffffffff1673ffffffffffffffffffffffffffffffffffffffff1681526020019081526020016000206006018054905011610233576040517f08c379a000000000000000000000000000000000000000000000000000000000815260040161022a90611d1a565b60405180910390fd5b6060600260008773ffffffffffffffffffffffffffffffffffffffff1673ffffffffffffffffffffffffffffffffffffffff168152602001908152602001600020600601805490506040519080825280602002602001820160405280156102ae57816020015b60608152602001906001900390816102995790505b5090506060600260008873ffffffffffffffffffffffffffffffffffffffff1673ffffffffffffffffffffffffffffffffffffffff1681526020019081526020016000206006018054905060405190808252806020026020018201604052801561032c57816020015b60608152602001906001900390816103175790505b5090506060600260008973ffffffffffffffffffffffffffffffffffffffff1673ffffffffffffffffffffffffffffffffffffffff168152602001908152602001600020600601805490506040519080825280602002602001820160405280156103aa57816020015b60608152602001906001900390816103955790505b5090506060600260008a73ffffffffffffffffffffffffffffffffffffffff1673ffffffffffffffffffffffffffffffffffffffff1681526020019081526020016000206006018054905060405190808252806020026020018201604052801561042857816020015b60608152602001906001900390816104135790505b50905060008090505b600260008b73ffffffffffffffffffffffffffffffffffffffff1673ffffffffffffffffffffffffffffffffffffffff168152602001908152602001600020600601805490508110156108c357600260008b73ffffffffffffffffffffffffffffffffffffffff1673ffffffffffffffffffffffffffffffffffffffff16815260200190815260200160002060060181815481106104cb57fe5b90600052602060002090600402016000018054600181600116156101000203166002900480601f0160208091040260200160405190810160405280929190818152602001828054600181600116156101000203166002900480156105705780601f1061054557610100808354040283529160200191610570565b820191906000526020600020905b81548152906001019060200180831161055357829003601f168201915b505050505085828151811061058157fe5b6020026020010181905250600260008b73ffffffffffffffffffffffffffffffffffffffff1673ffffffffffffffffffffffffffffffffffffffff16815260200190815260200160002060060181815481106105d957fe5b90600052602060002090600402016001018054600181600116156101000203166002900480601f01602080910402602001604051908101604052809291908181526020018280546001816001161561010002031660029004801561067e5780601f106106535761010080835404028352916020019161067e565b820191906000526020600020905b81548152906001019060200180831161066157829003601f168201915b505050505084828151811061068f57fe5b6020026020010181905250600260008b73ffffffffffffffffffffffffffffffffffffffff1673ffffffffffffffffffffffffffffffffffffffff16815260200190815260200160002060060181815481106106e757fe5b90600052602060002090600402016002018054600181600116156101000203166002900480601f01602080910402602001604051908101604052809291908181526020018280546001816001161561010002031660029004801561078c5780601f106107615761010080835404028352916020019161078c565b820191906000526020600020905b81548152906001019060200180831161076f57829003601f168201915b505050505083828151811061079d57fe5b6020026020010181905250600260008b73ffffffffffffffffffffffffffffffffffffffff1673ffffffffffffffffffffffffffffffffffffffff16815260200190815260200160002060060181815481106107f557fe5b90600052602060002090600402016003018054600181600116156101000203166002900480601f01602080910402602001604051908101604052809291908181526020018280546001816001161561010002031660029004801561089a5780601f1061086f5761010080835404028352916020019161089a565b820191906000526020600020905b81548152906001019060200180831161087d57829003601f168201915b50505050508282815181106108ab57fe5b60200260200101819052508080600101915050610431565b50838383839750975097509750505050509193509193565b60005481565b600360003373ffffffffffffffffffffffffffffffffffffffff1673ffffffffffffffffffffffffffffffffffffffff16815260200190815260200160002060009054906101000a900460ff161561096e576040517f08c379a000000000000000000000000000000000000000000000000000000000815260040161096590611d5a565b60405180910390fd5b60013390806001815401808255809150509060018203906000526020600020016000909192909190916101000a81548173ffffffffffffffffffffffffffffffffffffffff021916908373ffffffffffffffffffffffffffffffffffffffff160217905550506001600054016000819055506001600360003373ffffffffffffffffffffffffffffffffffffffff1673ffffffffffffffffffffffffffffffffffffffff16815260200190815260200160002060006101000a81548160ff021916908315150217905550600054600260003373ffffffffffffffffffffffffffffffffffffffff1673ffffffffffffffffffffffffffffffffffffffff1681526020019081526020016000206000018190555084600260003373ffffffffffffffffffffffffffffffffffffffff1673ffffffffffffffffffffffffffffffffffffffff1681526020019081526020016000206001019080519060200190610ad79291906115e9565b5083600260003373ffffffffffffffffffffffffffffffffffffffff1673ffffffffffffffffffffffffffffffffffffffff1681526020019081526020016000206002019080519060200190610b2e9291906115e9565b5082600260003373ffffffffffffffffffffffffffffffffffffffff1673ffffffffffffffffffffffffffffffffffffffff1681526020019081526020016000206003019080519060200190610b859291906115e9565b5081600260003373ffffffffffffffffffffffffffffffffffffffff1673ffffffffffffffffffffffffffffffffffffffff1681526020019081526020016000206004019080519060200190610bdc9291906115e9565b5080600260003373ffffffffffffffffffffffffffffffffffffffff1673ffffffffffffffffffffffffffffffffffffffff1681526020019081526020016000206005019080519060200190610c339291906115e9565b5033600260003373ffffffffffffffffffffffffffffffffffffffff1673ffffffffffffffffffffffffffffffffffffffff16815260200190815260200160002060070160006101000a81548173ffffffffffffffffffffffffffffffffffffffff021916908373ffffffffffffffffffffffffffffffffffffffff1602179055505050505050565b600360003373ffffffffffffffffffffffffffffffffffffffff1673ffffffffffffffffffffffffffffffffffffffff16815260200190815260200160002060009054906101000a900460ff16610d48576040517f08c379a0000000000000000000000000000000000000000000000000000000008152600401610d3f90611d9a565b60405180910390fd5b600260003373ffffffffffffffffffffffffffffffffffffffff1673ffffffffffffffffffffffffffffffffffffffff168152602001908152602001600020600601604051806080016040528086815260200185815260200184815260200183815250908060018154018082558091505090600182039060005260206000209060040201600090919290919091506000820151816000019080519060200190610df2929190611669565b506020820151816001019080519060200190610e0f929190611669565b506040820151816002019080519060200190610e2c929190611669565b506060820151816003019080519060200190610e49929190611669565b5050505050505050565b6060806060806060600360008773ffffffffffffffffffffffffffffffffffffffff1673ffffffffffffffffffffffffffffffffffffffff16815260200190815260200160002060009054906101000a900460ff16610ee7576040517f08c379a0000000000000000000000000000000000000000000000000000000008152600401610ede90611d7a565b60405180910390fd5b610eef6116e9565b600260008873ffffffffffffffffffffffffffffffffffffffff1673ffffffffffffffffffffffffffffffffffffffff1681526020019081526020016000206040518061010001604052908160008201548152602001600182018054600181600116156101000203166002900480601f016020809104026020016040519081016040528092919081815260200182805460018160011615610100020316600290048015610fdd5780601f10610fb257610100808354040283529160200191610fdd565b820191906000526020600020905b815481529060010190602001808311610fc057829003601f168201915b50505050508152602001600282018054600181600116156101000203166002900480601f01602080910402602001604051908101604052809291908181526020018280546001816001161561010002031660029004801561107f5780601f106110545761010080835404028352916020019161107f565b820191906000526020600020905b81548152906001019060200180831161106257829003601f168201915b50505050508152602001600382018054600181600116156101000203166002900480601f0160208091040260200160405190810160405280929190818152602001828054600181600116156101000203166002900480156111215780601f106110f657610100808354040283529160200191611121565b820191906000526020600020905b81548152906001019060200180831161110457829003601f168201915b50505050508152602001600482018054600181600116156101000203166002900480601f0160208091040260200160405190810160405280929190818152602001828054600181600116156101000203166002900480156111c35780601f10611198576101008083540402835291602001916111c3565b820191906000526020600020905b8154815290600101906020018083116111a657829003601f168201915b50505050508152602001600582018054600181600116156101000203166002900480601f0160208091040260200160405190810160405280929190818152602001828054600181600116156101000203166002900480156112655780601f1061123a57610100808354040283529160200191611265565b820191906000526020600020905b81548152906001019060200180831161124857829003601f168201915b5050505050815260200160068201805480602002602001604051908101604052809291908181526020016000905b8282101561154d5783829060005260206000209060040201604051806080016040529081600082018054600181600116156101000203166002900480601f01602080910402602001604051908101604052809291908181526020018280546001816001161561010002031660029004801561134f5780601f106113245761010080835404028352916020019161134f565b820191906000526020600020905b81548152906001019060200180831161133257829003601f168201915b50505050508152602001600182018054600181600116156101000203166002900480601f0160208091040260200160405190810160405280929190818152602001828054600181600116156101000203166002900480156113f15780601f106113c6576101008083540402835291602001916113f1565b820191906000526020600020905b8154815290600101906020018083116113d457829003601f168201915b50505050508152602001600282018054600181600116156101000203166002900480601f0160208091040260200160405190810160405280929190818152602001828054600181600116156101000203166002900480156114935780601f1061146857610100808354040283529160200191611493565b820191906000526020600020905b81548152906001019060200180831161147657829003601f168201915b50505050508152602001600382018054600181600116156101000203166002900480601f0160208091040260200160405190810160405280929190818152602001828054600181600116156101000203166002900480156115355780601f1061150a57610100808354040283529160200191611535565b820191906000526020600020905b81548152906001019060200180831161151857829003601f168201915b50505050508152505081526020019060010190611293565b5050505081526020016007820160009054906101000a900473ffffffffffffffffffffffffffffffffffffffff1673ffffffffffffffffffffffffffffffffffffffff1673ffffffffffffffffffffffffffffffffffffffff1681525050905080602001518160400151826060015183608001518460a00151849450839350829250819150809050955095509550955095505091939590929450565b828054600181600116156101000203166002900490600052602060002090601f016020900481019282601f1061162a57805160ff1916838001178555611658565b82800160010185558215611658579182015b8281111561165757825182559160200191906001019061163c565b5b5090506116659190611744565b5090565b828054600181600116156101000203166002900490600052602060002090601f016020900481019282601f106116aa57805160ff19168380011785556116d8565b828001600101855582156116d8579182015b828111156116d75782518255916020019190600101906116bc565b5b5090506116e59190611744565b5090565b60405180610100016040528060008152602001606081526020016060815260200160608152602001606081526020016060815260200160608152602001600073ffffffffffffffffffffffffffffffffffffffff1681525090565b61176691905b8082111561176257600081600090555060010161174a565b5090565b90565b60008135905061177881611f2e565b92915050565b600082601f83011261178f57600080fd5b81356117a261179d82611e02565b611dd5565b915080825260208301602083018583830111156117be57600080fd5b6117c9838284611edb565b50505092915050565b6000602082840312156117e457600080fd5b60006117f284828501611769565b91505092915050565b6000806000806080858703121561181157600080fd5b600085013567ffffffffffffffff81111561182b57600080fd5b6118378782880161177e565b945050602085013567ffffffffffffffff81111561185457600080fd5b6118608782880161177e565b935050604085013567ffffffffffffffff81111561187d57600080fd5b6118898782880161177e565b925050606085013567ffffffffffffffff8111156118a657600080fd5b6118b28782880161177e565b91505092959194509250565b600080600080600060a086880312156118d657600080fd5b600086013567ffffffffffffffff8111156118f057600080fd5b6118fc8882890161177e565b955050602086013567ffffffffffffffff81111561191957600080fd5b6119258882890161177e565b945050604086013567ffffffffffffffff81111561194257600080fd5b61194e8882890161177e565b935050606086013567ffffffffffffffff81111561196b57600080fd5b6119778882890161177e565b925050608086013567ffffffffffffffff81111561199457600080fd5b6119a08882890161177e565b9150509295509295909350565b60006119b98383611a6f565b905092915050565b60006119cc82611e3e565b6119d68185611e6c565b9350836020820285016119e885611e2e565b8060005b85811015611a245784840389528151611a0585826119ad565b9450611a1083611e5f565b925060208a019950506001810190506119ec565b50829750879550505050505092915050565b6000611a4182611e54565b611a4b8185611e8e565b9350611a5b818560208601611eea565b611a6481611f1d565b840191505092915050565b6000611a7a82611e49565b611a848185611e7d565b9350611a94818560208601611eea565b611a9d81611f1d565b840191505092915050565b6000611ab5601c83611e8e565b91507f70617469656e74207265636f726420646f65736e2774206578697374000000006000830152602082019050919050565b6000611af5602483611e8e565b91507f70617469656e74206e6f74207369676e656420696e20746f206f7572206e657460008301527f776f726b000000000000000000000000000000000000000000000000000000006020830152604082019050919050565b6000611b5b601e83611e8e565b91507f416c72656164792050617469656e74206163636f756e742065786973747300006000830152602082019050919050565b6000611b9b602683611e8e565b91507f4e6f2050617469656e747320666f756e642061742074686520676976656e206160008301527f64647265737300000000000000000000000000000000000000000000000000006020830152604082019050919050565b6000611c01601383611e8e565b91507f55736572204e6f742072656769737465726564000000000000000000000000006000830152602082019050919050565b611c3d81611ed1565b82525050565b60006080820190508181036000830152611c5d81876119c1565b90508181036020830152611c7181866119c1565b90508181036040830152611c8581856119c1565b90508181036060830152611c9981846119c1565b905095945050505050565b600060a0820190508181036000830152611cbe8188611a36565b90508181036020830152611cd28187611a36565b90508181036040830152611ce68186611a36565b90508181036060830152611cfa8185611a36565b90508181036080830152611d0e8184611a36565b90509695505050505050565b60006020820190508181036000830152611d3381611aa8565b9050919050565b60006020820190508181036000830152611d5381611ae8565b9050919050565b60006020820190508181036000830152611d7381611b4e565b9050919050565b60006020820190508181036000830152611d9381611b8e565b9050919050565b60006020820190508181036000830152611db381611bf4565b9050919050565b6000602082019050611dcf6000830184611c34565b92915050565b6000604051905081810181811067ffffffffffffffff82111715611df857600080fd5b8060405250919050565b600067ffffffffffffffff821115611e1957600080fd5b601f19601f8301169050602081019050919050565b6000819050602082019050919050565b600081519050919050565b600081519050919050565b600081519050919050565b6000602082019050919050565b600082825260208201905092915050565b600082825260208201905092915050565b600082825260208201905092915050565b6000611eaa82611eb1565b9050919050565b600073ffffffffffffffffffffffffffffffffffffffff82169050919050565b6000819050919050565b82818337600083830152505050565b60005b83811015611f08578082015181840152602081019050611eed565b83811115611f17576000848401525b50505050565b6000601f19601f8301169050919050565b611f3781611e9f565b8114611f4257600080fd5b5056fea365627a7a7231582002fdb1f9c199c6525cf3cdabdf32fb5f3c769585f7d98b91dffdd5b069e68a4b6c6578706572696d656e74616cf564736f6c63430005100040",
  "source": "pragma solidity >=0.4.22 <0.9.0;\npragma experimental ABIEncoderV2;\n\ncontract Patient{\n    \n    uint256 public index=0;\n    \n    struct Records {\n    string dname;\n    string reason;\n    string visitedDate;\n    string ipfs;\n    }\n    \n    struct patient{\n        uint256 id;\n        string name;\n        string phone;\n        string gender;\n        string dob;\n        string bloodgroup;\n        Records[] records;\n        address addr;\n    }\n\n    address[] private patientList;\n    mapping(address=>patient) patients;\n    mapping(address=>bool) isPatient;\n\n    \n    function addRecord(string memory _dname,string memory _reason,string memory _visitedDate,string memory _ipfs) public{\n        require(isPatient[msg.sender],\"User Not registered\");\n        patients[msg.sender].records.push(Records(_dname,_reason,_visitedDate,_ipfs));\n    }\n    \n    function addPatient(string memory _name,string memory _phone,string memory _gender,string memory _dob,string memory _bloodgroup) public {\n        require(!isPatient[msg.sender],\"Already Patient account exists\");\n        patientList.push(msg.sender);\n        index = index + 1;\n        isPatient[msg.sender]=true;\n        patients[msg.sender].id=index;\n        patients[msg.sender].name=_name;\n        patients[msg.sender].phone=_phone;\n        patients[msg.sender].gender=_gender;\n        patients[msg.sender].dob=_dob;\n        patients[msg.sender].bloodgroup=_bloodgroup;\n        patients[msg.sender].addr=msg.sender;\n    }\n    \n    function getPatientDetails(address _addr) public view returns(string memory _name,string memory _phone,string memory _gender,string memory _dob,string memory _bloodgroup){\n        require(isPatient[_addr],\"No Patients found at the given address\");\n        patient memory pat = patients[_addr];\n        return (pat.name,pat.phone,pat.gender,pat.dob,pat.bloodgroup);\n    }\n    \n    function getPatientRecords(address _addr) public view returns(string[] memory _dname,string[] memory _reason,string[] memory _visitedDate,string[] memory ipfs){\n        require(isPatient[_addr],\"patient not signed in to our network\");\n        require(patients[_addr].records.length>0,\"patient record doesn't exist\");\n        string[] memory Dname = new string[](patients[_addr].records.length);\n        string[] memory Reason = new string[](patients[_addr].records.length);\n        string[] memory VisDat = new string[](patients[_addr].records.length);\n        string[] memory IPFS = new string[](patients[_addr].records.length);\n        for(uint256 i=0;i<patients[_addr].records.length;i++){\n            Dname[i]=patients[_addr].records[i].dname;\n            Reason[i]=patients[_addr].records[i].reason;\n            VisDat[i]=patients[_addr].records[i].visitedDate;\n            IPFS[i]=patients[_addr].records[i].ipfs;\n        }\n        return(Dname,Reason,VisDat,IPFS);\n    }\n    \n\n}",
  "sourcePath": "/home/ranju/location/meDossier/contracts/patientContract.sol",
  "compiler": {
    "name": "solc",
    "version": "0.5.16+commit.9c3226ce.Emscripten.clang"
  },
  "schemaVersion": "3.4.1",
  "updatedAt": "2021-06-12T12:23:59.580Z",
  "devdoc": {
    "methods": {}
  },
  "userdoc": {
    "methods": {}
  }
}